:020000040800F2
:10000000803E0020A9010008971400080114000890
:1000100095140008AB0A0008AD3400080000000089
:10002000000000000000000000000000811C00082B
:100030000D0E0008000000001D1800082520000813
:10004000C3010008C3010008C3010008C301000880
:10005000C3010008C3010008C3010008110E000815
:1000600000000000C3010008C3010008C30100082C
:10007000C3010008C3010008C3010008000000001C
:10008000C3010008BD22000800000000C9210008CB
:10009000C3010008ED210008C3010008C3010008E6
:1000A000C3010008C3010008C3010008A52E000811
:1000B000C301000800000000000000000000000074
:1000C000C301000800000000C301000800F002F8AE
:1000D00000F05AF80AA090E8000C82448344AAF188
:1000E0000107DA4501D100F04FF8AFF2090EBAE886
:1000F0000F0013F0010F18BFFB1A43F0010318475C
:1001000084CE0000A4CE00000A444FF0000C10F88A
:10011000013B13F0070408BF10F8014B1D1108BF85
:1001200010F8015B641E05D010F8016B641E01F825
:10013000016BF9D113F0080F1EBF10F8014BAD1C75
:100140000C1B09D16D1E58BF01F801CBFAD505E093
:1001500014F8016B01F8016B6D1EF9D59142D6D3ED
:10016000704700000023002400250026103A28BF15
:1001700078C1FBD8520728BF30C148BF0B60704719
:100180001FB51FBD10B510BD00F014F91146FFF7E3
:10019000F7FF03F07DFB00F032F903B4FFF7F2FF45
:1001A00003BC00F035F900000948804709480047C2
:1001B000FEE7FEE7FEE7FEE7FEE7FEE7FEE7FEE717
:1001C000FEE7FEE704480549054A064B7047000074
:1001D00049210008CD000008802D0020803E00202D
:1001E000802E0020802E002053EA020C00F069804F
:1001F0002DE9F04B4FF00006002B1FBFB3FA83F53B
:1002000003FA05F424FA05F65E4012BF1643B2FA6B
:1002100082F502FA05F4C5F120051EBF22FA05FC9D
:1002200044EA0C04203556EA044C4FEA144418BF43
:10023000641C4FF000084FF00009904271EB030C72
:1002400039D3002919BFB1FA81F701FA07F6B0FADC
:1002500080F700FA07F6C7F120071EBF20FA07FC57
:1002600046EA0C062037B6FBF4FCA7EB0507103F67
:1002700007F01F0BCBF120060CFA0BFB2CFA06F64D
:1002800044BFB3460026202FA4BF5E464FF0000BAC
:100290005BEA060C08BF4FF0010B19EB0B09ABFB37
:1002A000027C48EB0608C01B06FB02CC0BFB03CC10
:1002B00071EB0C01C1E70B46024641464846BDE8DA
:1002C000F08B13B54FF000004FF00001AFF300804A
:1002D000BDE81C40704710B5203AC0F00B80B1E873
:1002E0001850203AA0E81850B1E81850A0E818506B
:1002F000BFF4F5AF5FEA027C24BFB1E81850A0E874
:10030000185044BF18C918C0BDE810405FEA827C8D
:1003100024BF51F8043B40F8043B08BF7047D207A4
:1003200028BF31F8023B48BF11F8012B28BF20F845
:10033000023B48BF00F8012B70474FF0000200B5A8
:10034000134694469646203922BFA0E80C50A0E8F8
:100350000C50B1F12001BFF4F7AF090728BFA0E8A6
:100360000C5048BF0CC05DF804EB890028BF40F872
:10037000042B08BF704748BF20F8022B11F0804FB4
:1003800018BF00F8012B704770477047704710B5D1
:1003900000F008F8006810BD10B5044600F002F83F
:1003A000046010BD004870471C2D002000487047B5
:1003B0001C2D00207546FFF7F9FFAE460500694683
:1003C000534620F00700854618B020B5FFF7FAFE27
:1003D000BDE820404FF000064FF000074FF0000846
:1003E0004FF0000B21F00701AC46ACE8C009ACE8C7
:1003F000C009ACE8C009ACE8C0098D46704710B52B
:100400000446AFF300802046BDE81040FFF7C5BEAC
:1004100001491820ABBEFEE726000200704700002D
:1004200010B586B04FF4404001F012FA01A800F078
:1004300033FB0020019001218DF808108DF8091080
:100440004FF46021039104900A208DF814002D4C84
:1004500001A9204600F040F901220223114620465E
:1004600000F0C8F902231A461946204600F0C2F9E6
:10047000022303220821204600F0BCF904220223B3
:100480001146204600F0B6F9022305220621204637
:1004900000F0B0F9022306220721204600F0AAF955
:1004A000022307220821204600F0A4F90223082293
:1004B0000921204600F09EF902230922002120464E
:1004C00000F098F902230A220521204600F092F953
:1004D0000121204600F058F80121204600F014F8D0
:1004E000204600F035FA204600F0C2F80028FAD184
:1004F000204600F09FFA204600F086F80028FAD146
:1005000006B010BD0024014070B504460D460D48EC
:10051000844204D04FF492710BA003F07BF935B103
:10052000012D04D040F2251107A003F073F925B185
:10053000A06840F00100A06070BDA06820F001003C
:10054000A06070BD002401402E2E5C2E2E5C4C69F4
:10055000627261726965735C4154333246347878F3
:100560005F5374645065726970685F447269766540
:10057000725C7372635C61743332663478785F6185
:1005800064632E630000000070B504460D460D48FC
:10059000844204D04FF49F710BA003F03BF935B1B6
:1005A000012D04D040F23F1107A003F033F925B12B
:1005B000A06840F48070A06070BDA06820F48070D6
:1005C000A06070BD002401402E2E5C2E2E5C4C6974
:1005D000627261726965735C415433324634787873
:1005E0005F5374645065726970685F4472697665C0
:1005F000725C7372635C61743332663478785F6105
:1006000064632E630000000070B5044600250748AF
:10061000844204D040F2AD1105A003F0FBF8A068BD
:10062000400700D50125284670BD00000024014088
:100630002E2E5C2E2E5C4C69627261726965735C51
:1006400041543332463478785F537464506572692C
:1006500070685F4472697665725C7372635C617422
:100660003332663478785F6164632E630000000083
:1006700070B5044600250748844204D040F2851135
:1006800005A003F0C7F8A068000700D5012528469B
:1006900070BD0000002401402E2E5C2E2E5C4C69A3
:1006A000627261726965735C4154333246347878A2
:1006B0005F5374645065726970685F4472697665EF
:1006C000725C7372635C61743332663478785F6134
:1006D00064632E630000000070B505460C46324886
:1006E000854203D0D52131A003F094F8206818B1D9
:1006F000D6212EA003F08EF8207928B1012803D04E
:10070000D7212AA003F086F8607928B1012803D008
:10071000D82126A003F07EF8A068A8B1B0F5003F6C
:1007200012D0B0F5002F0FD0B0F5402F0CD0B0F59F
:10073000802F09D0B0F5602F06D0B0F5202F03D060
:10074000D9211AA003F066F8E06830B1B0F5006F67
:1007500003D0DA2115A003F05DF8207C401E0F289D
:1007600003D9DB2111A003F055F868681F49084040
:100770002279216840EA022001436960A8681C4987
:100780000840D4E902211143627940EA4200014362
:10079000A960E86A20F47001207C401EC0B241EAE2
:1007A0000050E86270BD0000002401402E2E5C2E37
:1007B0002E5C4C69627261726965735C41543332BC
:1007C000463478785F5374645065726970685F442A
:1007D00072697665725C7372635C6174333266341D
:1007E00078785F6164632E6300000000FFFEF0FF15
:1007F000FDF7F1FD2DE9F04105460C4617461E4672
:100800004248854204D040F2532141A003F002F84F
:1008100034B3012C24D0022C22D0032C20D0042C61
:100820001ED0052C1CD0062C1AD0072C18D0082C52
:1008300016D0092C14D00A2C12D00B2C10D00C2C52
:100840000ED00D2C0CD00E2C0AD00F2C08D0102C52
:1008500006D0112C04D04FF415712DA002F0DAFF50
:10086000781E80460F2804D940F2552128A002F0B6
:10087000D1FF96B1012E10D0022E0ED0032E0CD037
:10088000042E0AD0052E08D0062E06D0072E04D03E
:1008900040F256211EA002F0BDFF0721092C0AD903
:1008A000EA68A4F10A0000EB400081408A438640D8
:1008B0003243EA6007E02A6904EB440081408A433E
:1008C000864032432A611F21072F09D26A6B08EB49
:1008D000880081408A43844022436A63BDE8F081F6
:1008E0000D2F09D22A6BFF1F07EB870081408A4337
:1008F000844022432A63F1E7EA6A0D3F07EB870051
:1009000081408A4384402243EA62E7E700240140B1
:100910002E2E5C2E2E5C4C69627261726965735C6E
:1009200041543332463478785F5374645065726949
:1009300070685F4472697665725C7372635C61743F
:100940003332663478785F6164632E6300000000A0
:1009500010B504460648844204D040F2771105A041
:1009600002F058FFA06840F00800A06010BD000031
:10097000002401402E2E5C2E2E5C4C696272617246
:100980006965735C41543332463478785F537464DC
:100990005065726970685F4472697665725C7372E3
:1009A000635C61743332663478785F6164632E63AC
:1009B0000000000070B504460D460D48844204D086
:1009C00040F2C9110BA002F025FF35B1012D04D072
:1009D0004FF4E57107A002F01DFF25B1A06840F4B7
:1009E000A000A06070BDA06820F4A000A06070BD51
:1009F000002401402E2E5C2E2E5C4C6962726172C6
:100A00006965735C41543332463478785F5374645B
:100A10005065726970685F4472697665725C737262
:100A2000635C61743332663478785F6164632E632B
:100A30000000000010B504460648844204D040F28D
:100A40009F1105A002F0E6FEA06840F00400A0603F
:100A500010BD0000002401402E2E5C2E2E5C4C693F
:100A6000627261726965735C4154333246347878DE
:100A70005F5374645065726970685F44726976652B
:100A8000725C7372635C61743332663478785F6170
:100A900064632E6300000000002101600171417158
:100AA0008160C160012101747047FEE770B50446A2
:100AB0000D461648844214D014481430844210D095
:100AC0001248283084420CD010483C30844208D070
:100AD0000E485030844204D040F255110CA002F070
:100AE00099FE35B1012D04D04FF4AB7108A002F08E
:100AF00091FE25B1206840F00100206070BD2068A3
:100B00004FF6FE710840206070BD000008000240F2
:100B10002E2E5C2E2E5C4C69627261726965735C6C
:100B200041543332463478785F5374645065726947
:100B300070685F4472697665725C7372635C61743D
:100B40003332663478785F646D612E630000000094
:100B500010B58CB0124C204600F0E8F801A800F067
:100B600025F810480190104802900021039164225A
:100B700004920591802206925200079290000890FC
:100B8000202009904FF440500A900B9101A9204673
:100B900000F01AF801212046FFF788FF0CB010BDC5
:100BA000080002404C2401403C1E0020002101604E
:100BB00041608160C160016141618161C161016227
:100BC000416281627047000070B505460C46464898
:100BD000854213D04448143085420FD04248283013
:100BE00085420BD040483C30854207D03E485030CB
:100BF000854203D0C3213DA002F00CFEA06810285E
:100C000004D018B1C42139A002F004FEE0684FF608
:100C1000FF71401E884203D3C52134A002F0FAFDC3
:100C20002069402804D018B1C62130A002F0F2FD9E
:100C30006069802804D018B1C7212CA002F0EAFD19
:100C4000A06948B1B0F5807F06D0B0F5007F03D031
:100C5000C82126A002F0DEFDE06948B1B0F5806F42
:100C600006D0B0F5006F03D0C92120A002F0D2FD5C
:100C7000206A202804D018B1CA211CA002F0CAFDA5
:100C8000606AB0F5405F0AD0B0F5005F07D0B0F5FC
:100C9000805F04D018B1CB2114A002F0BBFDA06A84
:100CA000B0F5804F04D018B1CC2110A002F0B2FDF5
:100CB000286847F6F0718843226AA1681143D4E995
:100CC00004231A431143A2691143E2691143626A82
:100CD0001143A26A114301432960E06868602068FB
:100CE000A8606068E86070BD080002402E2E5C2E8F
:100CF0002E5C4C69627261726965735C4154333277
:100D0000463478785F5374645065726970685F44E4
:100D100072697665725C7372635C617433326634D7
:100D200078785F646D612E63000000002DE9F04764
:100D30000446254D244E244FDFF88C90DFF8888040
:100D4000143528363C3708F150084C450BD0AC42DE
:100D500009D0B44207D0BC4205D0444503D0642139
:100D60001AA002F057FD20684FF6FE71084020607F
:100D7000002020606060A060E060134808384C45A7
:100D800005D1416841F00F014160BDE8F087AC42F8
:100D900004D1416841F0F0014160F6E7B44204D16A
:100DA000416841F470614160EFE7BC4204D14168A1
:100DB00041F470414160E8E74445E6D1416841F4BF
:100DC00070214160E1E70000080002402E2E5C2EF9
:100DD0002E5C4C69627261726965735C4154333296
:100DE000463478785F5374645065726970685F4404
:100DF00072697665725C7372635C617433326634F7
:100E000078785F646D612E63000000007047000019
:100E100070B54FF48055284600F058F8002820D0CF
:100E2000104C207A20B919200AF088FA012020728B
:100E300003F0C0FA617A0C4B4A1CD2B25854C82154
:100E4000B2FBF1F001FB10206072002060614FF4F2
:100E50000061064800F08CFA2846BDE8704000F0BA
:100E600007B870BD8C1C0020001D00200004004845
:100E700010B50446A00D00D11CB9F42102A002F067
:100E8000C9FC1148046010BD2E2E5C2E2E5C4C69EE
:100E9000627261726965735C4154333246347878AA
:100EA0005F5374645065726970685F4472697665F7
:100EB000725C7372635C61743332663478785F6538
:100EC0007874692E630000001404014070B5044674
:100ED0000025012C3BD0022C39D0042C37D0082C13
:100EE00035D0102C33D0202C31D0402C2FD0802C5A
:100EF0002DD0B4F5807F2AD0B4F5007F27D0B4F58B
:100F0000806F24D0B4F5006F21D0B4F5805F1ED07F
:100F1000B4F5005F1BD0B4F5804F18D0B4F5004F86
:100F200015D0B4F5803F12D0B4F5003F0FD0B4F522
:100F3000802F0CD0B4F5002F09D0B4F5801F06D057
:100F4000B4F5001F03D0DB2107A002F063FC1648B4
:100F500000682040144914310968214201D000B1D1
:100F60000125284670BD00002E2E5C2E2E5C4C699B
:100F7000627261726965735C4154333246347878C9
:100F80005F5374645065726970685F447269766516
:100F9000725C7372635C61743332663478785F6557
:100FA0007874692E630000000004014070B50446A7
:100FB0002079002805D0042803D05F2129A002F061
:100FC00029FC6079082807D00C2805D0102803D008
:100FD000602124A002F01EFC2068810D00D118B908
:100FE000612120A002F016FCA07928B1012803D0CD
:100FF00062211CA002F00EFC2A49A07958B30868AF
:10100000226890430860081D026823689A430260C2
:1010100020790844026823681A430260214A083292
:101020001068236898431060131D18682568A8434A
:1010300018606079102805D00844016822681143BF
:10104000016070BD1068216808431060186821684D
:101050000843186070BD20790844016822689143F4
:10106000016070BD2E2E5C2E2E5C4C696272617226
:101070006965735C41543332463478785F537464E5
:101080005065726970685F4472697665725C7372EC
:10109000635C61743332663478785F657874692E86
:1010A00063000000000401400021016001710C2276
:1010B00042718171704700002DE9F04704460D46EA
:1010C0000026B4F1904F0CD04C48844209D04C48D3
:1010D000844206D04B48844203D08A214A4802F019
:1010E00099FBE87848B1012807D0022805D00328E9
:1010F00003D08B21444802F08DFB288818B98C213D
:10110000414802F087FB687938B1012805D00228F0
:1011100003D08D213C4802F07DFB287928B10128BD
:1011200003D08E21384802F075FBA878012805D03D
:10113000022803D08F21344802F06CFBE8780021AC
:1011400030B1012804D0022802D0032800D0E97071
:10115000687920B1012802D0022800D0697128796D
:1011600010B1012800D02971A878012803D00228E5
:1011700001D00220A8704FF001094FF0030809FACE
:1011800006F728883840B84233D1E878012801D0E2
:1011900002281BD1A878012805D0022803D0B0214D
:1011A000194802F037FBA168700008FA00F2914379
:1011B000A160A9788140A0680143A160A088B843DC
:1011C000A080A1882879B0400143A18022687000E6
:1011D00008FA00F18A432260EA78236882401A43C1
:1011E0002260E2688A43E26069798140E0680143F5
:1011F000E160761C102EC2D3BDE8F08700040048E1
:10120000000800480014004840CF000870B50646AA
:101210000C461546B6F1904F0DD02A4886420AD0AA
:101220002948864207D02948864204D040F2A711B7
:10123000274802F0EFFA14B3012C20D0022C1ED064
:10124000032C1CD0042C1AD0052C18D0062C16D038
:10125000072C14D0082C12D0092C10D00A2C0ED038
:101260000B2C0CD00C2C0AD00D2C08D00E2C06D038
:101270000F2C04D04FF4D471154802F0CBFA95B17D
:10128000012D10D0022D0ED0032D0CD0042D0AD02C
:10129000052D08D0062D06D0072D04D040F2A91147
:1012A0000B4802F0B7FA6007C10E8D40E00806EB6C
:1012B0008000026A0F238B409A430262016A29432D
:1012C000016270BD00040048000800480014004896
:1012D00040CF000870B505460C460026B5F1904F8A
:1012E0000CD01F48854209D01E48854206D01E48B2
:1012F000854203D0E1211D4802F08CFA012C29D04F
:10130000022C27D0042C25D0082C23D0102C21D03F
:10131000202C1FD0402C1DD0802C1BD0B4F5807FFA
:1013200018D0B4F5007F15D0B4F5806F12D0B4F5A5
:10133000006F0FD0B4F5805F0CD0B4F5005F09D01A
:10134000B4F5804F06D0B4F5004F03D0E221074832
:1013500002F060FA288A204200D00126304670BD93
:1013600000040048000800480014004840CF00086E
:1013700070B504460D46B4F1904F0DD00A48844232
:101380000AD00A48844207D00948844204D04FF466
:101390009F71084802F03EFA25B940F23F11054816
:1013A00002F038FA258570BD0004004800080048A6
:1013B0000014004840CF000870B504460D46B4F153
:1013C000904F0DD00A4884420AD00A48844207D080
:1013D0000948844204D04FF49771084802F01AFA81
:1013E00025B940F22F11054802F014FAA56170BD2D
:1013F00000040048000800480014004840CF0008DE
:10140000FEE7000002494AF6AA2008607047000083
:101410000030004070B504460D460C48044200D12F
:101420001CB97C210AA002F0F5F92DB1012D03D0E1
:101430007D2107A002F0EEF915481DB14168214356
:10144000416070BD4168A143416070BDF82816F647
:101450002E2E5C2E2E5C4C69627261726965735C23
:1014600041543332463478785F53746450657269FE
:1014700070685F4472697665725C7372635C6174F4
:101480003332663478785F6462676D63752E63000B
:10149000002004E0FEE7704770B504460F25E078B1
:1014A000002805D0012803D069211FA002F0B2F95D
:1014B0006078102803D36A211BA002F0ABF9A07852
:1014C000102803D36B2118A002F0A4F9E0780123BF
:1014D000F8B12348006800F4E060C0F5E060000A5D
:1014E000C0F10402C54061789140A07828400843CB
:1014F0000001217801F1E02181F80004207800F05A
:101500001F018B404009800000F1E020C0F800314D
:1015100070BD207800F01F018B404009800000F171
:10152000E020C0F8803170BD2E2E5C2E2E5C4C6900
:10153000627261726965735C415433324634787803
:101540005F5374645065726970685F447269766550
:10155000725C7372635C6D6973632E6300000000DC
:101560000CED00E010B50446B4F5E06F0FD0B4F513
:10157000C06F0CD0B4F5A06F09D0B4F5806F06D061
:10158000B4F5407F03D0572103A002F043F910487F
:1015900004431048046010BD2E2E5C2E2E5C4C6956
:1015A000627261726965735C415433324634787893
:1015B0005F5374645065726970685F4472697665E0
:1015C000725C7372635C6D6973632E63000000006C
:1015D0000000FA050CED00E030B58BB00024099452
:1015E0000A94059406940794089414216846FEF71B
:1015F000A4FE254D01220E212846FFF707FE0122F9
:101600000F212846FFF702FE4FF44041ADF82410A9
:1016100002218DF827108DF8261009A92846FFF71A
:101620004BFD05A801F034FC4FF461600790ADF864
:101630001440ADF8204006948DF82240134D05A9C2
:10164000284601F091FB684601F084FB6021ADF86B
:1016500000100121ADF802100294ADF80C4009020F
:10166000ADF810106946284601F090F86946284602
:1016700001F05CF90121284600F0B0FE0121284666
:1016800000F00AFF0BB030BD0004004800400140EC
:1016900030B58BB0002409940A94059406940794FD
:1016A000089414216846FEF748FE4FF09045022248
:1016B00008212846FFF7AAFD022209212846FFF744
:1016C000A5FD02220A212846FFF7A0FD02220B21D8
:1016D0002846FFF79BFD4FF47061ADF824100221FE
:1016E0008DF827108DF8261009A92846FFF7E4FC8D
:1016F00005A801F0CDFB4FF461600790ADF81440F0
:10170000ADF8204006948DF82240174D05A92846D3
:1017100001F02AFB684601F01DFB6021ADF80010C6
:101720000121ADF802100294ADF80C400902ADF8A9
:1017300010106946284601F029F86946284601F04C
:10174000F5F86946284601F0B7F96946284601F0E0
:1017500071FA0121284600F041FE0121284600F0DF
:101760009BFE0BB030BD0000002C014030B58BB0AB
:10177000002409940A94059406940794089414216B
:101780006846FEF7DAFD234D012204212846FFF7C3
:101790003DFD012205212846FFF738FD3021ADF837
:1017A000241002218DF827108DF8261009A928464B
:1017B000FFF782FC05A801F06BFB4FF46160079016
:1017C000ADF81440ADF8204006948DF82240124D3B
:1017D00005A9284601F0C8FA684601F0BBFA602165
:1017E000ADF800100121ADF802100294ADF80C40E4
:1017F0000902ADF810106946284600F0C7FF694697
:10180000284601F093F80121284600F0E7FD0BB0CF
:1018100030BD000000040048000400407047000094
:10182000084900200860091F08600649083108605F
:10183000091F086004490860091F0860034988639C
:1018400048637047382C0140380400400040014094
:1018500010B50446002C13D0B4F5804F10D0B4F569
:10186000004F0DD0B4F5404F0AD00948844207D04C
:101870000848844204D040F2352107A001F0CAFF95
:1018800015494868034AD24310402043486010BDC0
:101890000040001000C000102E2E5C2E2E5C4C6903
:1018A000627261726965735C415433324634787890
:1018B0005F5374645065726970685F4472697665DD
:1018C000725C7372635C61743332663478785F7211
:1018D00063632E63000000000010024070B50446F0
:1018E0000D460D48044200D124B940F265310BA0E9
:1018F00001F090FF35B1012D04D040F2663107A010
:1019000001F088FF15481DB141692143416170BD57
:101910004169A143416170BDAAFFB1FF2E2E5C2E2B
:101920002E5C4C69627261726965735C415433323A
:10193000463478785F5374645065726970685F44A8
:1019400072697665725C7372635C6174333266349B
:1019500078785F7263632E6300000000001002401D
:1019600070B504460D460D48044200D124B940F23A
:10197000A9310BA001F04EFF35B1012D04D040F28A
:10198000AA3107A001F046FF15481DB1C1692143E6
:10199000C16170BDC169A143C16170BDEDB69DEF6C
:1019A0002E2E5C2E2E5C4C69627261726965735CCE
:1019B00041543332463478785F53746450657269A9
:1019C00070685F4472697665725C7372635C61749F
:1019D0003332663478785F7263632E6300000000F0
:1019E0000010024070B504460D460D48044200D177
:1019F00024B94FF462710BA001F00CFF35B1012D39
:101A000004D040F2893107A001F004FF15481DB150
:101A100081692143816170BD8169A143816170BD8C
:101A2000FEA5F8FF2E2E5C2E2E5C4C696272617250
:101A30006965735C41543332463478785F5374641B
:101A40005065726970685F4472697665725C737222
:101A5000635C61743332663478785F7263632E63DB
:101A60000000000000100240F0B5534C616801F026
:101A70000C01524A00290DD0042916D0082916D08D
:101A800002606168C1F3021162684D4B120669D5AC
:101A9000595C68E0216B890105D5616D890502D526
:101AA00048490160EDE70260EBE70260E9E7616841
:101AB00001F48033E16A01F00041B1F1004F06D03A
:101AC0006168414A114011F0C04F2DD032E0E56A03
:101AD0003E490D40E16A01F0F006E16A01F00701BC
:101AE000062910D2DFE801F0030507090B0D0121DB
:101AF0000AE0022108E0042106E0082104E01021A8
:101B000002E0202100E00121314F5BB163689B03BB
:101B100000D53A462B0A534332094A43B3FBF2F14C
:101B20000160AEE73A46F5E7C1F383420F2A01D0E0
:101B3000022200E0012201F0C045C1F3834141EAE5
:101B40005561114433B16268920307D5204A51436D
:101B5000016096E71E4A5143016092E7174A5143DC
:101B600001608EE700210268CA4042606168C1F3EB
:101B7000012165686D0501D5595C00E0002122FA5C
:101B800001F585606168C1F3C1216568AD0401D5C7
:101B9000595C00E00021CA40C2606168C1F3813134
:101BA0006368DB0001D541F00401054B0833595C43
:101BB000B2FBF1F10161F0BD0010024000127A00A9
:101BC000E0CE0008006CDC0200003C6000FF010079
:101BD00000093D0010B51D4A516801F48033D16AF7
:101BE00021F00741002B2FD053689B0300D54008FC
:101BF000174B184C0344A34226D3174B174C0344EE
:101C0000A34202D241F080711EE0154B154C0344F3
:101C1000A34202D241F0007116E0134B134C03446F
:101C2000A34202D241F040710EE0114BC418114B97
:101C30009C4202D241F0806106E00F4B18440F4BEA
:101C4000984201D241F0A061D16210BD0010024063
:101C50009F7DC4FFDFC810007FA7B0FF8F05100075
:101C60006BCA88FF7BE50700EFE480FF0FA13F0010
:101C7000D79411FF076C4F00CF28C2FEA7129F0018
:101C80007047000070B505460C46002D0BD0012DA5
:101C900009D0022D07D0032D05D0052D03D08021BA
:101CA0001AA001F0B7FD0CB3012C1FD0022C1DD0DF
:101CB000032C1BD0042C19D0052C17D0062C15D0C2
:101CC000072C13D0082C11D0092C0FD00A2C0DD0C2
:101CD0000B2C0BD00C2C09D00D2C07D00E2C05D0C2
:101CE0000F2C03D0812109A001F094FDA007010F62
:101CF0000F228A40154824F0030318448368934355
:101D0000836082688D402A43826070BD2E2E5C2ED7
:101D10002E5C4C69627261726965735C4154333246
:101D2000463478785F5374645065726970685F44B4
:101D300072697665725C7372635C617433326634A7
:101D400078785F7379736366672E630000000140E3
:101D50002DE9F04393B0074600240F94109411949A
:101D600012940D940E940C942C2101A8FEF7E5FA20
:101D700001218803FFF736FEDFF8089100220621D3
:101D80004846FFF743FA002207214846FFF73EFA8C
:101D90004FF08008ADF8348002258DF837508DF86B
:101DA00036508DF838408DF839400DA94846FFF778
:101DB00083F94020ADF834008DF837508DF8365057
:101DC00001268DF838608DF839400DA94846FFF797
:101DD00073F91B208DF830008DF831508DF832509A
:101DE0008DF833600CA8FFF757FB274D20212846BC
:101DF00001F08EF8012240F22551284601F0CCF97D
:101E00000F97ADF84040ADF84240ADF84440ADF812
:101E100048400C20ADF846000FA9284601F040FAD2
:101E20000121284601F0C0F801228021284601F056
:101E300001F9164E3046FEF779FF01A8FEF7B6FE0F
:101E4000281D019012480290102003905020049009
:101E50000594CDF818800794089409944FF44050E5
:101E60000A900B9401A93046FEF7AEFE01213046E0
:101E7000FEF71CFE01228021284601F0DBF813B09A
:101E8000BDE8F08300040048003801401C00024017
:101E9000EC1D0020AFF300801CB5002101910091E2
:101EA000274C206840F4803020604FF44052206876
:101EB00000F4003000900198401C0190009810B987
:101EC00001989042F3D12068800302D50120009050
:101ED00000E000910098012830D11A494FF4A97010
:101EE000086060686060606820F4605060606068EE
:101EF0006060606820F4E0606060606860606068F6
:101F0000114908406060606840F4E81060600F4864
:101F1000FFF760FE206840F080702060206880013C
:101F2000FCD5606820F003006060606840F002004B
:101F300060606068C0F381000228FAD11CBD000017
:101F40000010024000200240FFFFC01F00127A0074
:101F500070B500210222027006254560C822826009
:101F6000002380F86230036543658365C365A0F88C
:101F7000603080F866300364C36000EBC102002665
:101F800016615661491C0629F7D348300371437125
:101F90000360C3770121C176037743774838002176
:101FA00000EB8102D366491C0229F9D368304370E3
:101FB0000370037305754375837570BD10B50446D2
:101FC000042C05D0601D03D0BE2108A001F022FC26
:101FD0004FF0E020042C04D0016921F004010161DC
:101FE00010BD016941F00401016110BD2E2E5C2E6F
:101FF0002E5C4C69627261726965735C4154333264
:10200000463478785F5374645065726970685F44D1
:1020100072697665725C7372635C6D6973632E635B
:102020000000000070470000F0B5404C606800F010
:102030000C003F4A3F4900280ED0042817D008283A
:1020400017D00A6060683B4AC0F30310121D105C91
:102050000A68C2400A60F0BD206B800105D5606D42
:10206000800502D534480860ECE70A60EAE70A60B8
:10207000E8E7606800F480336068E06A00F00040E0
:10208000B0F1004F06D060682C4A104010F0C04FED
:102090002DD032E0E56A2A480540E06A00F0F006FB
:1020A000E06A00F00700062810D2DFE800F0030520
:1020B00007090B0D01200AE0022008E0042006E0D9
:1020C000082004E0102002E0202000E001201D4F45
:1020D0005BB163689B0300D53A462B0A5343320930
:1020E0004243B3FBF2F00860ACE73A46F5E7C0F3D1
:1020F00083420F2A01D0022200E0012200F0C045F5
:10210000C0F3834040EA5560104433B162689203E3
:1021100007D50C4A5043086094E70A4A50430860C8
:1021200090E7034A504308608CE70000001002402B
:1021300000127A00B01C0020006CDC0200003C6041
:1021400000FF010000093D0010B51148016841F091
:102150000101016041680F4A1140416001680E4A67
:1021600011400160016821F48021016041680B4A3F
:1021700011404160016B0A4A114001634FF41F0195
:102180008160FFF787FE07494FF00060086010BDCF
:10219000001002400C00FFE8FFFFF6FEFFFF0017F3
:1021A00000FFFEFE08ED00E010B54FF4A060FFF761
:1021B000D9F901210802FFF72DF9FFF735FFBDE836
:1021C000104001F049BB000010B5074C012120462A
:1021D00000F00CFA002805D02046BDE8104001218F
:1021E00000F0A6B810BD00000020004070B52F4DD3
:1021F0000121284600F0FAF9002855D02C49FF208B
:102200000860A1F11804E06810B1E068401EE060C9
:1022100005F05CF82748007808B105F0C3FB206999
:10222000401C206121692448B1FBF0F200FB121030
:1022300020610121217022690523B2FBF3F003FB29
:102240001020042800D1617022690A23B2FBF3F048
:1022500003FB1020092800D1A17022696420B2FB81
:10226000F0F300FB1320632800D1E17020694FF4E4
:102270009672B0FBF2F302FB1300A0F580722B3ACA
:1022800000D1217120694FF4C872B0FBF2F302FB58
:102290001300A0F580728F3A00D161712846BDE825
:1022A0007040012100F044B870BD000000440140BE
:1022B000A41C002059000020A086010070B5184D14
:1022C0000121284600F092F9002827D0154C6069BA
:1022D000401C6061606944F25061884202D3124937
:1022E00020200870616944F25A62B1FBF2F002FBEF
:1022F00010106061E179481CE071052903D304F0F6
:10230000D3FA0020E0710948018881F4004101807E
:102310002846BDE87040012100F00AB870BD0000F9
:10232000001000408C1C00205500002014080048BC
:1023300070B504460D461248844216D011488442B6
:1023400013D01148844210D0104884420DD0104858
:1023500084420AD00F48844207D00F48844204D0F8
:1023600040F606310DA001F055FA280A00D125B932
:1023700040F6073109A001F04DFAE843208270BD14
:10238000002C0140000400400010004000200040EC
:102390000040014000440140004801402E2E5C2EC8
:1023A0002E5C4C69627261726965735C41543332B0
:1023B000463478785F5374645065726970685F441E
:1023C00072697665725C7372635C61743332663411
:1023D00078785F74696D2E630000000070B5044664
:1023E0000D461648844216D01548844213D015482D
:1023F000844210D0144884420DD0144884420AD03C
:102400001348844207D01348844204D04FF46771C4
:1024100011A001F0FFF935B1012D04D040F29D313A
:102420000DA001F0F7F925B1208840F001002080CF
:1024300070BD208820F00100208070BD002C01407C
:102440000004004000100040002000400040014017
:1024500000440140004801402E2E5C2E2E5C4C6949
:10246000627261726965735C4154333246347878C4
:102470005F5374645065726970685F447269766511
:10248000725C7372635C61743332663478785F7443
:10249000696D2E630000000070B504460D461348B8
:1024A00084420DD0124884420AD01248844207D098
:1024B0001148844204D040F2B53110A001F0AAF9CD
:1024C00035B1012D04D040F2B6310CA001F0A2F9D3
:1024D0002DB134F8440F40F40040208070BD34F832
:1024E000440FC0F30E00208070BD0000002C01409E
:1024F0000040014000440140004801402E2E5C2E67
:102500002E5C4C69627261726965735C415433324E
:10251000463478785F5374645065726970685F44BC
:1025200072697665725C7372635C617433326634AF
:1025300078785F74696D2E630000000070B5044602
:102540000E4615461248844216D01248844213D0D3
:102550001148844210D0114884420DD01048844262
:102560000AD01048844207D00F48844204D040F279
:1025700011510EA001F04EF935B1012D04D040F2F9
:1025800012510AA001F046F92685A58270BD00000F
:10259000002C0140000400400010004000200040DA
:1025A0000040014000440140004801402E2E5C2EB6
:1025B0002E5C4C69627261726965735C415433329E
:1025C000463478785F5374645065726970685F440C
:1025D00072697665725C7372635C617433326634FF
:1025E00078785F74696D2E630000000070B5054651
:1025F0000C4600261B48854216D01B48854213D046
:102600001A48854210D01A4885420DD01948854293
:102610000AD01948854207D01848854204D040F6B0
:10262000DA2117A001F0F6F8012C12D0022C10D0FC
:10263000042C0ED0082C0CD0102C0AD0202C08D042
:10264000402C06D0802C04D040F6DB210CA001F0F9
:10265000E1F8298A2140A889204009B100B101266A
:10266000304670BD002C01400004004000100040C6
:10267000002000400040014000440140004801406B
:102680002E2E5C2E2E5C4C69627261726965735CE1
:1026900041543332463478785F53746450657269BC
:1026A00070685F4472697665725C7372635C6174B2
:1026B0003332663478785F74696D2E6300000000F1
:1026C00070B504460D4616461948844216D019487E
:1026D000844213D01848844210D0184884420DD048
:1026E000174884420AD01748844207D016488442CB
:1026F00004D040F2DF3115A001F08CF8280A00D197
:1027000025B94FF4787111A001F084F836B1012E8B
:1027100004D040F2E1310DA001F07CF81EB1A08997
:102720002843A08170BDA089A843A08170BD00008E
:10273000002C014000040040001000400020004038
:102740000040014000440140004801402E2E5C2E14
:102750002E5C4C69627261726965735C41543332FC
:10276000463478785F5374645065726970685F446A
:1027700072697665725C7372635C6174333266345D
:1027800078785F74696D2E63000000002DE9F05FBA
:1027900004460D46DFF83C81DFF83C91DFF83CA1B0
:1027A000444511D04C450FD054450DD04C4884427F
:1027B0000AD04C48844207D04B48844204D040F2AF
:1027C00071114AA001F026F8288870B110280CD0A9
:1027D00020280AD0302808D0602806D0702804D0DD
:1027E0004FF4B97141A001F015F8688830B10128A3
:1027F00004D040F273113DA001F00CF8A88930B16B
:10280000022804D04FF4BA7138A001F003F8208CEC
:1028100020F001002084218CA788208B20F07000FC
:1028200020F00300B5F800B04BEA000B21F00201E4
:10283000A88908436E88064344450CD04C450AD00D
:10284000544508D02648844205D02648844202D008
:102850002548844235D1A88830B1042804D04FF4EB
:10286000CC7122A000F0D6FFE88930B1082804D04E
:1028700040F299111DA000F0CDFF688AB0F5007FED
:1028800005D020B14FF4CD7118A000F0C3FF288A05
:10289000B0F5807F05D020B140F29B1113A000F06D
:1028A000B9FF26F00800E989014321F00400AE8851
:1028B000064327F4807020F40071288A08436F8A49
:1028C0000743A780A4F818B0A86860632684BDE811
:1028D000F09F0000002C0140000400400020004058
:1028E0000040014000440140004801402E2E5C2E73
:1028F0002E5C4C69627261726965735C415433325B
:10290000463478785F5374645065726970685F44C8
:1029100072697665725C7372635C617433326634BB
:1029200078785F74696D2E63000000002DE9F05F18
:1029300004460D46DFF83491DFF834A14C4509D048
:10294000544507D04B48844204D04FF4E6714AA066
:1029500000F060FF288870B110280CD020280AD021
:10296000302808D0602806D0702804D040F2CD115D
:1029700041A000F04FFF688830B1012804D04FF427
:10298000E7713DA000F046FFA88930B1022804D0CD
:1029900040F2CF1138A000F03DFF208C20F0100055
:1029A0002084218CA788208B20F4E04020F4407004
:1029B0002A884FF6FF7B0BEA022848EA000821F03C
:1029C0002001A8890BEA0010084369880BEA011668
:1029D00006434C4504D0544502D0264884423DD19C
:1029E000A88830B1042804D04FF4FA7122A000F076
:1029F00011FFE88930B1082804D040F2F5111EA07B
:102A000000F008FF688AB0F5007F05D020B14FF4D0
:102A1000FB7119A000F0FEFE288AB0F5807F05D07A
:102A200020B140F2F71114A000F0F4FE26F080016E
:102A3000E8890BEA0010084320F04000A9880BEA5F
:102A40000116064327F4806020F40060298A0BEA0F
:102A500081010143688A0BEA80070F43A780A4F82D
:102A60001880A868A0632684BDE8F09F002C014070
:102A700000040040004001402E2E5C2E2E5C4C696C
:102A8000627261726965735C41543332463478789E
:102A90005F5374645065726970685F4472697665EB
:102AA000725C7372635C61743332663478785F741D
:102AB000696D2E63000000002DE9F05F05460C46AD
:102AC000DFF82891DFF828A14D4506D0554504D000
:102AD00040F2272147A000F09DFE208870B1102809
:102AE0000CD020280AD0302808D0602806D07028C2
:102AF00004D04FF40A713FA000F08CFE608830B122
:102B0000012804D040F229213AA000F083FEA089D8
:102B100030B1022804D040F22A2136A000F07AFE1B
:102B2000288C20F480702884288CAF88A98B21F011
:102B3000700121F00301B4F8008048EA010820F494
:102B40000071A0894FF6FF7B0BEA002008436188E3
:102B50000BEA012606434D4501D055453DD1A088DD
:102B600030B1042804D040F24E2122A000F052FEE1
:102B7000E08930B1082804D040F24F211DA000F0B8
:102B800049FE608AB0F5007F05D020B14FF4147182
:102B900018A000F03FFE208AB0F5807F05D020B15C
:102BA00040F2512113A000F035FE26F40061E089C7
:102BB0000BEA0020084320F48060A1880BEA01267C
:102BC000064327F4805020F40051208A0BEA0010BD
:102BD0000843618A0BEA01170743AF80A5F81C8000
:102BE000A068E8632E84BDE8F09F0000002C01403F
:102BF000000400402E2E5C2E2E5C4C6962726172C5
:102C00006965735C41543332463478785F53746439
:102C10005065726970685F4472697665725C737240
:102C2000635C61743332663478785F74696D2E63E7
:102C3000000000002DE9F05F04460D46DFF8CC905F
:102C4000DFF8CCA04C4506D0544504D040F27F219B
:102C500030A000F0DFFD288870B110280CD02028AB
:102C60000AD0302808D0602806D0702804D04FF44D
:102C7000207128A000F0CEFD688830B1012804D072
:102C800040F2812123A000F0C5FDA88930B10228BF
:102C900004D040F282211FA000F0BCFD208C20F463
:102CA00080502084208CA688A18B21F4E04121F45F
:102CB00040712A884FF6FF7B0BEA02270F4320F46E
:102CC0000051A8890BEA0030084369880BEA0138F3
:102CD00048EA00084C4501D054450FD1288AB0F588
:102CE000807F05D020B140F2A7210AA000F092FD1C
:102CF00026F48040298A0BEA81160643A680A78322
:102D0000A8682064A4F82080BDE8F09F002C014052
:102D1000000400402E2E5C2E2E5C4C6962726172A3
:102D20006965735C41543332463478785F53746418
:102D30005065726970685F4472697665725C73721F
:102D4000635C61743332663478785F74696D2E63C6
:102D5000000000000021018041808180816081812C
:102D6000C1810182418270472DE9F05F04460D4622
:102D7000DFF8C080DFF8C090DFF8C0A0DFF8C0B097
:102D8000304E314F444510D04C450ED02F48844230
:102D90000BD0544509D05C4507D0B44205D0BC42A5
:102DA00003D0F3212AA000F035FD686858B110283F
:102DB00009D0202807D0402805D0602803D0F4216E
:102DC00023A000F027FDA88948B1B0F5807F06D088
:102DD000B0F5007F03D0F5211DA000F01BFD208879
:102DE000444509D0544507D05C4505D0B44203D0D2
:102DF000BC4201D04C4504D120F07000A9880143A9
:102E000088B212498C4203D020F44071A88908434B
:102E10002080A868E06228882085444503D0B44219
:102E200001D0BC4201D1A87B20860120A082BDE850
:102E3000F09F0000002C01400004004000200040F2
:102E400000400140004401400048014000100040A3
:102E50002E2E5C2E2E5C4C69627261726965735C09
:102E600041543332463478785F53746450657269E4
:102E700070685F4472697665725C7372635C6174DA
:102E80003332663478785F74696D2E630000000019
:102E90004FF6FF7181600021018081814160817363
:102EA0007047000070B5174D2021284600F010F93A
:102EB000B0B1284600F0C4FA134C144BA1794A1C57
:102EC000D2B25854C821B2FBF1F001FB1020A0711E
:102ED00003F048FC002060612021284600F018F82B
:102EE0000821284600F0F4F8002809D02888284650
:102EF00000F0A6FA2846BDE87040082100F008B8A6
:102F000070BD0000003801408C1C0020532C0020B4
:102F10002DE9F04104460D46114E124FB44206D041
:102F2000BC4204D04FF45A710FA000F073FC35F48A
:102F3000587000D125B940F269310BA000F06AFC4D
:102F4000A80508D5B44206D0BC4204D040F26E3188
:102F500005A000F05FFCE8432080BDE8F0810000A0
:102F600000380140004400402E2E5C2E2E5C4C693F
:102F7000627261726965735C4154333246347878A9
:102F80005F5374645065726970685F4472697665F6
:102F9000725C7372635C61743332663478785F7527
:102FA000736172742E63000070B504460D460F48BD
:102FB000844207D00E48844204D040F261110DA033
:102FC00000F028FC35B1012D04D04FF4B17109A0F7
:102FD00000F020FC25B1A08940F40050A08170BD14
:102FE000A08920F40050A08170BD0000003801408D
:102FF000004400402E2E5C2E2E5C4C696272617281
:103000006965735C41543332463478785F53746435
:103010005065726970685F4472697665725C73723C
:10302000635C61743332663478785F75736172748F
:103030002E63000070B504460D46164612488442C1
:1030400007D01248844204D04FF4E17110A000F080
:10305000E1FB35F0C00000D125B940F2C3110CA04E
:1030600000F0D8FB36B1012E04D04FF4E27108A075
:1030700000F0D0FB1EB1A08A2843A08270BDA08AB8
:10308000A843A08270BD0000003801400044004009
:103090002E2E5C2E2E5C4C69627261726965735CC7
:1030A00041543332463478785F53746450657269A2
:1030B00070685F4472697665725C7372635C617498
:1030C0003332663478785F75736172742E630000F2
:1030D0002DE9F04705460C4600261D4FDFF87480A9
:1030E000BD4206D0454504D040F236311AA000F06A
:1030F00091FB4FF40079012C17D0802C15D0402C77
:1031000013D0202C11D0102C0FD0B4F5807F0CD010
:103110004C450AD0082C08D0042C06D0022C04D030
:1031200040F237310CA000F075FB4C4508D1BD4290
:1031300006D0454504D04FF44F7107A000F06AFB5C
:103140002888204200D001263046BDE8F0870000E4
:1031500000380140004400402E2E5C2E2E5C4C694D
:10316000627261726965735C4154333246347878B7
:103170005F5374645065726970685F447269766504
:10318000725C7372635C61743332663478785F7535
:10319000736172742E6300002DE9F04705460C46FA
:1031A0001646DFF8B480DFF8B490454506D04D45AB
:1031B00004D04FF4C4712AA000F02CFB40F66A172B
:1031C000282C1CD0A4F5E060273818D0A4F5C060E6
:1031D000263814D0A4F5A060253810D0A4F580605E
:1031E00024380CD0A4F50060463808D0BC4206D084
:1031F000602C04D040F2891119A000F00BFB36B10D
:10320000012E04D04FF4C57115A000F003FBBC42A1
:1032100008D1454506D04D4504D040F28F1110A08D
:1032200000F0F8FAC4F3421104F01F0201209040AC
:10323000012908D0022908D0143546B12968014374
:103240002960BDE8F0870C35F7E71035F5E7296808
:1032500081432960F5E70000003801400044004048
:103260002E2E5C2E2E5C4C69627261726965735CF5
:1032700041543332463478785F53746450657269D0
:1032800070685F4472697665725C7372635C6174C6
:103290003332663478785F75736172742E63000020
:1032A0002DE9F04186B005460C46524E524FB542CC
:1032B00005D0BD4203D0B92150A000F0ABFA206880
:1032C0005E49401E884203D3BA214CA000F0A2FA06
:1032D000A0884FF4805828B1404503D0BB2147A0B7
:1032E00000F098FAE08858B1404509D0B0F5005F89
:1032F00006D0B0F5405F03D0BC2140A000F08AFAB0
:10330000208948B1B0F5806F06D0B0F5C06F03D00A
:10331000BD213AA000F07EFA608930F00C0100D1A6
:1033200018B9BE2135A000F075FAA08960B1B0F5DA
:10333000807F09D0B0F5007F06D0B0F5407F03D084
:10334000BF212EA000F066FAA08938B1B54205D0A1
:10335000BD4203D0C42129A000F05CFA288A4CF6B3
:10336000FF710840E18801432982A8894EF6F311D4
:103370000840A18822891143628902431143A9812F
:10338000A88A4FF6FF410840A1890143A98201A8FC
:10339000FEF76AFBB54201D1049800E00398226869
:1033A0004FF47A74A0FB04100E0946EA0076010976
:1033B00000233046FCF718FFB0FBF4F1B0FBF4F249
:1033C00004FB12000001B0FBF4F204FB1202B2F5A0
:1033D000FA7F02D2B0FBF4F006E0B0FBF4F0401C40
:1033E000102801D30020491C40EA0110288106B0B2
:1033F000BDE8F08100380140004400402E2E5C2ED4
:103400002E5C4C69627261726965735C415433323F
:10341000463478785F5374645065726970685F44AD
:1034200072697665725C7372635C617433326634A0
:1034300078785F75736172742E63000020AA44006F
:1034400010B504460748844207D00748844204D098
:103450004FF4197105A000F0DDF9A088C0F3080051
:1034600010BD000000380140004400402E2E5C2EAC
:103470002E5C4C69627261726965735C41543332CF
:10348000463478785F5374645065726970685F443D
:1034900072697665725C7372635C61743332663430
:1034A00078785F75736172742E630000FEE74900DF
:1034B00050EAC12018BF04204A0D18BF40F0010097
:1034C00040F2FF72B2EB515F08BF40F002000128EA
:1034D00008BF052070472DE9F0414F1E00EBC701E2
:1034E0000446D1E9000115461E4637F006020DD00C
:1034F0002A46334608F09EFD7F1E04EBC703D3E93E
:10350000002308F0BFFA37F00602F1D1022F25D0D0
:10351000042F13D0062F18BFBDE8F0812A4633468A
:1035200008F088FDD4E90A2308F0ACFA2A463346AD
:1035300008F080FDD4E9082308F0A4FA2A463346AF
:1035400008F078FDD4E9062308F09CFA2A463346B1
:1035500008F070FDD4E9042308F094FA2A463346B3
:1035600008F068FDD4E9022308F08CFA2A463346B5
:1035700008F060FDD4E90023BDE8F04108F082BA0C
:10358000012209F016BC002213461046114608F02D
:1035900035BB0000024A0020110709F00ABC0000F8
:1035A00001FDFFFF2DE9F04D8D4F21F0004A86B05F
:1035B00005460C46BA452ADBAAEB070028430AD089
:1035C0008848824501DC1AD1CDB106B02846BDE855
:1035D000F04DFFF7D5BF844A844B284608F02AFDFA
:1035E00007460E46824A834B2846214608F022FDB4
:1035F00006B03A463346BDE8F04D08F043BA012024
:10360000FCF7CAFE06B0BDE8F04DFFF7BCBF7A4834
:10361000824542DABAF1795F0BDA2846FFF747FFB5
:10362000042808BFFFF7B6FF284606B02146BDE8CC
:10363000F08D2A460B46104608F0FCFC83460246F5
:103640006E480E460B4606217844FFF744FF5A4663
:10365000334608F0EFFC804669488A465A463346AE
:1036600004217844FFF737FF5A46334608F0E2FC5E
:1036700000223B4608F006FA02460B4640465146F9
:1036800008F0BCFA2A46234608F0D4FC06B02A46C5
:103690002346BDE8F04D08F0F5B9284624F0004176
:1036A00000223D463B4608F0F9FD4FF0FF3209F09D
:1036B00080FB0646024653480F460B4606217844D7
:1036C000FFF709FF32463B4608F0B4FCCDE90001A4
:1036D0004D4832463B4604217844FFF7FCFE324613
:1036E0003B4608F0A7FC00222B4608F0CBF98346A6
:1036F00002913046394600F021FA804643480D4693
:10370000504517DCDDE900015A46029B08F076FAC5
:1037100042462B4608F08EFC42462B4608F0B2F992
:10372000012209F046FB304A304B08F08FFE304A48
:10373000304B4CE04FF0000A52460B46404608F032
:10374000A1F9CDE9031052462B461046194608F060
:1037500071FC32463B4608F0A1FDDDE9033208F07A
:103760004DFA06460F46DDE900015A46029B08F075
:1037700045FA8346009101223046394609F019FB8B
:10378000194A1A4B08F08AFD06460F4601224046A8
:10379000294609F00EFB5A46009B08F04BFC3246C6
:1037A0003B4608F053FE06460F4601225046294686
:1037B00009F0FFFA0E4DDFF858802A46434608F01C
:1037C0006DFD32463B4608F069FD2A46434608F047
:1037D00065FD002CD8BF81F0004106B0BDE8F08D3A
:1037E0000000F03F0000F07F075C143326A6913CF8
:1037F000182D4454FB21F93F0000E03FA49800003D
:10380000BA9800002E980000449800003333EF3F30
:10381000FB21E93FFEE7000010B509F0D3F80D49A0
:10382000096809F017F909F0ADF84FF0E021486197
:1038300000238B61086940F0010008610869C20734
:1038400001D0C003FAD5086920F0010008618B613E
:1038500010BD0000A81C002010B56FF00400FEF79A
:10386000ADFB0748006809F0ADF8064908F078FF9D
:10387000054C20600549206809F0ECF8606010BD37
:10388000B01C00200024F44AA81C002000007A4448
:1038900005F0C4F804219648FDF71CFD012801D06D
:1038A00005F0FCF9934D4FF0010985F80590FEF7FE
:1038B0007BFC08F007F800F039FD012005F0E6FA7E
:1038C0004FF480514FF09040FDF704FD08B907F028
:1038D00099FF2978052904D0802902D003F070F9D6
:1038E000FCE703F041FD68780024FE2800D16C70ED
:1038F00007F07EFE687810B1002007F0C1FE7E4818
:103900007E4E81780907002901DB7D490C7006DBBA
:103910004FF400517B48FDF72BFD746708E04FF42E
:1039200000517848FDF748FDC6F87490FDF778FF20
:1039300075480188C90708D1018841F0010101805B
:103940007248417E41F0020141764FF400616848BF
:10395000FDF70EFD6E4FDFF8BCB14FF0140838785C
:1039600000286AD02879C0BB3068F0666A490860D0
:10397000DFF8A8A1CAF80080DAF800000028FBD11F
:10398000F06E143007F02AFDCAF80080DAF8000063
:103990000028FBD1F06E143807F020FD85F8049064
:1039A0004FF400615248FDF7E3FCA879A8B9DBF8B1
:1039B0002000DBF81C1008444008CBF824005848CD
:1039C000016AC269114449084162DBF80C10CBF866
:1039D0001010C168016185F8069085F80590F06EB9
:1039E00008F0D8FA4F4A504B08F022FC04D2A879CC
:1039F00010B103F07BFF01E0FDF712FF002003F0A0
:103A00009DFB3C70DBF80C004FF4FA7A504505D36F
:103A1000DBF80C1040F6AC50814202D9072007F0C9
:103A20002FFE3F48C168514504D3C16840F6AC50F1
:103A3000814202D9072007F023FEDFF8F0A09AF8B0
:103A4000000018B3A878401CC0B26421B0FBF1F2AA
:103A500001FB1201A97028488078000701D50920D0
:103A600000E001200A22B1FBF2F302FB13118142B4
:103A700002D1F06E07F0B2FC4FF480514FF090404D
:103A8000FDF728FC78B1EC708AF80040DFF8A0A0C0
:103A90009AF80000A8B12748007808B102F0F4FFB6
:103AA0008AF800400DE0E878401CC0B2E8700528B4
:103AB000EAD3192007F042FC07F0A4FEE4E703F084
:103AC0007FF868780028FAD10B488078000704D482
:103AD0004FF400510B48FDF74BFC174800780028C5
:103AE0003FF43DAFA8790028FAD003F0C1FA36E7D9
:103AF0000004004854000020D21D0020041F0020B4
:103B00000C0000200008004800200040282C002065
:103B10008D1C0020801F00204C000020981C0020DD
:103B2000A81F002019D3322085BEA040901C002081
:103B3000911C002004000020200000202DE9F0410D
:103B400006460F4608F0B6FB041E0D4618BF0120BE
:103B5000284320F00040C0F17F6000F1E040C00F3A
:103B60000ED0301C18BF0120384320F00040C0F1B7
:103B70007F6000F1E040C00F04BF0120FCF70CFCA7
:103B800020462946BDE8F081002010490A6A4B6CA6
:103B90001A448B6A9A4200D820200A6A8B6CD21A87
:103BA0008B6A9A4201D340F01000CA69CB6B1A4469
:103BB0004B6A9A4201D840F08000CA690B6C496A8E
:103BC000D21A8A4201D340F040007047041F0020FF
:103BD0002DE9F04FADF5217DA02179A8FCF7ADFBD3
:103BE000A02151A8FCF7A9FBA02129A8FCF7A5FB5F
:103BF000A02101A8FCF7A1FBFE4D00212970FE4881
:103C000003220260FC4800680028FBD1FB490860E1
:103C1000091D0860091D0860091D0860F849086051
:103C2000091D0860F74948638863F74C0915204669
:103C3000FDF7C2FB08212046FDF7BEFB4FF4005103
:103C40002046FDF7B9FB61014FF09040FDF7B4FB52
:103C500000242746A3462646A0460DF1A4090DF5EB
:103C6000F27A04F057F8E948016A2AF81810C06996
:103C700051A921F81800E64A106A29F81800D069FD
:103C800001AA22F8180008F10108B8F1460FE8D39C
:103C900000204FF496730DF5F27C3CF810C09C4563
:103CA00001D2761CF6B251A931F810C09C4503D25E
:103CB0000BF1010B0BF0FF0B39F810C09C4501D242
:103CC000641CE4B232F810C09C4501D27F1CFFB2E4
:103CD000401C4628DFD33046DFF8388301264FF0FA
:103CE00012094FF0130A282802D8BBF1280F11D966
:103CF0004021C948FDF73CFB88F80090C748807810
:103D0000400701D588F800A02E7000200DF5217D18
:103D1000BDE8F08F282C01D8282F0ED94021BE48AD
:103D2000FDF726FB88F800A0BC488078400701D545
:103D300088F800902E700020E8E7B9480078022843
:103D400002D32E7002F03CFFB4488078C0067DD5C7
:103D5000AD4C4FF480612046FDF70AFB0821204658
:103D6000FDF706FBA44802210160A3480068002873
:103D7000FBD10027BB46002403F0CCFFA34A116A05
:103D800079A820F81410D36951A921F81430641CC3
:103D9000462CF1D300234FF4FA7C30F813406445ED
:103DA00001D97F1CFFB231F81340B4F5FA7F03D973
:103DB0000BF1010B0BF0FF0B5B1C462BEDD3282FF7
:103DC00002D8BBF1280F1ED940219348FDF7D0FA45
:103DD0008A4900200860091D0860091D0860091D46
:103DE000086087490860091D086086494863886340
:103DF00088F8009089488078400701D588F800A0AD
:103E00002E70002082E77D4C40F6B8332360241DDD
:103E10002360241D40F6116323600023241D2360CA
:103E2000774C2360241D2360764C6363A3630027D3
:103E3000BB46002403F06EFF7448026A79A921F89A
:103E40001420C06951AA22F8140000E059E2641C51
:103E5000462CEFD3002079A931F81030322B01D253
:103E60007F1CFFB251AA32F81030322B03D20BF173
:103E7000010B0BF0FF0B401C4628ECD3282F02D877
:103E8000BBF1280F1ED940216348FDF771FA5B4949
:103E900000200860091D0860091D0860091D0860F0
:103EA00057490860091D086056494863886388F8C7
:103EB00000905A488078400701D588F800A02E70FD
:103EC000002023E74D4800240460001D0460001D0D
:103ED0000460001D04604A48046000F1040BCBF844
:103EE0000040484F7C63BC634D480078022802D3F1
:103EF0002E7002F065FE4048052101603E480068D2
:103F00000028FBD13D4940F6116008600020091DE2
:103F100008603A4A40F6B83108321160121D11604B
:103F200037490860091D08603649486388630027DF
:103F3000BB46002403F0EEFE3448026A79A921F85A
:103F40001420C06951AA22F81400641C462CF1D335
:103F5000002079A931F81030322B01D27F1CFFB23A
:103F600051AA32F81030322B03D20BF1010B0BF0B7
:103F7000FF0B401C4628ECD3282F02D8BBF1280F9A
:103F80001ED940212448FDF7F3F91C4900200860A0
:103F9000091D0860091D0860091D086018490860AE
:103FA000091D086017494863886388F800901B481A
:103FB0008078400701D588F800A02E700020A5E683
:103FC0000E4900200860091D0860091D0860091DD0
:103FD00008600B490860091D08600A494863886346
:103FE0000F480078022802D32E7002F0E9FD4FF44A
:103FF000806117E059000020981C0020342C0140FB
:10400000340400400040014000040048801F0020AC
:10401000A81F00205500002000140048D21D0020D9
:104020005F000020B84C2046FDF7C6F90821204665
:10403000FDF7C2F94FF400512046FDF799F96101EF
:104040004FF09040FDF794F9B04805210160AF486A
:1040500000680028FBD10027BB46002403F05AFE6D
:10406000AB4A116A79A820F81410D36951A921F834
:104070001430641C462CF1D300234FF4FA7C30F842
:104080001340644501D97F1CFFB231F813406445E9
:1040900003D90BF1010B0BF0FF0B5B1C462BEED38E
:1040A000282F02D8BBF1280F1ED940219948FDF7CF
:1040B0005FF9994900200860091D0860091D086022
:1040C000091D086095490860091D08609449486306
:1040D000886388F800A093488078400701D588F865
:1040E00000902E70002011E68B4F00233B603C1D9A
:1040F00023603B602360894F40F6B8343C603F1D2D
:104100003C60874C40F611676763A3630027BB469A
:10411000002403F0FFFD7E48026A79A921F81420EB
:10412000C06951AA22F81400641C462CF1D3002067
:1041300079A931F81030322B01D27F1CFFB251AA7D
:1041400032F81030322B03D20BF1010B0BF0FF0BC6
:10415000401C4628ECD3282F02D8BBF1280F1ED9CB
:1041600040216C48FDF704F96B4900200860091DE7
:104170000860091D0860091D086068490860091D7C
:10418000086067494863886388F800A065488078BC
:10419000400701D588F800902E700020B6E55E4FEC
:1041A00000243C60381D0460001D046000F1040B15
:1041B000CBF8004059480460001D0460584844632F
:1041C000846359480078022802D32E7002F0F8FC6C
:1041D0004E480521016001680029FCD14E490020AC
:1041E0000860091D0860091D0860091D08604B4A28
:1041F00040F611611160111D0860494940F6B83060
:10420000486388630027BB46002403F083FD4048D1
:10421000026A79A921F81420C06951AA22F8140071
:10422000641C462CF1D3002031F81030322B01D21F
:104230007F1CFFB232F81030322B03D20BF1010B8E
:104240000BF0FF0B401C4628EED3282F02D8BBF101
:10425000280F1ED940212F48FDF78AF82E4900204B
:104260000860091D0860091D0860091D08602B49C8
:104270000860091D08602A494863886388F800A01F
:1042800028488078400701D588F800902E700020DB
:104290003CE5214800240460001D046000F104088E
:1042A000C8F8004008F10409C9F80040DFF86CA024
:1042B000CAF800400AF1040BCBF80040184F7C63A9
:1042C000BC6319480078022802D32E7002F078FCF3
:1042D0004FF400510C48FDF76FF84FF400414FF0D8
:1042E0009040FDF769F80C480460001D0460C8F8B0
:1042F0000040C9F80040CAF80040CBF800407C6399
:10430000BC632E70012001E500040048981C0020C9
:10431000A81F002000140048342C01403404004041
:1043200000400140D21D00205F00002070B50D4DFF
:1043300001242C710C480021017001780029FCD067
:10434000252006F0FBFF09484FF448710160016821
:104350000029FCD10649052008702C71054804701D
:10436000012070BD200000208E1C0020981C002021
:10437000540000205F00002010B5FFF705FC0B493A
:1043800008700B4B1A7890420DD000EA02011870A9
:10439000102906D0202904D0002003F0ADFD012013
:1043A00010BD002010BD1870002010BD5B00002063
:1043B0005C0000202DE9F0410024012080F31388E7
:1043C00040F2BD163046FFF727FA00254FF480571C
:1043D0004FF09048640839464046FCF77BFF0128BF
:1043E00001D144F080043046FFF716FA6D1CEDB29F
:1043F000082DEFD3002080F313882046BDE8F0811C
:104400002DE9F04106460C460D4D502C02D90020F6
:10441000BDE8F0810B4F00213846FCF747FB094807
:104420001C38046203E016F8010B05F8010B641E4A
:10443000E4B2F8D201213846FCF738FB0120E7E767
:10444000EC1D00201C0002402DE9F04FCBB080464F
:104450000E464FF496716846FBF76FFF0024002567
:10446000002040F611616F46B8F1010F06D0B8F197
:10447000020F56D028464BB0BDE8F08FDFF84CA1B4
:10448000DAF800200AF1040B0BF104091E2A06D900
:10449000DAF80050CAF80010CBF800000AE0D9F8AA
:1044A00000201E2A06D9D9F80050C9F80010474943
:1044B0000C31086006EB8616DFF8148112E003F079
:1044C00029FCDAF800001E2803D9D8F8200027F8C4
:1044D0001400D9F800001E2803D9D8F81C0027F8CA
:1044E0001400641CB442EAD3DAF800001E2803D991
:1044F000CBF80050CAF80050D9F800001E2804D9A3
:1045000032480C300560C9F800500021002003E05B
:1045100037F810201144401CB042F9D3B1FBF6F03B
:10452000A9E7DFF8B0A0DAF80020DFF8AC900AF1D4
:10453000040B1E2A06D9DAF80050CAF80010CBF88E
:10454000000009E0D9F834201E2A05D9D9F83450E2
:10455000C9F83410C9F83800C6EB06108600DFF839
:10456000708008F1280812E003F0D4FBDAF80000AC
:104570001E2803D9D8F8200027F81400D9F83400F1
:104580001E2803D9D8F81C0027F81400641CB44274
:10459000EAD3DAF800001E2803D9CBF80050CAF895
:1045A0000050D9F834001E2803D9C9F83850C9F88A
:1045B00034500021002003E037F810201144401C43
:1045C000B042F9D3B1FBF6F055E70000342C0140BE
:1045D000801F002034040040004001402DE9F04FCE
:1045E000CFB04FF0000A002400200290012001907B
:1045F0004FF000094FF000080027FB4900204867F2
:1046000024A8FDF7A5FC04A8FDF7A2FCF74E4FF087
:104610000205B078000734D4F548007A08BBF548A5
:1046200000684FF4967188420CD2F2480830006856
:10463000884207D2F0480068884203D2EF48406BB6
:1046400088420FD3DFF8B8B3CBF80050DBF8000096
:104650000028FBD1FFF798FA18B9641CB4F5BE7FA7
:10466000F2D30EE0DFF898B3CBF80050DBF800008F
:104670000028FBD1FFF788FA18B9641CB4F52A7F2B
:10468000F2D30024307D1E2801D31E203075D74878
:10469000007D08F097F9DB4908F0DCF908F072F9C1
:1046A00008F090F94490D3480068322813D9D14ECD
:1046B000306808F087F9449908F098FA05D24498D0
:1046C00008F060F9311D08603060306808F07AF950
:1046D000389038983A90C74808300068322816D980
:1046E000C44E0836306808F06DF9449908F07EFA37
:1046F00005D2449808F046F9311D086030603068F2
:1047000008F060F93990306808F05CF93B90BA48DD
:104710000068322813D9B84E306808F053F944992C
:1047200008F064FA05D2449808F02CF9311D0860AD
:104730003060306808F046F9189018981A90AF4821
:10474000406B322812D9AD4E706B08F03BF944999A
:1047500008F04CFA04D2449808F014F9B06370637E
:10476000706B08F02FF9199019981B90A049002040
:10477000C8610862A44804EB840300EB8300438A09
:10478000CE693344CB61008A0B6A18440862641C0A
:104790000A2CEFD3964A0A21D069B0FBF1F0D06120
:1047A000136AB3FBF1F111628F4A7C321269012462
:1047B000AA324FF4167B824205D28B4AA432126988
:1047C00064328A420BD3884AA4321269AF328A42D9
:1047D00015D285497C310969643181420FD2834801
:1047E0008078000703D58DF8F4408DF874408DF87B
:1047F00090408DF81040CDF898B0CDF818B07D48B5
:10480000006888B97B480830006868B97A48006851
:1048100050B97A48406B38B974488078000703D59E
:104820008DF8F4408DF87440C82601F07DBF7749BB
:1048300008688207F9D520F0020008606B4880788C
:10484000C1061ED503226A49497A8A430DD0BDF8B4
:10485000142122F00802459230228A430BD0BDF881
:10486000141121F01001459112E0BDF8142142F01D
:1048700008024592F0E7BDF8141141F0100145918E
:1048800006E0BDF8141121F0080121F01001459156
:10489000BDF814110A0704D50027B8464FF00209E5
:1048A00041E0C90604D50027B8464FF004093AE0B4
:1048B000010735D5800633D54B48406F78B34FF4A8
:1048C00080715348FCF706FD48B14FF40071504821
:1048D000FCF700FD98B14FF000087F1C23E0002793
:1048E00008F10108B8F5487F1DD3B8464FF0030919
:1048F0003E488078400716D54FF0050913E00027A1
:1049000008F10108B8F5487F0DD3B8464FF0050906
:1049100036488078400706D54FF0030903E0FFE7EB
:104920004FF000087F1C334800684FF461618842F3
:1049300074D230480830006888426FD22E48006830
:1049400088426BD22D48406B884267D20298401C47
:10495000029002980A21B0FBF1F201FB1200092833
:1049600002D1002002F0EAFB02984FF44871B0FB3C
:10497000F1F201FB1200A0F540711F390ED14FF486
:1049800080514FF09040FCF7A5FC00B32149002076
:1049900008702148007808B102F076F80298B0F566
:1049A000C86F43D31148017D1E2901D31E21017513
:1049B000007D08F007F8134908F04CF807F0E2FF13
:1049C00008F000F84490B9F1000F28D02AE011490E
:1049D0000878401CC0B208700528DAD3192006F008
:1049E000ADFC06F00FFFD4E7041F0020D21D00200D
:1049F00020000020342C01403404004000400140DD
:104A0000981C0020000010423C1E0020A41C002026
:104A10000004004857000020040000201EE000278A
:104A200000200290FE48C06E06F0D8FC02984FF4B9
:104A3000FA6188422ED30020029041F270708742C2
:104A40000DD3002709F0F809F54800680F3006F08B
:104A5000C5FCF34800680F3806F0C0FC1AE0B7F553
:104A60007A6F08D34FF48041EE48FCF7A5FC25206F
:104A700006F064FC0EE08F4208D3102006F05EFCC6
:104A80004FF48041E748FCF773FC03E049460220FD
:104A900006F008FCFFF778F828B1B9F1000F02D151
:104AA000BAF1000F33D0BAF1010F7DD0DE490020FA
:104AB0000863DE490878002877D0212876D1DC48C1
:104AC000006807F07FFF449907F090FF6DD8D84841
:104AD0000830006807F076FF449907F087FFF5D8A3
:104AE000D448006807F06EFF449907F07FFFEDD8C7
:104AF000D148406B07F066FF449907F077FFE5D88F
:104B0000BAF1000F6FD0BAF1010F6DD061E1C64864
:104B10000026C671C2484667C848807800076CD531
:104B2000C74F3898B84212DD4499389807F05EFFB5
:104B30000DD8389807F026FFBD49091D0860091FE8
:104B40000860BB480C300660001F06601FE0399803
:104B5000B84212DD4499399807F048FF0DD8B4489F
:104B6000001D0660001F0660399807F00BFFB04972
:104B70000C310860091F086009E0AD48001D06609F
:104B8000001F0660AA480C300660001F06601898D7
:104B9000B84214DD4499189807F028FF0FD81898E8
:104BA00007F0F0FEA34902E09FE017E193E0091D42
:104BB0000860091F0860A048866346631DE01998D5
:104BC000B84212DD4499199807F010FF0DD89948A2
:104BD000001D0660001F0660199807F0D3FE964975
:104BE0008863486309E09DE0C6E09248001D0660C6
:104BF000001F06609048866346638D4F386807F053
:104C0000E1FE449907F0F2FF02D33868642803D22A
:104C10008748001D06603E60854F0837386807F0FA
:104C2000D1FE449907F0E2FF02D33868642803D22A
:104C30007F480C3006603E607E4F386807F0C2FE49
:104C4000449907F0D3FF02D33868642803D2794827
:104C5000001D06603E60784F786B07F0B3FE449904
:104C600007F0C4FF02D3786B642801D2BE637E6371
:104C7000744800680288744912B90A68128882B1BF
:104C8000028809680B889A4201D9018800E00988E6
:104C9000634A7C325160008808B1147005E01570D9
:104CA00003E05F487C304660067068480068028810
:104CB000674912B90A68128892B1028809680B889C
:104CC0009A4201D9018800E00988554AA43251600E
:104CD000008818B114704FB0BDE8F08F1570FAE776
:104CE0004F48A43046600670F5E74F49086B401CFA
:104CF0000863584A9042FFF4DCAE0A634C49002036
:104D0000091D0860091F086049490C310860091F26
:104D100008604849091D0860091F08604649886302
:104D20004863C6E64248006878280CD240480830FC
:104D30000068782807D23F480068782803D23E48A8
:104D4000406B7828C7D33949002008704FF4804160
:104D50003448FCF70DFB4FF0810A04213E48FCF774
:104D6000B9FA0128F9D03D48066001680029FCD154
:104D70002E49002008702CE02C49002008704FF4C8
:104D800080412848FCF718FB4FF0000A252006F068
:104D9000D5FA32484FF49671016030480068002817
:104DA000FBD11F4800680F3006F018FB1C48006854
:104DB0000F3806F013FB04212748FCF78BFA012873
:104DC000F9D02648066001680029FCD10460174824
:104DD00001705FEA0A6001D50AF00F0A174880786F
:104DE000000708D59DF8F400D0B39DF87400B8B35F
:104DF0000B48446754E00A49002048670C480168A2
:104E0000782906D3006807F0DDFD449907F0EEFD30
:104E100043D9074808300168782928D3006820E082
:104E2000041F00200008004820000020550000203A
:104E3000342C01403404004000400140D21D0020C9
:104E40000000C842100000201400002018000020BC
:104E50001C00002080EE360000040048981C002052
:104E60001EE007F0AFFD449907F0C0FD15D9FE48DC
:104E70000168782906D3006807F0A4FD449907F07B
:104E8000B5FD0AD9F948416B782909D3406B07F081
:104E900099FD449907F0AAFD02D8F5490020086061
:104EA000F448406FB8B14FF40051F348FCF784FA6E
:104EB000F24900200860091F0860F04908310860C5
:104EC000091F0860E849091D0860091F0860E749D3
:104ED00088634863A9E44FF40051E748FCF748FAB7
:104EE000BDF8F000401CADF8F000BDF87000401CAB
:104EF000ADF8700000208DF8DC008DF85C008DF8B6
:104F0000DD008DF85D0036901690DC48001F0068CB
:104F10000A2813D9D948001F006807F053FD4499A7
:104F200007F064FE02D23A98389007E038983A9039
:104F3000D248001F006807F045FD3890CF48001D9B
:104F400000680A2813D9CD48001D006807F03AFD13
:104F5000449907F04BFE02D23B98399007E039980C
:104F60003B90C648001D006807F02CFD3990BE48F4
:104F700000680A2811D9BC48006807F023FD44994D
:104F800007F034FE02D21A98189006E018981A908A
:104F9000B548006807F016FD1890B448406B0A2821
:104FA00011D9B248406B07F00DFD449907F01EFE81
:104FB00002D21B98199006E019981B90AB48406BE1
:104FC00007F000FD1990BDF8F000269988427CD3C7
:104FD0009DF8901001291FD1A949389A8A4202DC14
:104FE000399A8A4218DD9DF8F90028B9A1487C3029
:104FF000C0683F908DF8F9400020ADF8F0009DF8B2
:10500000F500401CC0B28DF8F500002803D08DF8E3
:10501000F5408DF8F4403BE100218DF80D113899F1
:10502000B1F5000F59DB954940F61162091F0A607E
:10503000924A00211160121D1160121D1160269A02
:1050400090422ED900200390039800EB80018D48F8
:1050500000EB8100808806F09DFF279B24AA02EBCD
:10506000C3034D93D3E9042306F00CFD4D9BC3E924
:1050700004010398401C039003980A28E4D327995D
:1050800024A800EBC1024C92D2E9040100227E4B1D
:1050900006F0B4FD4C9AC2E904012798401C279001
:1050A0000DE02791002024AA02EBC0014FF0000C74
:1050B000C1F810C0C1F814C0401C0628F4D37048D1
:1050C0003899814205DC062000E0FDE38DF80C01F3
:1050D0005FE006208DF80C015BE03999B1F5000F17
:1050E00057DB664A0021121F1160121D1160634BCD
:1050F00040F611621B1D1A601A1D1160269A90421B
:105100002ED900200390039800EB80015D4800EB4E
:105110008100C08806F03EFF279B24AA02EBC30350
:105120004B93D3E9042306F0ADFC4B9BC3E9040188
:105130000398401C039003980A28E4D3279924A8D5
:1051400000EBC1024A92D2E9040100224E4B06F064
:1051500055FD4A9AC2E904012798401C27900DE0AA
:105160002791002024AA02EBC0014FF0000CC1F8E7
:1051700010C0C1F814C0401C0628F4D34048389928
:10518000814203DC06208DF80C0102E006208DF838
:105190000C01DDE925100844BDF8F010884277D8ED
:1051A0000020ADF8F000259824A9401E01EBC001B5
:1051B000D1E9040106F034FC34903898B0F5000FC2
:1051C00067DB2E4900200860091F086039909DF8B0
:1051D0009000022804D001287DD004287CD0F5E17D
:1051E0003498359023487C30406A8C3807F0EAFBCD
:1051F000349907F0FBFB23D81E487C30406A2A38DC
:1052000007F0E0FB349907F0F1FC19D81F48417A08
:1052100021F0030141729DF8F600401CC0B28DF8E8
:10522000F60002280BD38DF8F6508DF89040CDF89B
:1052300098B025958DF8F34000208DF80F01E3E03C
:105240001248417A21F0010141729DF80C0125902C
:1052500008487C30406A2A3807F0B4FB349907F0DC
:10526000C5FB66D2002015E0340400400040014038
:10527000A01C0020041F002000080048382C01401A
:10528000000034433C1E0020000024402000002089
:10529000F3E3BEE18DF8F9008DF8F800FE48406AAE
:1052A000233007F08FFB349907F0A0FB1DD2FB4998
:1052B00038980844B0F1D47F17D8F948389981421A
:1052C00010DCF84A3499914207DDF7494A7A42F0F6
:1052D00001024A7206E0B2E03DE1F3494A7A22F067
:1052E00003024A72002138913990F0488078000713
:1052F0000CD5389880F0004007F092F9EC4AED4B5D
:1053000006F098FE06F08CFB36900CE0389880F0A2
:10531000004007F085F94FF03332E74B06F08AFE84
:1053200006F07EFB36908DF8DC409DF80C01259050
:105330006AE09DF80F01C0BBD748406A8C3807F07F
:1053400041FB349907F052FC52D2D748417A21F000
:1053500003014172D9493898884204DA8DF8DC405B
:10536000D748369050E03498B0F5000F0EDBD548A2
:10537000369000208DF8F8008DF8F6508DF89040AA
:10538000CDF898B025958DF8F34019E09DF804010B
:1053900020B19DF8F800401C8DF8F800C3488078D3
:1053A000000703D5C84836900AE021E0389807F096
:1053B00037F9BF4AC54B06F03DFE06F031FB36908B
:1053C0008DF8DC4000208DF8F9009DF8F8100229D6
:1053D0001AD98DF804018DF8F8008DF8F6508DF883
:1053E0009040CDF898B025958DF8F34036900BE0BD
:1053F00000208DF80F018DF8F6508DF89040CDF813
:1054000098B025958DF8F3404499389807F06AFADA
:1054100014D1A148406A8C3807F0D4FA349907F0C7
:10542000E5FB0BD28DF8F6508DF89040CDF898B092
:10543000259500208DF8F7008DF8F340C6E0002098
:105440008DF8DC0036909DF8F3109DF8F7004A1CAB
:10545000904258D300208DF8F7008F48406AA0F59D
:10546000CD7007F0AFFA349907F0C0FB08D38A4833
:10547000406A2A3807F0A6FA349907F0B7FA40D202
:1054800025958548406A2A3807F09CFA349907F038
:10549000ADFA09D28DF8905026969DF80C01259012
:1054A00000208DF8F60045E07B48406AA0F5CD70FD
:1054B00007F088FA349907F099FB20D2449938987C
:1054C00007F010FA0DD082483899814232DA8DF80F
:1054D000905026969DF80C01259000208DF8F6003E
:1054E00028E03498B0F17C5F24DB8DF8905026964C
:1054F0009DF80C01259000208DF8F6001AE0259506
:1055000018E0259516E0884214D36348406A2A388B
:1055100007F058FA349907F069FA09D28DF89050DB
:1055200026969DF80C01259000208DF8F60001E0EC
:10553000032025909DF8F700401C8DF8F7009DF89A
:10554000F500401CC0B28DF8F500C8B38DF8F540E9
:105550008DF8F4403AE05048406A233007F032FAC0
:10556000349907F043FA0ED28DF8905026969DF8A4
:105570000C01259000203890494939918DF8F500AB
:105580008DF8F40022E09DF8F500401CC0B28DF8C3
:10559000F50018B18DF8F5408DF8F44000203890F2
:1055A0004C490860091F086039904A490831086071
:1055B000091F08609DF8F21019B1012906D103E016
:1055C00004E08DF8F24001E08DF8F2009DF8DC0077
:1055D00038B100208DF8DC003699389807F04CF887
:1055E00038904499389807F001FB01D844983890D6
:1055F0002B48389981420BDA284838994042814239
:1056000004D104208DF8900026962595002038902E
:1056100051E23998B0F5000F7EDB2E4900200831A9
:105620000860091F08603890349835909DF8900004
:10563000022804D0012870D004286FD0FCE116485D
:10564000406A8C3807F0BEF9349907F0CFF943D897
:105650001148406A2A3807F0B5F9349907F0C6FABC
:105660003AD81148417A21F0030141729DF8F600C1
:10567000401CC0B28DF8F60002280BD38DF8F6500E
:105680008DF89040CDF898B025958DF8F340002026
:105690008DF80F01E9E00000801F00200000E0BE4F
:1056A0000000A0410040674520000020D21D0020DE
:1056B0009A9999999999C93F3333E33F0000AF43D1
:1056C0000000484200007041000034439999993F1E
:1056D0000000F042382C0140FE48417A21F00201DE
:1056E00041729DF80C012590FB48406A2A3807F06A
:1056F00069F9349907F07AF94CD2F748406A2330B7
:1057000007F060F9349907F071F91FD2F34939981D
:105710000844B0F1D47F02E0B3E1C1E051E115D813
:10572000EF48399981420EDCEE4A3499914205DD09
:10573000E8494A7A42F002024A7204E0E5494A7AAC
:1057400022F003024A72389000203990E6488078AF
:1057500000070CD5399880F0004006F061FFE34A5D
:10576000E34B06F067FC06F05BF936900CE03998E5
:1057700080F0004006F054FF4FF03332DD4B06F06E
:1057800059FC06F04DF936908DF8DD409DF80C017E
:1057900025906AE09DF80F01C0BBCF48406A8C3865
:1057A00007F010F9349907F021FA52D2C948417A2A
:1057B00021F003014172D0493998884204DA8DF80A
:1057C000DD40CE48369050E03498B0F5000F0EDB47
:1057D000CB48369000208DF8F8008DF8F6508DF803
:1057E0009040CDF898B025958DF8F34019E09DF8DC
:1057F000040120B19DF8F800401C8DF8F800BA486B
:105800008078000703D5BF4836900AE021E0399838
:1058100006F006FFB54ABC4B06F00CFC06F000F99A
:1058200036908DF8DD4000208DF8F9009DF8F810D5
:1058300002291AD98DF804018DF8F8008DF8F65078
:105840008DF89040CDF898B025958DF8F3403690BE
:105850000BE000208DF80F018DF8F6508DF8904088
:10586000CDF898B025958DF8F3404499399807F014
:1058700039F814D19848406A8C3807F0A3F8349965
:1058800007F0B4F90BD28DF8F6508DF89040CDF8B2
:1058900098B0259500208DF8F7008DF8F340CBE007
:1058A00000208DF8DD0036909DF8F3009DF8F7108C
:1058B000421C91425DD300208DF8F7002595864863
:1058C000406AA0F5CD7000E026E107F07BF834993E
:1058D00007F08CF908D38048406A2A3807F072F83C
:1058E000349907F083F842D27B48406A2A3807F09F
:1058F00069F8349907F07AF809D28DF89050269615
:105900009DF80C01259000208DF8F6002BE07248E0
:10591000406AA0F5CD7007F055F8349907F066F9A4
:1059200020D24499399806F0DDFF0DD07748399997
:10593000814218DA8DF8905026969DF80C0125903A
:1059400000208DF8F6000EE03498B0F17C5F0ADBA1
:105950008DF8905026969DF80C01259000208DF82A
:10596000F60000E0259500208DF8F40018E025955C
:1059700016E0814214D35848406A2A3807F022F8CA
:10598000349907F033F809D28DF8905026969DF897
:105990000C01259000208DF8F60001E003202590F1
:1059A0009DF8F700401C8DF8F7009DF8F500401CAD
:1059B000C0B28DF8F500C8B38DF8F5408DF8F4400D
:1059C0003AE04548406A233006F0FCFF349907F07E
:1059D0000DF80ED28DF8905026969DF80C0125906A
:1059E0003F483890002039908DF8F5008DF8F4008C
:1059F00022E09DF8F500401CC0B28DF8F50018B10A
:105A00008DF8F5408DF8F44000203890404908604A
:105A1000091F086039903E4908310860091F086075
:105A20009DF8F21019B1012906D103E004E08DF8C8
:105A3000F24001E08DF8F2009DF8DD0038B1002061
:105A40008DF8DD003699399806F016FE39904499A4
:105A5000399807F0CBF801D8449839902048399903
:105A6000814228DA1D4839994042814206D10420FA
:105A70008DF89000269625951DE088E0002039904D
:105A800019E004208DF89000269625959DF8F200E7
:105A900010B101280FD107E0104840423890002192
:105AA00039913A903B9106E0002138910B484042F1
:105AB00039903A913B90389806F064FF1449086099
:105AC000091F0860399806F05DFF11490831086028
:105AD000091F1FE020000020801F00200000E0BE02
