:020000040000FA
:1000000050030020C1000000AF0C0000A90C00004C
:1000100000000000000000000000000000000000E0
:100020000000000000000000000000007925000032
:100030000000000000000000651000009126000094
:10004000D30000000F05000000000000E7060000DC
:1000500000000000710D0000730D0000750D000020
:10006000770D0000D300000011050000130500000B
:1000700069030000AF270000AD270000B52700008E
:10008000B3270000B12700000000000000000000BE
:10009000D3000000D300000000000000AD0C000001
:1000A000D30000007525000077250000052800001A
:1000B0000000000000000000000000000000000040
:1000C0000448804704480047FEE7FEE7FEE7FEE7F6
:1000D000FEE7FEE7A5260000DD0000000348854698
:1000E00000F030F800480047A7330000500300201C
:1000F00030B50B46014600202022012409E00D46C0
:10010000D5409D4205D31D469540491B2546954047
:1001100040191546521E002DF1DC30BD70B500248B
:100120002546002801DA01244042002901DA012590
:100130004942FFF7DDFFAC4200D04042002C00D026
:10014000494270BD064C0125064E05E0E36807CC28
:100150002B430C3C98471034B442F7D3FFF7C2FF4F
:10016000A83B0000C83B000070B505460C4615488A
:10017000854200D103E0A12113A003F0E5F8002C93
:1001800013D0012C11D0022C0FD0032C0DD0042C35
:100190000BD0052C09D0062C07D0072C05D0082C35
:1001A00003D0092C01D00A2C00D103E0A22106A023
:1001B00003F0CAF8286840094001286028682043F5
:1001C000286070BD002401402E2E5C5054333258FC
:1001D0003030355F46574C69625C7372635C5054D3
:1001E0003332583030355F6164632E6300000000A5
:1001F00070B505460C460A48854200D103E0FB2154
:1002000008A003F0A1F8002C04D0A008800000286A
:1002100000D103E0FC2103A003F096F86C6070BDF0
:10022000002401402E2E5C50543332583030355F5C
:1002300046574C69625C7372635C50543332583079
:1002400030355F6164632E630000000070B50446C2
:100250000D460E48844200D103E07D210CA003F03E
:1002600073F8002D01D0012D00D103E07E2108A0FC
:1002700003F06AF8002D04D0206820210843206094
:1002800003E0206820218843206070BD00240140E5
:100290002E2E5C50543332583030355F46574C69FF
:1002A000625C7372635C50543332583030355F6136
:1002B00064632E630000000010B5044605488442C4
:1002C00000D103E0CD2104A003F03EF8A06880B285
:1002D00010BD0000002401402E2E5C5054333258D3
:1002E0003030355F46574C69625C7372635C5054C2
:1002F0003332583030355F6164632E630000000094
:1003000070B505460C4600260C48854200D103E036
:10031000DF210BA003F018F8022C01D0012C00D132
:1003200003E0E02106A003F00FF8686820400028F1
:1003300001D0012600E00026304670BD00240140B7
:100340002E2E5C50543332583030355F46574C694E
:10035000625C7372635C50543332583030355F6185
:1003600064632E63000000007047000070B505460E
:100370000C4600262C48854200D103E034212BA0F6
:1003800002F0E2FF03210902206888420BD02068B6
:10039000002808D0FF2101312068884203D049009D
:1003A0002068884200D103E0352120A002F0CCFF74
:1003B0006068002808D00121C9026068884203D023
:1003C00049006068884200D103E0362117A002F09E
:1003D000BBFFA068002804D001214903A06888421F
:1003E00000D103E0372111A002F0AEFFA068002881
:1003F00004D001214903A068884200D103E03821DC
:100400000AA002F0A1FF2E68124806402169606828
:100410000843A1680843E16808432169084321684B
:10042000084306432E6070BD002401402E2E5C5010
:10043000543332583030355F46574C69625C7372C2
:10044000635C50543332583030355F6164632E63DF
:10045000000000000F3B000070B505460C4609483F
:10046000854200D103E06C2107A002F06DFF022C51
:1004700002D9FF2C00D803E06D2103A002F064FF35
:10048000EC6070BD002401402E2E5C505433325875
:100490003030355F46574C69625C7372635C505410
:1004A0003332583030355F6164632E6300000000E2
:1004B00010B504460648844200D103E0C12105A0DE
:1004C00002F042FF206880210843206010BD000038
:1004D000002401402E2E5C50543332583030355FAA
:1004E00046574C69625C7372635C505433325830C7
:1004F00030355F6164632E63000000000321090250
:100500000160002141608160C160016170477047F6
:1005100070477047F8B506460F4600240825572057
:1005200000F056F8082D03D1304600F079F8054662
:10053000002400E0641C05488442FBD3082D04D14C
:100540003946304600F0D0F80546F8BD10270000C7
:10055000F8B505460C4616460027009500BF08E092
:10056000009800F00DF92070641C0098001D0090A8
:100570007F1CB742F4D3F8BDFEB506460D461746BC
:100580000024019608200090572000F021F80098E0
:10059000082803D1304600F043F80090002400E022
:1005A000641C0A488442FBD3009808280DD100241B
:1005B00009E029786D1C019800F096F800900198E8
:1005C000001D0190641CBC42F3D3FEBD1027000047
:1005D00010B50446572120468843002802D1002C3C
:1005E00000D004E0FF215A3103A002F0ADFE01204B
:1005F0008007446010BD00002E2E5C5054333258EA
:100600003030355F46574C69625C7372635C50549E
:100610003332583030355F666C6173682E6300008A
:1006200070B50446002508261448844200D803E02B
:10063000872113A002F088FE0B20000400F0A3F82D
:100640000646012080070568FF21103128468843AF
:100650000546082E0FD1F006C4600848844209D22E
:1006600011480543F00605600B20000400F08BF8EC
:10067000064600E00726304670BD0000FF6F000010
:100680002E2E5C50543332583030355F46574C690B
:10069000625C7372635C50543332583030355F663D
:1006A0006C6173682E6300000301EBAD0820C10686
:1006B000496808221140082901D1042012E00121D3
:1006C0008907496820221140002901D0062009E04D
:1006D00001218907496840221140002901D00720E3
:1006E00000E0082070477047F8B504460E4608271A
:1006F000002000900025F8060568FF2110312846EB
:10070000884305461248844200D803E0D12111A055
:1007100002F01AFE0B20000400F035F80746082FFF
:1007200014D1C006C4600661094884420DD2A007F6
:10073000800F002809D111480543800705600B2070
:10074000000400F020F8074600E007273846F8BD0F
:10075000FF6F00002E2E5C50543332583030355F1E
:1007600046574C69625C7372635C50543332583044
:1007700030355F666C6173682E6300000101EBAD7C
:1007800001460868704710B503460824FFF78EFF3E
:10079000044603E0FFF78AFF04465B1E042C01D1E8
:1007A000002BF7D1002B00D10924204610BD0000FA
:1007B00070B504460E4615460920C006844208D08E
:1007C0001148844205D01148844202D01048844226
:1007D00000D103E081210FA002F0B6FD002E00D071
:1007E00003E082210BA002F0AFFD002D01D0012D0E
:1007F00000D103E0832107A002F0A6FD002D01D067
:10080000A66500E0E66570BD0010004800200048C5
:10081000003000482E2E5C50543332583030355F53
:1008200046574C69625C7372635C50543332583083
:1008300030355F6770696F2E6300000070B5044645
:100840000E4600250920C006844208D03348844261
:1008500005D03348844202D03248844200D103E0BC
:10086000302131A002F070FD3068002800D003E094
:1008700031212DA002F068FD3079002808D03079B0
:10088000012805D03079022802D03079032800D120
:1008900003E0322124A002F057FD7079002805D032
:1008A0007079012802D07079022800D103E0332149
:1008B0001DA002F049FD35683079012802D0307959
:1008C000022810D1A560E5653079022801D125659F
:1008D00000E06565B079002802D1E56665661CE038
:1008E000A566256619E03079032802D1E560A56583
:1008F00013E0E560E5657079002804D0012805D093
:10090000022809D105E0E564656405E02564E56435
:1009100002E0A564656400BF00BF70BD0010004820
:1009200000200048003000482E2E5C5054333258CE
:100930003030355F46574C69625C7372635C50546B
:100940003332583030355F6770696F2E63000000B6
:100950001CB508210920C00600F0F2F808212B4838
:1009600000F0EEF84021294800F0EAF8202127485D
:1009700000F0E6F88021254800F0E2F80122114657
:10098000234800F049F80E200090012168460171CB
:1009900000214171817169460920C006FFF74EFFB1
:1009A000F820009069461948FFF748FF362000906C
:1009B00069461748FFF742FF1021164800F0C0F8BB
:1009C0002021144800F034F91020009000216846DE
:1009D00001710221417169460E48FFF72FFF202067
:1009E000009001216846417169460A48FFF726FFD9
:1009F0000820009003216846017100214171817136
:100A000069460348FFF71AFF1CBD0000002000489C
:100A10000030004800100048FEB506460C4615465A
:100A2000002700200290009001900920C006864215
:100A300008D03648864205D03548864202D035482F
:100A4000864200D104E0FF21A43133A002F07CFCF7
:100A5000002C1DD0012C1BD0022C19D0032C17D038
:100A6000042C15D0052C13D0062C11D0072C0FD038
:100A7000082C0DD0092C0BD00A2C09D00B2C07D038
:100A80000C2C05D00D2C03D00E2C01D00F2C00D136
:100A900004E0FF21A53120A002F056FC002D0CD06F
:100AA000012D0AD0022D08D0032D06D0042D04D02C
:100AB000052D02D0062D00D000D104E0FF21A63183
:100AC00015A002F041FC6007C10E28468840074689
:100AD000E0108000694608586107CA0E0F21914056
:100AE0008843E11089006A465050E0108000694652
:100AF000085838430290E1108900029850500120B4
:100B0000A040B06100983061FEBD000000100048B8
:100B100000200048003000482E2E5C5054333258DC
:100B20003030355F46574C69625C7372635C505479
:100B30003332583030355F6770696F2E63000000C4
:100B400070B504460D460920C006844208D00D4801
:100B5000844205D00C48844202D00C48844200D123
:100B600004E0FF2135310AA002F0EEFB002D00D099
:100B700004E0FF21363106A002F0E6FB2068A8431E
:100B8000206070BD00100048002000480030004880
:100B90002E2E5C50543332583030355F46574C69F6
:100BA000625C7372635C50543332583030355F6727
:100BB00070696F2E6300000070B504460D46092071
:100BC000C006844208D00D48844205D00C488442B7
:100BD00002D00C48844200D104E0FF2148310AA031
:100BE00002F0B2FB002D00D004E0FF21493106A045
:100BF00002F0AAFB20686840206070BD0010004829
:100C000000200048003000482E2E5C5054333258EB
:100C10003030355F46574C69625C7372635C505488
:100C20003332583030355F6770696F2E63000000D3
:100C300070B504460D460920C006844208D00D4810
:100C4000844205D00C48844202D00C48844200D132
:100C500004E0FF2121310AA002F076FB002D00D034
:100C600004E0FF21223106A002F06EFB2068284339
:100C7000206070BD0010004800200048003000488F
:100C80002E2E5C50543332583030355F46574C6905
:100C9000625C7372635C50543332583030355F6736
:100CA00070696F2E6300000000BFFEE77047704759
:100CB00070B504460025A078002802D0A07801284D
:100CC00000D103E02C211FA002F03EFB6078042835
:100CD00000DA03E02D211BA002F036FBA0780028EB
:100CE00027D0224803210902401821788910890061
:100CF000455820788007C10EFF208840294681434F
:100D00000D4660788007000E21788907C90E88405B
:100D100005431648032109024018217889108900EB
:100D200045502078C106C90E012088400F4908604F
:100D300007E02078C106C90E012088400B498031A8
:100D4000086070BD2E2E5C50543332583030355F01
:100D500046574C69625C7372635C5054333258304E
:100D600030355F6D6973632E6300000000E100E0C1
:100D7000704770477047704770B505460C460026AF
:100D80002748854200D103E0372126A002F0DCFA93
:100D900020882E49884200DC03E0382121A002F09F
:100DA000D3FAA078002802D0A078042800D103E06C
:100DB00039211CA002F0C8FA2079FF2800DC03E0EA
:100DC0003A2118A002F0C0FA6079002802D06079B8
:100DD000402800D103E03B2112A002F0B5FAA0792F
:100DE000802802D0A079002800D103E03C210DA08A
:100DF00002F0AAFA20882862042130468843064679
:100E0000A07806436E60207928610026C021304614
:100E1000884306466079A17908430643EE6170BDB8
:100E2000002C01402E2E5C50543332583030355F48
:100E300046574C69625C7372635C5054333258306D
:100E400030355F70776D2E6300000000FFFF0000FB
:100E500000B587B0032204211348FFF7DDFD002110
:100E6000684681751149818202210176002141760F
:100E7000817605A90E48FFF77FFF032168460171BF
:100E8000012141710806029000200390002168466C
:100E90008174018201A9064800F044F80121044848
:100EA00000F008F807B000BD00200048102700003F
:100EB000002C014070B504460D460F48844200D115
:100EC00004E0FF2164310DA002F03EFA002D01D0B4
:100ED000012D00D104E0FF21653108A002F034FAB1
:100EE000012D04D1606801210843606003E060685F
:100EF00040084000606070BD002C01402E2E5C5008
:100F0000543332583030355F46574C69625C7372E7
:100F1000635C50543332583030355F70776D2E63D8
:100F200000000000F8B506460C46002500274148A1
:100F3000864200D103E05B213FA002F005FA207851
:100F4000002808D02078012805D02078022802D077
:100F50002078032800D103E05C2137A002F0F4F9E7
:100F60006078002808D06078012805D060780228D1
:100F700002D06078032800D103E05D212EA002F0AA
:100F8000E3F96068002804D00121090660688842FE
:100F900000D103E05E2128A002F0D6F9A068002865
:100FA00004D001210904A068884200D103E05F2138
:100FB00021A002F0C9F9A0892949884200DC03E098
:100FC00060211DA002F0C0F9A07BFF2800DC03E037
:100FD000612119A002F0B8F92578002D01D1A0896E
:100FE0007062012D01D1A089B062022D01D1A089CA
:100FF000F062032D01D1A0893063B76CA9000320F2
:10100000884001210904A940084301210906A9409B
:101010000843394681430F466078A90088406168DB
:10102000A9400843A168A94008430743B764A07BCF
:10103000F064F8BD002C01402E2E5C505433325821
:101040003030355F46574C69625C7372635C505454
:101050003332583030355F70776D2E6300000000FA
:10106000FFFF00007047000010B500F08BF9064844
:10107000807E032807D10448006A002801D000F0D0
:1010800005F802F097FC10BD4000002010B5B448F0
:10109000006800F08BFEB34800788007C00F00287E
:1010A0005CD0B04820304079012851D0AD48407F15
:1010B00000284DD1AB48007802218843A949087027
:1010C000A9480078401CA8490870084600780528FF
:1010D00011DD05200870A549A54801F04FFAA14887
:1010E0000078C006C00F00282AD05720A149887177
:1010F00002F046FD24E09D493A319F4801F03EFA56
:101100009948007801F040FA96480078C006C00F70
:10111000002811D097488079572804DA95488079BB
:101120000A309449887102F02BFD924A91798D4AD8
:10113000107802F079FB03E08B48007802F0FAFBAC
:101140008848407804218843001D8649487005E09E
:1011500084480078022188438249087081480078D9
:10116000C007C00F00285CD07E48007840084000CF
:101170007C49087008462030407901284BD0084649
:10118000407F002847D178480078401E7649087093
:1011900008460078002811D101200870734974486E
:1011A00001F0ECF96F480078C006C00F00282AD083
:1011B0002F207049887102F0E3FC24E06B493A313A
:1011C0006D4801F0DBF96848007801F0DDF9654809
:1011D0000078C006C00F002811D0664880792F28FB
:1011E00004DD644880790A386249887102F0C8FCDD
:1011F000604A91795B4A107802F016FB03E05A4886
:10120000007802F097FB5748407804218843001D7E
:101210005449487005E0534800784008400051495F
:101220000870504800780007C00F00286BD04D4868
:10123000407F00285BD14F488079572806DB052086
:101240004949087057204B4988712AE049488079FC
:101250002F2806DC0120444908702F204549887159
:101260001FE044488079392806DC02203E49087096
:1012700039204049887114E03E488079432806DCD3
:1012800003203949087043203A49887109E03948F8
:1012900080794D2805DC0420334908704D203549FC
:1012A000887132493A31344801F068F92E480078A3
:1012B00001F06AF92B480078082188432949087011
:1012C0000846007810218843103026490870002015
:1012D00088740846407804218843001D21494870DD
:1012E000244A91791F4A107802F09EFA0BE01D48BB
:1012F0000078082188431B490870084600781021AF
:10130000884318490870174800784007C00F002824
:101310001BD0144820304079012820D01148407853
:1013200004218843001D0F49487010498331134838
:1013300001F024F912480078002802D1012002F0BF
:10134000B7F901200E49087009E00D48007801281E
:1013500002D1022002F0ACF900200949087010BD4A
:101360001C00002040000020210000209304000009
:1013700018F60000080100206D1F00005E0B000041
:101380002500002010B5FE480078C007C00F0028D7
:1013900014D0FB48008840084000F9490880F9480B
:1013A000008A7D21C900884205DCF648008A401C7D
:1013B000F449088202E00020F2490882F148007FE7
:1013C00000287DD0EF48008AC8287ADD0020ED494A
:1013D00008820846C07C002804D001283DD002289D
:1013E00079D14FE002210920C006FFF7A9FB0421B3
:1013F0000920C006FFF7A4FB1021E348FFF7A0FB7C
:101400000421E148FFF79CFB0221DF48FFF798FB2E
:1014100008210920C006FFF793FB0821DB48FFF7EE
:101420008FFB4021D948FFF78BFB2021D748FFF7DE
:1014300087FB8021D548FFF783FB0021D44801F0CA
:101440009DF80420D34908700120CE49C87402F0E9
:1014500097FB0520CB49887449E0CA48807C002866
:101460000CDDC849887C897C491EC64B997400F004
:10147000B3FEC949C64801F081F802E00220C14923
:10148000C87434E00021C24801F078F80520C14951
:10149000087008210920C006FFF752FB0821BB484D
:1014A000FFF74EFB4021B948FFF74AFB2021B74820
:1014B000FFF746FB8021B548FFF742FBB74802E043
:1014C00016E0FDE307E0007801F05EF80020AD498A
:1014D000C87408770BE00021AD4801F04FF80620F2
:1014E000AC4908700020A749C874087700BFE7E33B
:1014F000A448807E0328FAD1A248007E01287CD12E
:10150000A048008A642879DB00209E4908820846AA
:10151000C07C002806D001283CD002286FD00328C8
:1015200037D117E108210920C006FFF709FB082180
:101530009648FFF705FB40219448FFF701FB202167
:101540009248FFF7FDFA80219048FFF7F9FA02214F
:101550000920C006FFF7F4FA04210920C006FFF7AE
:10156000EFFA10218848FFF7EBFA04218648FFF7CD
:10157000E7FA02218448FFF7E3FA0021844800F0EB
:10158000FDFF07208349087001207E49C8740020B0
:1015900088741BE18248007840210840402876D1B9
:1015A0007848807C022874DA7648807C002836D11E
:1015B00008210920C006FFF73BFB08217348FFF70D
:1015C00037FB40217148FFF733FB20216F48FFF7BD
:1015D0002FFB80216D48FFF72BFB02206A498861B1
:1015E00002210920C006FFF723FB04210920C006C1
:1015F000FFF71EFB1021644802E0E8E005E289E005
:10160000FFF716FB04216048FFF712FB02215E483A
:10161000FFF70EFB60495E4800F0B0FF31E00821A3
:101620000920C006FFF78CFA08215848FFF788FA0E
:1016300040215648FFF784FA20215448FFF780FAEA
:1016400080215248FFF77CFA02210920C006FFF7EB
:1016500077FA04210920C006FFF772FA10214A48E0
:10166000FFF76EFA04214848FFF76AFA022146485C
:10167000FFF766FA0021464800F080FF0820454940
:1016800008704048807C401C3E49887441E00BE073
:10169000FFE700203B4988743F493D4800F06EFF5A
:1016A00002203849C87434E008210920C006FFF739
:1016B000BFFA08213548FFF7BBFA40213348FFF74E
:1016C000B7FA20213148FFF7B3FA80212F48FFF7FE
:1016D000AFFA02202C49886102210920C006FFF7D9
:1016E000A7FA04210920C006FFF7A2FA1021264814
:1016F000FFF79EFA04212448FFF79AFA02212248B4
:10170000FFF796FA2449224800F038FF02201D49CD
:10171000C8745BE008210920C006FFF711FA082110
:101720001A48FFF70DFA40211848FFF709FA20215F
:101730001648FFF705FA80211448FFF701FA002147
:10174000134800F01BFF09201249087003200D49BF
:10175000C8743BE008210920C006FFF769FA082198
:101760000A48FFF765FA40210848FFF761FA20218F
:101770000648FFF75DFA80210448FFF759FA11E0A7
:1017800004000020400000200030004800200048F5
:101790006D1F000028000020CD0400002100002063
:1017A0002A000020FB48007800F0EEFE0020FA49F5
:1017B000C874032008760020C874F8490870F849F6
:1017C0000870F8490870F449887400BF67E2F2486D
:1017D00020304079012832D1EF48008AFF212D3195
:1017E0008842F3DDEC49887C0521FEF797FCC8B2FE
:1017F000E94988740846807C401C88740220EA49C4
:10180000886102210920C006FFF712FA042109208D
:10181000C006FFF70DFA1021E348FFF709FA04218B
:10182000E148FFF705FA0221DF48FFF701FADA493C
:10183000887C00F0D1FC0020D74908822FE2D648EE
:10184000407F00287ED0D5480078002806D00128A7
:101850003AD002285ED0032835D1C8E00021D34811
:1018600000F08CFE0A20D249087002210920C0062F
:10187000FFF766F904210920C006FFF761F910217E
:10188000C948FFF75DF90421C748FFF759F902215C
:10189000C548FFF755F908210920C006FFF750F9A0
:1018A0000821C448FFF74CF94021C248FFF748F926
:1018B0002021C048FFF744F98021BE48FFF740F9D6
:1018C0000120B6490870A0E0B348008AFF21913199
:1018D00088421EDBB849B54800F050FE08210920B7
:1018E000C006FFF7A5F90821B248FFF7A1F940218A
:1018F000B048FFF79DF92021AE48FFF799F9802104
:10190000AC48FFF795F90020A34908820220A349BB
:1019100008707AE0A048407F802835DA9E48008A27
:10192000FF219131884261DB0021084600F026FE4C
:1019300008210920C006FFF703F908219D48FFF799
:10194000FFF800E062E040219A48FFF7F9F8202113
:101950009848FFF7F5F880219648FFF7F1F8002046
:101960008D4908828E480078401C8D4908708A484D
:10197000407F0978884203DD01208849087035E0FE
:1019800003208649087031E08348008AC8282DDB8F
:101990000021084600F0F2FD08210920C006FFF7EB
:1019A000CFF808218348FFF7CBF840218148FFF7A3
:1019B000C7F820217F48FFF7C3F880217D48FFF753
:1019C000BFF800207449088275480078401C7449AB
:1019D00008707148407F80380978884203DD012013
:1019E0006E49087002E003206C4908700DE06A48F7
:1019F000008A7D21C900884206DB00206749087003
:101A0000654908826649087000BF48E16248203095
:101A10008079002865D061480078002806D0012828
:101A200018D0022825D003284DD13EE05A48008A1C
:101A3000FF21913188420CDB00215C4800F09EFDC3
:101A40000B205B490870012054490870002052495E
:101A5000088240E05048008A142809DB5649534860
:101A600000F08CFD00204C49088202204B49087090
:101A700031E04948008A142816DB0021084600F0AE
:101A80007DFD00204449088245480078401C4449B7
:101A9000087008460078072803DA01203F490870DB
:101AA00002E003203D49087015E03B48008A7D2193
:101AB000C900884206DB0020384908703649088290
:101AC0003749087007E0002034490870324908821D
:101AD0003349087000BF00BF2F49486902F004F87D
:101AE000DDE02D480078C006C00F00280AD12A4842
:101AF00000788006C00F002804D127480078C0096C
:101B0000002874D02448008AC828E9DD0020224932
:101B1000088208460078C00900282AD027480078A3
:101B200000280CD00846807C062804DA0846807C11
:101B3000401C887410E00020174988740CE0164897
:101B4000807C002805DD1448807C401E1249887482
:101B500002E00520104988740F48807C0D49087008
:101B60000846007800F010FD0B49887C00F034FB3B
:101B700095E01248807840210840402824D106484A
:101B8000807C06281CDA0448807C401C024988744A
:101B900027E0000021000020400000202C00002051
:101BA0002D00002023000020003000486D1F0000A1
:101BB0002800002000200048CD040000080100207B
:101BC00000206C4988740CE06A48807C002805DDA0
:101BD0006848807C401E6749887402E0052065499A
:101BE00088746449887C00F0F7FA58E0FFE7002029
:101BF00061490870614908705E48407E012841D102
:101C00005F4800785F490978884209D05D480178CB
:101C100019208002FEF77EFC5A4800785849087067
:101C200002210920C006FEF78BFF04210920C0060F
:101C3000FEF786FF10215448FEF782FF0421524828
:101C4000FEF77EFF02215048FEF77AFF08210920A7
:101C5000C006FEF775FF08214C48FEF771FF4021D2
:101C60004A48FEF76DFF20214848FEF769FF8021B2
:101C70004648FEF765FF00203E49C8748876088212
:101C8000C8760CE03B48C07E002808D03949098C52
:101C900088B200F033FB3B48007800F075FC3C480C
:101CA00000788007C00F002829D039480088022119
:101CB0008843374908802F4820300079012800E008
:101CC00056E011D12B482030407901280CD0314802
:101CD0000078002808D12748407F002804D12548F3
:101CE000C089401C2349C881224840784007C00F62
:101CF000002804D01F488089401C1E4988811D4847
:101D0000C0894B21C900884218DD00201949C881CB
:101D100021480078002807D02049214800F02EFCF7
:101D200000201D49087009E000211E4800F026FC33
:101D30000C201D4908700120174908700D48808942
:101D4000642815DD00200B4988810846007840078B
:101D5000C00F002803D10021124800F00FFC0D2015
:101D600011490870034840780421884301494870AC
:101D700010BD0000400000202C0000202D0000209D
:101D800022000020210000200030004800200048F0
:101D900004000020250000202B0000209F030000ED
:101DA0007C1000006D1F00002800002010B50446C4
:101DB000ED4800780007C00F00281DD0EA480088D1
:101DC00008218843E8490880E848844215D9002062
:101DD000E7490870E7490881C880488148808880C1
:101DE0000846007840218843E24908700846007898
:101DF000B0210840DF490870B4E1DD4800780028D0
:101E000025D1DA483238844221D2DB4884421ED9B7
:101E1000D8480089401CD74908810020C8804880E4
:101E20000846007840218843D24908700846008956
:101E30001428E1DD14200881084600780221884337
:101E4000801CCC4908700120C94908708AE1C84843
:101E50000078002825D1C8486838844221D2C74874
:101E600084421ED90020C349088148800846C088A2
:101E7000401CC8800846C0881428BDDD1420C880D6
:101E80000846007840084000401C0870084600786A
:101E9000402188434030B74908700120B449087098
:101EA00060E1B44800784006C00F002858D0B3481D
:101EB0004F38844254D2B148F938844250D9AD48A1
:101EC0004088401CAB494880084640887D21490134
:101ED000884291DD0846A749488008460078800678
:101EE000C00F002806D10846007808218843083032
:101EF000A049087001209E49087008210920C006E9
:101F0000FEF796FE08219E48FEF792FE40219C486F
:101F1000FEF78EFE20219A48FEF78AFE802198481F
:101F2000FEF786FE02209749886102210920C0063B
:101F3000FEF77EFE04210920C006FEF779FE10217F
:101F40009048FEF775FE04218E48FEF771FE0221CF
:101F50008C48FEF76DFE8C498C4800F00FFB01E1C8
:101F60008B4884421FD2F320C00084421BD9814891
:101F70004089401C7F49488100204880888008466D
:101F80000078402188437B4908700846408914281E
:101F900086DD142048810846007804218843001D0E
:101FA00074490870DEE0734800784007C00F0028CD
:101FB00064D07848844261D26920000184425DD9AE
:101FC0006C488088401C6B498880084680887D2149
:101FD000C9008842C3DD0846664988800846007803
:101FE00004218843634908700120614908706148F1
:101FF000203040790128B2D05E48407F0028AED121
:102000005C480078C006C00F0028A8D15948007865
:102010008006C00F002821D15F4880784021084009
:10202000402806D15C488078BF2108405A49887012
:1020300005E059488078402108435749887001F0ED
:102040009FFD4C4800782021884320304949087082
:10205000514A9178474A107801F0E6FB4A494B48CB
:1020600000F08CFA4D48007800F08EFA4148407834
:1020700004218843001D3F49487073E03D480078C3
:102080004007C00F00285DD04248CA38844259D268
:10209000AF20C000844255D93648C088401C35491D
:1020A000C8800846C0887D21C90088425ADD08469C
:1020B0003049C88008460078042188432D490870BB
:1020C00001202B4908702B4820304079012849D045
:1020D0002848407F002845D126480078C0090028BC
:1020E00040D1244800788006C00F00281AD12A4821
:1020F0000078002803D000202749087002E0012062
:10210000254908701B480078202188432030194950
:10211000087008460078802188438030154908708F
:1021200001F02EFD1849194800F028FA1B480078E4
:1021300000F02AFA0F48407804218843001D0D4919
:1021400048700FE0AF20C00084420BD209480078ED
:102150004007C00F002805D00648007804218843B6
:102160000449087010BD000004000020160D000096
:102170002600002040000020030B0000D2090000D0
:102180000020004800300048CD0400006D1F000012
:10219000740800003C070000080100202100002016
:1021A000002101704170C180018141818181C18123
:1021B00001828174C174017641768176C17601779E
:1021C00041770162002224210A54022225210A5467
:1021D000002226210A54704710B50446230000F05F
:1021E0006DFF06041A30465C728808210920C0067B
:1021F000FEF7A6FC08214048FEF7A2FC40213E481D
:10220000FEF79EFC20213C48FEF79AFC80213A48CC
:10221000FEF796FC6EE008210920C006FEF708FDD7
:1022200008213548FEF78CFC40213348FEF788FC36
:1022300020213148FEF784FC80212F48FEF780FCE6
:1022400058E008210920C006FEF7F2FC08212A48C0
:10225000FEF7EEFC40212848FEF772FC20212648BC
:10226000FEF76EFC80212448FEF76AFC42E008215C
:102270000920C006FEF7DCFC08211F48FEF7D8FC49
:1022800040211D48FEF7D4FC20211B48FEF758FCD6
:1022900080211948FEF754FC2CE008210920C006D3
:1022A000FEF7C6FC08211448FEF7C2FC4021124884
:1022B000FEF7BEFC20211048FEF7BAFC80210E4834
:1022C000FEF73EFC16E008210920C006FEF7B0FC30
:1022D00008210948FEF7ACFC40210748FEF7A8FC9E
:1022E00020210548FEF7A4FC80210348FEF7A0FC4E
:1022F00000E000BF00BF10BD0020004810B504463C
:10230000642C00DA10BD8648844203DA0120854936
:10231000087002E0002083490870834884421CDC76
:1023200082480078002817D10120804908700821D0
:102330000920C006FEF704FC08217D48FEF700FCDA
:1023400040217B48FEF7FCFB20217948FEF7F8FB93
:1023500080217748FEF7F4FB87E07648844218DC5A
:1023600008210920C006FEF763FC08217048FEF72B
:10237000E7FB40216E48FEF7E3FB20216C48FEF7A7
:10238000DFFB80216A48FEF7DBFB0020674908700D
:102390006BE06948844218DC08210920C006FEF77A
:1023A00047FC08216248FEF743FC40216048FEF7E5
:1023B000C7FB20215E48FEF7C3FB80215C48FEF787
:1023C000BFFB0020594908704FE05C48844218DC8C
:1023D00008210920C006FEF72BFC08215448FEF70F
:1023E00027FC40215248FEF723FC20215048FEF7ED
:1023F000A7FB80214E48FEF7A3FB00204B49087045
:1024000033E04F48844218DC08210920C006FEF75B
:102410000FFC08214648FEF70BFC40214448FEF71C
:1024200007FC20214248FEF703FC80214048FEF7CC
:1024300087FB00203D49087017E008210920C006ED
:10244000FEF7F6FB08213A48FEF7F2FB4021384838
:10245000FEF7EEFB20213648FEF7EAFB80213448E8
:10246000FEF7E6FB0020314908703048007801286B
:1024700051D13448008AC82850DD002031490882F3
:1024800008210920C006FEF797FB2648007800289F
:1024900036D02C482030007900283FD12A480078D7
:1024A00000283BD129480078002837D12548407FB3
:1024B000002833D12348C07C002802D0012813D142
:1024C00007E02349234800F059F801201D49C8744A
:1024D00015E000211F4800F051F801201E49087046
:1024E00000201849C8740AE000211A4800F046F894
:1024F00002201949087000201249C87400BF0DE07D
:102500000021144800F03AF8032013490870002015
:102510000C49C87402E000200A49088200BFF1E6B5
:102520005046000024000020BC5C00002300002076
:1025300000200048C05D0000B45F00006261000040
:10254000C06200004000002027000020250000207D
:10255000CD0400006D1F00002800002000BF0449CA
:1025600009694905C90F0029F9D101490860704777
:10257000004400407047704770470000014A1062F5
:1025800011637047002C014010B50446230000F091
:1025900095FD067A041B3249607A02210920C006A3
:1025A000FEF746FB04210920C006FEF7C9FA1021F8
:1025B0003648FEF7C5FA04213448FEF7C1FA022175
:1025C0003248FEF7BDFA5FE002210920C006FEF79F
:1025D0002FFB04210920C006FEF72AFB10212B48FF
:1025E000FEF7AEFA04212948FEF7AAFA022127488D
:1025F000FEF7A6FA48E002210920C006FEF718FB04
:1026000004210920C006FEF713FB10211F48FEF726
:102610000FFB04211D48FEF793FA02211B48FEF729
:102620008FFA31E002210920C006FEF701FB0421E8
:102630000920C006FEF7FCFA10211448FEF7F8FA4C
:1026400004211248FEF7F4FA02211048FEF778FA46
:102650001AE002200D49886102210920C006FEF718
:10266000E7FA04210920C006FEF7E2FA1021074824
:10267000FEF7DEFA04210548FEF7DAFA02210348E4
:10268000FEF7D6FA00E000BF00BF10BD00300048E2
:1026900010B50020C0430249088000F0CDFE10BDF7
:1026A0000400002000B503201149486200201149B0
:1026B000C8600F488069400840000D49886108469D
:1026C0000069012108430A49086100F0D9FC084863
:1026D00040694008400006494861074841060860D3
:1026E0000448C0680349C8600846C068C86000BDA7
:1026F0000018004000F001402000EBADF8B50446A2
:102700002548C0688607B60F2348C06804210840E2
:1027100087082148C068FF21F131084005091E489B
:10272000C06809050840000E0090002E05D1691C04
:102730001A48FDF7DDFC206026E0012E05D1691C5A
:102740001748FDF7D5FC20601EE0022E16D1002FA1
:1027500005D1691C1348FDF7CBFC206014E0012F64
:1027600005D1691C1048FDF7C3FC20600CE0691C12
:1027700001200004FDF7BCFC206005E0691C01207D
:10278000C003FDF7B5FC206020680099491CFDF7E7
:10279000AFFC6060F8BD000000F0014000366E0143
:1027A00000127A00006CDC020024F40070477047CD
:1027B000704770477047000010B57D21C9000E4872
:1027C0000068FDF795FC0446601E0C49884201D95B
:1027D00001200CE0601E0A4948610321081F00F037
:1027E0007BFC002006498861072008610020002842
:1027F00001D000BFFEE710BD00000020FFFFFF007A
:1028000000E000E010B506480069C007C00F0028CE
:1028100004D003490968C8B200F004F810BD0000F4
:102820000044004000B5594909780B0000F046FC0F
:1028300007A705273C485476A700EB280BD10021B9
:10284000534A117053491278885451490978491CE8
:102850004F4A117012E04E49097801290BD14C49B9
:102860000A780978491C4A4B19704A498854022150
:10287000464A117002E00021454A117083E0444944
:102880000A780978491C424B197042498854FB2840
:1028900006D106213D4A117001213F4A117002E024
:1028A00003213A4A11706EE039490A780978491CC7
:1028B000374B1970374988540421344A117062E04B
:1028C00033490A780978491C314B197031498854C9
:1028D00005212E4A117056E02D490A780978491CC5
:1028E0002B4B19702B4988541946097850290ADA5C
:1028F00028498A7819460978C91C8A420DD10621CF
:10290000224A117009E00021214A1170214A204B0E
:102910001B78D15401211D4A117034E01C490A78FA
:102920000978491C1A4B19701A49885419460978B4
:10293000072923DB19460978491E164A515C3C29B0
:102940001CD119460978891E515CC32916D1194634
:102950000978C91E515C332910D119460978091F1D
:10296000515CCC290AD100211A461170094A1B7802
:10297000D1540121054A1170084A117003E0012168
:10298000024A117000BF00BF00BD00002E000020F1
:102990003000002068000020350000202F000020BB
:1029A000094900BFC205D20D084B1A6003E0491E59
:1029B000002900D106E0054A126901239B021A4052
:1029C000002AF4D100BF70471027000000440040E7
:1029D00070B505460E46002403E0285DFFF7E0FFD2
:1029E000641CB442F9D370BD70B504460D4610485E
:1029F000844202D00F48844200D103E085210EA01A
:102A000000F0A2FC002D01D0012D00D103E08621B1
:102A100009A000F099FC002D04D0606880210843D3
:102A2000606003E0606880218843606070BD0000E2
:102A300000440040003801402E2E5C505433325880
:102A40003030355F46574C69625C7372635C50543A
:102A50003332583030355F756172742E6300000078
:102A6000002902D0012908D103E00022D2430262EA
:102A700003E00022D243C26100BF00BF70470000E4
:102A800070B505460C4616462048854202D02048BF
:102A9000854200D103E01F491FA000F055FC012C26
:102AA0001AD0022C18D0042C16D0082C14D0102CBC
:102AB00012D0202C10D0402C0ED0802C0CD0FF2017
:102AC0000130844208D04000844205D04000844256
:102AD00002D04000844200D104E00E49491C0EA0FF
:102AE00000F032FC002E01D0012E00D104E087213D
:102AF000890009A000F028FC002E03D0E8682043DC
:102B0000E86002E0E868A043E86070BD004400406F
:102B1000003801401A0200002E2E5C505433325807
:102B20003030355F46574C69625C7372635C505459
:102B30003332583030355F756172742E6300000097
:102B4000FEB505460C4600260027002002905D4891
:102B5000854202D05C48854200D103E037215BA06A
:102B600000F0F2FB2068002804D062492068884207
:102B700000D203E0382155A000F0E6FBA088012830
:102B80000BD0A088032808D0A088042805D0A088EE
:102B9000052802D0A088072800D103E039214BA0E6
:102BA00000F0D2FBE088002808D0E088082805D093
:102BB000E088102802D0E088182800D103E03A21EC
:102BC00042A000F0C1FBE068042805D0E0680828B6
:102BD00002D0E068102800D103E03B213BA000F0C8
:102BE000B3FB208A012802D0208A002800D103E00C
:102BF0003C2136A000F0A8FB3F4828620020C043DB
:102C0000E861B609B601A088E18808432189084334
:102C100006436E60208A002805D06868FF210131D4
:102C20000843686004E06868FF21013188436860F8
:102C30006846FFF763FD019802902268E068504300
:102C400001460298FDF754FA0E462268E0685043A8
:102C500001460298FDF74CFA0746E06840082168F3
:102C60004843B04203D2781C80B2A86001E0B8B2F9
:102C7000A860E068042816D0082809D010281DD1C3
:102C8000A868032109048843A860A868A86016E022
:102C9000A868032109048843A860A86801210904E1
:102CA0000843A8600BE0A868032109048843A860D2
:102CB000A868012149040843A86000E000BF00BFE4
:102CC000FEBD000000440040003801402E2E5C5044
:102CD000543332583030355F46574C69625C7372FA
:102CE000635C50543332583030355F756172742EE6
:102CF00063000000818D5B00FFFF000070B50025C0
:102D0000AF480078002879D0AE48807E002804D1F2
:102D1000AC498874C87403208876AB488078FB2857
:102D200001D000F05BFDA8480079122867D00CDCC8
:102D3000030000F0C3F912901E65A2A79196902F90
:102D4000779090909090906FB09018286FD007DC9B
:102D50001338030000F0B2F905C3E2E5F4F27F0096
:102D6000192876D0252863D0272873D0312872D12E
:102D7000D3E0944820308079002807D192484079E8
:102D800000029149897940188E49086201208D49D5
:102D9000C87610E100208D490870012089494876E5
:102DA00002210920C006FDF7CBFE04210920C00640
:102DB000FDF7C6FE10218648FDF7C2FE04218448B7
:102DC000FDF7BEFE02218248FDF7BAFE0821092068
:102DD000C006FDF7B5FE08217E48FDF7B1FE402193
:102DE0007C48FDF7ADFE20217A48FDF7A9FE802141
:102DF0007848FDF7A5FEFDF7ABFDDCE0DFE06BE01A
:102E0000704820308079002803D16F4840796D499F
:102E10004877D0E06B4820308079002801D169499B
:102E20004877C8E06C48007800F084FDC3E0B3E068
:102E3000002064494876084620308079002800D177
:102E400048776048007E002802D101205D4908765D
:102E5000B1E0A5E0A8E0ADE001215A4820300171C1
:102E6000A9E000215D48FFF789FB0F205C4908704D
:102E700000215448203001719DE00121514820304B
:102E8000417198E000214F4820304171524800784C
:102E9000FFF77AFB8FE000F0A1FC00215148FFF71B
:102EA000A3FD012000F066F9002406E0601D4649FC
:102EB000085C4D490855601CC4B23C2CF6DB002070
:102EC0004049C8740120087701214648FFF78CFD6E
:102ED000002000F04FF96EE000F09EFB6BE0002157
:102EE0004048FFF781FD012000F044F913203F49DD
:102EF0000870354880794870084641780D20C00236
:102F0000FDF708FB002039494870087000F032F9DD
:102F100001213448FFF768FD4DE04CE000F0C4FCAF
:102F200049E001212748203081712748407900027B
:102F3000254989794018234948613CE012E0FFE7C0
:102F400000212048203081711E49098C88B2FFF78A
:102F5000D5F921480078FFF717FB00210846FFF755
:102F60000DFB28E018484079012806D12049087057
:102F700020491A48FFF702FB0DE013484079022868
:102F800009D100201A49087000211448FFF7F6FA09
:102F90001020134908700EE00120174908700AE05C
:102FA00000201549087006E001201449087000F05F
:102FB000DBFB00E000BF00BF00200149087070BDCE
:102FC0002F00002040000020680000202300002087
:102FD0000030004800200048210000206D1F000044
:102FE000280000200044004008010020320000209A
:102FF00027000020CD040000310000203400002014
:1030000000B587B0012205211B48FDF705FD01220F
:1030100006211948FDF700FD1B21684601710121B9
:1030200081710021417101A8FDF742FE4B20C001D2
:1030300002900121684681810821C18120210182FD
:10304000012101831020059002A90C48FFF778FDAB
:1030500000210A48FFF704FD01210848FFF700FDA1
:10306000012211460548FFF70BFD01210348FFF738
:10307000BBFC07B000BD0000003000480044004029
:1030800008B50020009002E00098401C0090024922
:1030900000988842F8DB08BD102700000FB410B577
:1030A00003A9044B044A029800F068F810BC08BC5D
:1030B00004B01847993300003800002030B474463B
:1030C000641E2578641CAB4204D3635D5B00E31887
:1030D00030BC18471D46F8E710B5002819DB1A4A1E
:1030E00003231B02D21883089B00D2588307DC0EEF
:1030F000FF23A3409A438B071B0E8407E40EA340D3
:103100001A43114B032424021B198408A4001A51EA
:1031100018E00E4A03071B0F083B9B089B00D25880
:103120008307DC0EFF23A3409A438B071B0E840703
:10313000E40EA3401A43054B0407240F083CA408DF
:10314000A4001A5110BD000000E100E01CED00E0F9
:1031500002E008C8121F08C1002AFAD17047704760
:10316000002001E001C1121F002AFBD1704780F34B
:103170001088704780F3108870470000FFB58DB04D
:103180000F460546002606E025280AD0109A0F991A
:1031900090476D1C761C28780028F5D1304611B078
:1031A000F0BD00240121674A009400E004436D1C37
:1031B0002B780846203B98401042F7D128782E28DB
:1031C00015D10420044368786D1C2A280AD101CF48
:1031D0006D1C00900BE000990A22514330394018D1
:1031E0006D1C00902878014630390929F3D92878D8
:1031F000692843D006DC0028D0D063280BD064288F
:1032000004D13BE073280FD075284CD0109A0F9949
:103210009047761C94E0387869460872002048721E
:1032200002A80190012003E0386801900020C0430B
:103230003F1D61070CD5002400E0641C00998C42FE
:103240000FDA8442F9DB0199095D0029F5D108E024
:10325000002400E0641C8442FCDB0199095D002924
:10326000F8D1361907E0019801990078491C0191BD
:10327000109A0F999047641EF5D261E00A200190E0
:1032800001CF002802DA40422D2102E0210504D5B9
:103290002B216A461172012103E0E10701D02021B0
:1032A000F7E70C9104E00A20019001CF00210C9176
:1032B0000BA90B9108E00199FCF71AFF0A460B993C
:1032C0003032491E0B910A700028F4D10B9803A9E3
:1032D000081A20300190600701D5009801E0012014
:1032E00000900199884203DD01460198081A00E028
:1032F00000200024009006E002A8109A005D0F99BB
:103300009047641C761C0C988442F5DB04E0109A0C
:1033100030200F999047761C0099481E0090002994
:10332000F5DC08E00B980B990078491C0B91109A7A
:103330000F999047761C0199481E01900029F1DCF5
:103340006D1C28E70928010004460D462A4621463F
:1033500002A0FFF7A3FE00BFFEE7000057726F6EEA
:103360006720706172616D65746572732076616C3F
:1033700075653A2066696C65202573206F6E206C38
:10338000696E652025640D0A0000000000BF01463B
:10339000401E0029FBD1704770B504460D462046FB
:1033A000FFF7DCF870BD00F0A5F803E0FFF7A6FC1E
:1033B000FDF75AFEFAE710B504462046FDF7E0F99E
:1033C000C0B210BD0148006B80B27047002C0140B4
:1033D00010B504464122214603204003FDF7CCF8F6
:1033E00010BD000070B500250024002600BF3C225F
:1033F0000F4903204003FDF7ABF800BF07E00C487E
:10340000065DFF2E01D1681CC5B2601CC4B2412C00
:10341000F5DB322D0BDD002404E0002004490855C3
:10342000601CC4B23C2CF8DB01200249087770BD57
:10343000080100204000002010B500240221264889
:10344000FCF75EFF002802D02348FDF731F8012188
:103450002148FCF755FF002800D110BD01211E486E
:10346000FCF7C6FE002400E0641C142CFCD31A48B0
:10347000FCF722FF044619480068401C1749086001
:1034800017480068844201D915480460154800684F
:10349000844201D21348046013480068001912499D
:1034A00008600E480068062814D1084600680C49D8
:1034B0000968401A0B490968401A80080B490860DE
:1034C0000B48084908600020054908600649086063
:1034D0000249086000BFC0E7002401400C00002042
:1034E0001000002014000020180000201C00002004
:1034F000FFFF000010B500F0EBFA0A20FFF746FFCF
:103500000120FFF734FE19208002FFF754FF254900
:103510000870084600782449087041222349032096
:103520004003FDF715F81B208002FFF744FF2049F8
:1035300008701E4880781F4908701B4800780028D2
:1035400003D101201849087012E0174800780528B7
:1035500007DB15480078642803DA05201249087053
:1035600006E011480078642802DB01200E4908704B
:1035700002200D49087000200F4908700F4908709B
:1035800002210F4841710021017100200C492039AE
:1035900008620846FEF704FEFFF724FF0020FFF74D
:1035A000E6FD10BD220000202100002008010020BF
:1035B000200000202A0000202300002024000020FA
:1035C0006000002000B585B06846FCF797FF6946AB
:1035D0000F48FCF7CBFE012208210E48FDF7E8F862
:1035E00080210B48FCF738FF05210948FCF7BCFD9A
:1035F00001210748FCF72AFE00BF02210448FCF71E
:103600007FFE0028F9D00248FCF752FF05B000BD4C
:10361000002401400030004870B50024EB22214610
:10362000641C2148425490222146641C42540022CA
:103630002146641C4254A2222146641C4254122298
:103640002146641C42540120FFF794FD002508E048
:103650001648425D2046611CCCB213490A54681CCE
:10366000C5B23C2DF4DB0020FFF784FDCC222046C0
:10367000611CCCB20C490A5433222046611CCCB2E6
:1036800009490A54C3222046611CCCB206490A5497
:103690003C222046611CCCB203490A54084684707F
:1036A0002146FFF795F970BDB80000200801002001
:1036B000F0B50546002400260027002028490870A0
:1036C000EB222146641C2748425490222146641C68
:1036D000425400222146641C4254A2222146641C0A
:1036E000425417222146641C42542146641C45540E
:1036F000CC222146641C425433222046611CCCB2A9
:1037000018490A54C3222046611CCCB215490A54F8
:103710003C222046611CCCB212490A5408468470EF
:1037200000BF19E021460F48FFF752F9002709E0D2
:10373000282000F039F90A480078002800D003E07A
:10374000781CC7B2FA2FF3DB00BF054800780028C9
:1037500000D003E0701CC6B2042EE3DB00BFF0BD56
:1037600035000020B800002030B505460024EB22CB
:103770002146641C1848425490222146641C42543D
:1037800000222146641C4254A2222146641C425459
:1037900027222146641C42542146641C4554CC22F5
:1037A0002146641C425433222046611CCCB20A4993
:1037B0000A54C3222046611CCCB207490A543C2259
:1037C0002046611CCCB204490A5408468470214644
:1037D000FFF7FEF830BD0000B800002010B500244F
:1037E000EB222146641C0F48425490222146641C5F
:1037F0004254FB222146641C4254CC222146641CC4
:10380000425433222146641C4254C3222146641C84
:1038100042543C222146641C42542146FFF7D8F80A
:1038200010BD0000B800002070B505460E4600240B
:10383000EB222146641C1B48425490222146641C02
:10384000425400222146641C4254A2222146641C98
:1038500042540A222146641C42542146641C4554A9
:103860002146641C4654CC222046611CCCB20D4932
:103870000A5433222046611CCCB20A490A54C3229E
:103880002046611CCCB207490A543C222046611CE8
:10389000CCB204490A54084684702146FFF798F8D0
:1038A00070BD0000B800002010B50024EB222146B6
:1038B000641C1F48425490222146641C425400223A
:1038C0002146641C4254A2222146641C4254142204
:1038D0002146641C42540120FFF74CFC0D20C0021D
:1038E000FFF769FD01462246641C114881540020FF
:1038F000FFF740FCCC222146641C0D484254332281
:103900002046611CCCB20A490A54C3222046611CDD
:10391000CCB207490A543C222046611CCCB204496F
:103920000A54084684702146FFF752F810BD000083
:10393000B800002030B505460024EB222146641C67
:103940001848425490222146641C425400222146C9
:10395000641C4254A2222146641C42540722214680
:10396000641C42542146641C4554CC222146641CEC
:10397000425433222046611CCCB20A490A54C32265
:103980002046611CCCB207490A543C222046611CE7
:10399000CCB204490A54084684702146FFF718F84F
:1039A00030BD0000B800002001E0411EC8B2002870
:1039B000FBD1704710B5FFF705FD002877D03C48D4
:1039C0000078C006C00F002871D039480088102147
:1039D00088433749088037480079002867D136483E
:1039E0000078002863D133482038407F00285ED11A
:1039F0003248007800285AD131480078002856D142
:103A000030480078002852D12A482038007F00280A
:103A10004DD128482038007E032848D12548203839
:103A20008088002843D123482038408800283ED190
:103A300020482038C088002839D11E482038008905
:103A4000002834D11B488079002830D100211E483D
:103A5000FEF794FD0E201D490870002019490870DA
:103A600011E013480088102188431149088000BFE5
:103A70000F480078C006C00F0028F9D01148007820
:103A8000401C104908700F4800783C28E9DB0220F0
:103A9000FFF70EFE00210B4A1170090110221140A0
:103AA00008460349098891430143014A118010BD2A
:103AB00004000020600000202400002027000020D7
:103AC00025000020260000206D1F00002800002097
:103AD00010B5FCF73DFFFDF7BBF9FFF773FDFFF7EE
:103AE0008FFAFEF769FE10BD10B504462020204075
:103AF000002805D002210920C006FDF799F804E04E
:103B000002210920C006FDF71BF8402020400028B4
:103B100005D004210920C006FDF78AF804E004213D
:103B20000920C006FDF70CF880202040002804D0B2
:103B300010211248FDF77CF803E010210F48FCF734
:103B4000FFFFFF2001302040002804D004210B4853
:103B5000FDF76EF803E004210848FCF7F1FF0120AF
:103B600040022040002804D002210448FDF760F8FC
:103B700003E002210148FCF7E3FF10BD00300048DC
:103B800010B50120FFF7F3FA0548FFF721FC0020EC
:103B9000FFF7EDFA01210348FEF726FF10BD0000F4
:103BA0000801002000440040C83B00000000002045
:103BB0004000000050310000083C000040000020A0
:103BC000100300006031000000366E0100000000AC
:103BD000000000000000000000000000FFFF0000E7
:103BE00000000000000000000000010000000100D3
:103BF00000000000000001000000000000000000C4
:083C00000000000000000000BC
:04000005000000DD1A
:00000001FF
