:020000040800F2
:100000007808002031300008613D0008633D000899
:10001000673D00086B3D00086F3D000800000000D0
:10002000000000000000000000000000733D000818
:10003000753D000800000000773D0008793D00088C
:100040004B3000084B3000084B300008633E00087E
:100050004B3000084B3000084B3000084B30000894
:100060004B3000084B3000084B3000084B30000884
:100070004B3000084B3000084B3000084B30000874
:100080004B3000084B3000084B3000084B30000864
:10009000AF5D00084B3000084B3000084B300008C3
:1000A0004B3000084B3000084B3000084B30000844
:1000B0004B3000084B3000084B3000084B30000834
:1000C0004B3000084B3000084B3000084B30000824
:1000D0004B300008C94600084B3000084148000872
:1000E0004B300008773E00084B30000800F002F863
:1000F00000F090F80AA090E8000C82448344AAF132
:100100000107DA4501D100F085F8AFF2090EBAE82F
:100110000F0013F0010F18BFFB1A43F0010318473B
:10012000107C0000307C0000103A24BF78C878C1F1
:10013000FAD8520724BF30C830C144BF04680C60ED
:10014000704700000023002400250026103A28BF35
:1001500078C1FBD8520728BF30C148BF0B60704739
:100160006E2906F06581702905F0AF87662907F0D2
:100170006582652907F06282672907F05F8261293D
:10018000AFF3008003681B0A28BF41F08001692992
:1001900005F02087642905F01D87752905F01A8769
:1001A0006F2906F06482782905F07B87E92906F03B
:1001B000FF81E42906F0FC81F52906F0F981EF2999
:1001C00006F06182F82905F07A870368DB0928BF09
:1001D00041F08001632906F06E81732906F0738176
:1001E000E32906F0B984F32906F0BE8400207047A5
:1001F0001FB506F00FFD04000020002107F008FAEB
:10020000401C60600020002107F0ECF9E0601FBD99
:1002100010B510BD06F0D0FC1146FFF7E9FF02F063
:1002200041FF06F0ADFD03B4FFF7F2FF03BC04F09D
:10023000C7F900000CB50020019000906C480068E0
:1002400040F480306A49086000BF6948006800F4E3
:10025000003000900198401C0190009818B9019856
:10026000B0F5A06FF1D16248006800F4003010B121
:100270000120009001E0002000900098012843D167
:100280005C48006840F010005A4908600846006861
:1002900020F0030008600846006840F00200086093
:1002A00053484068524948600846406848600846DC
:1002B000406840F4806048600846406820F47C1044
:1002C00048600846406840F4E81048600846006806
:1002D00040F08070086000BF4548006800F0007082
:1002E0000028F9D04248406820F0030040494860A7
:1002F0000846406840F00200486000BF3C48406843
:1003000000F00C000828F9D10CBD10B5FFF792FFE2
:1003100010BD10B53648006840F00100344908604F
:10032000084640683449084031494860084600683A
:10033000324908402E4908600846006820F48020B1
:1003400008600846406820F4FE0048604FF41F0033
:100350008860FFF7DAFF4FF000602949086010BDA0
:1003600010B5002100200022214B5B6803F00C0136
:1003700021B1042906D0082928D107E0214B224CBD
:10038000236027E01F4B204C236023E0184B5B6861
:1003900003F47010164B5B6803F48032022303EB06
:1003A000904022B9194B4343174C23600DE0104B8A
:1003B0005B6803F4003323B1144B4343124C2360B6
:1003C00003E0104B4343104C236003E00D4B0E4CF5
:1003D000236000BF00BF064B5B68C3F303130C4CE4
:1003E000E15C094B1B68CB40074C236010BD00004B
:1003F00000100240002002400000FFF8FFFFF6FE60
:1004000008ED00E000127A000000002000093D0025
:100410000400002031490143314A1160704770B532
:10042000002100230F22C47804B32D4C246804F467
:10043000E064C4F5E064210AC1F10403CA404478D1
:1004400004FA03F18478144021430901254C06780D
:10045000A155047804F01F050124AC4005786D1106
:10046000AD0005F1E025C5F8004109E0047804F08D
:100470001F050124AC401C4D0678761145F8264036
:1004800070BD1A4A0A400243154B1B1F1A60704781
:1004900039B1134A121D12680243114B1B1D1A6019
:1004A00006E00F4A121D126882430D4B1B1D1A6095
:1004B0007047042808D14FF0E021096941F0040198
:1004C0004FF0E022116107E04FF0E021096921F0CF
:1004D00004014FF0E0221161704700000000FA05AE
:1004E0000CED00E000E400E080E100E080FFFF1F91
:1004F00010B50446CC48844208D10121042000F004
:100500002DFB0021042000F029FB46E0C74884426F
:1005100008D10121082000F021FB0021082000F073
:100520001DFB3AE0C248844208D10121102000F0AE
:1005300015FB0021102000F011FB2EE0BD48844285
:1005400008D10121202000F009FB0021202000F02B
:1005500005FB22E0B848844208D10121402000F088
:10056000FDFA0021402000F0F9FA16E0B348844279
:1005700008D10121802000F0F1FA0021802000F054
:10058000EDFA0AE0AE48844207D10121801500F05F
:10059000E5FA0021A01500F0E1FA10BD10B5012127
:1005A000084600F0DBFA0021012000F0D7FA10BD68
:1005B0002DE9F041024600250026002000230024FA
:1005C000002791F803C00CF00F0591F803C00CF060
:1005D000100CBCF1000F03D091F802C04CEA0505E5
:1005E00091F800C0BCF1000F31D0146800202BE05E
:1005F0004FF0010C0CFA00F3B1F800C00CEA03064E
:100600009E4220D183004FF00F0C0CFA03F7BC433D
:1006100005FA03FC4CEA040491F803C0BCF1280F6E
:1006200006D14FF0010C0CFA00FCC2F814C00AE02D
:1006300091F803C0BCF1480F05D14FF0010C0CFA42
:1006400000FCC2F810C0401C0828D1D31460B1F8D7
:1006500000C0BCF1FF0F34DD546800202EE000F133
:10066000080C4FF0010808FA0CF3B1F800C00CEACE
:1006700003069E4221D183004FF00F0C0CFA03F7C2
:10068000BC4305FA03FC4CEA040491F803C0BCF136
:10069000280F05D100F1080C08FA0CF8C2F81480F4
:1006A00091F803C0BCF1480F07D100F1080C4FF0DE
:1006B000010808FA0CF8C2F81080401C0828CED3B4
:1006C0005460BDE8F0814FF6FF7101800221817016
:1006D0000421C17070470246002093680B400BB1A3
:1006E000012000E0002070470146886880B2704712
:1006F00002460020D3680B400BB1012000E000202F
:1007000070470146C86880B2704701617047416117
:1007100070470AB1016100E041617047C1607047F4
:100720004FF480320A438261816182618269826909
:10073000704702460020434B18684FF680731840FC
:1007400040EA021008433F4B186070473E49C861B9
:100750007047F0B50A46002300240021002500F070
:100760000046B6F1004F02D1364EF16901E0354E38
:100770007168C0F3034583B200F44016B6F5401F1C
:1007800008D121F070612F4E766826F070662D4FEB
:100790007E6012E000F48016B6F5801F06D10326B5
:1007A00006FA05F4A14341F0706106E0460D3601FA
:1007B00003FA06F6B14341F0706122B1460D3601ED
:1007C00003FA06F6314300F00046B6F1004F02D1BD
:1007D0001C4EF16101E01B4E7160F0BD30B500228E
:1007E0008B071C0F0F2303FA04F2164B08338C10EF
:1007F00053F824309343134C08348D1044F82530BB
:1008000023468C1053F824308C07240F00FA04F48C
:1008100023430C4C08348D1044F8253030BD0A4970
:10082000DC3108607047000000080140000C014006
:10083000001001400014014000180140001C01405C
:10084000002001400000014000002042DF48006815
:1008500040F00100DD49086008464068DC49084076
:10086000DA49486008460068DA490840D749086014
:100870000846006820F4802008600846406820F49C
:10088000FE0048604FF41F0088607047CF49096838
:1008900021F48031CD4A11601146096821F480218C
:1008A0001160B0F5803F03D0B0F5802F0ED106E087
:1008B000C649096841F48031C44A116007E0C34960
:1008C000096841F4A021C14A116000E000BF00BFE7
:1008D000704710B501460022002300204A11012A6A
:1008E00002D1BA4C236806E0022A02D1B74C236A2F
:1008F00001E0B64C636A01F01F02012494401C40E1
:100900000CB1012000E0002010BD38B5002000909F
:100910000024002500BF3120FFF7DBFF05460098CB
:10092000401C00900098B0F5A06F01D0002DF2D0CF
:100930003120FFF7CEFF08B1012400E0002420465B
:1009400038BD01460020A14A106820F0F80040EAB6
:10095000C10010607047A04908607047024600203F
:100960009A4B586820F47C1042EA01031843974BD5
:100970005860704798490866704701460020934ABE
:10098000506820F003000843506070478F4840686B
:1009900000F00C007047014600208C4A506820F09F
:1009A000F00008435060704701460020874A5068B5
:1009B00020F4E06008435060704701460020834AFD
:1009C000506820F4605040EAC1005060704729B17F
:1009D0007E4A527A02437D4B5A7204E07B4A527A35
:1009E00082437A4B5A7270477B49D831086070470E
:1009F00001460020754A506820F44040084350608A
:100A000070470021714A20321170704A82F820101C
:100A1000012802D004280AD104E001216B4A2032C7
:100A2000117005E00521694A2032117000E000BF15
:100A300000BF70476949086070476449096A01430B
:100A4000624A11627047654944390860704730B5A1
:100A500000210022002400235C4D6D6805F00C018C
:100A600021B1042905D0082923D105E05C4D05609A
:100A700022E05B4D05601FE0544D6D6805F4701277
:100A8000524D6D6805F48034022505EB92421CB985
:100A9000544D554305600BE04C4D6D6805F4003531
:100AA0001DB1504D5543056002E04D4D5543056065
:100AB00002E04B4D056000BF00BF444D6D6805F07E
:100AC000F0010909484D6B5C0568DD4045603F4D0C
:100AD0006D6805F4E061090A434D6B5C4568DD40D3
:100AE00085603A4D6D6805F46051C90A3E4D6B5CF6
:100AF0004568DD40C560354D6D6805F44041890BA2
:100B00003A4D6B5CC568B5FBF3F5056130BD29B1A5
:100B10002E4A526902432D4B5A6104E02B4A526916
:100B200082432A4B5A61704729B1284A926902438D
:100B3000264B9A6104E0254A92698243234B9A61CD
:100B4000704729B1214AD2690243204BDA6104E09F
:100B50001E4AD26982431D4BDA61704729B11B4A94
:100B6000D2680243194BDA6004E0184AD268824323
:100B7000164BDA60704729B1144A12690243134BCD
:100B80001A6104E0114A12698243104B1A617047DE
:100B900012494039086070470F49C86470470B49D3
:100BA000C87170470948406A40F080700749486240
:100BB000704701460020054A92680A400AB10120A8
:100BC00000E0002070470149887270470010024021
:100BD0000000FFF8FFFFF6FE0000424280044242A0
:100BE00000127A0000093D001400002024000020BB
:100BF00010B50446FB48844209D101218803FFF760
:100C0000ADFF00214FF48040FFF7A8FF32E0F64827
:100C1000844209D101214804FFF7ADFF00214FF4C0
:100C20000030FFF7A8FF25E0F048844209D10121F8
:100C30008804FFF7A0FF00214FF48020FFF79BFFFF
:100C400018E0EB48844209D10121C804FFF793FF63
:100C500000214FF40020FFF78EFF0BE0E5488442AF
:100C600008D101210805FFF786FF00214FF480100D
:100C7000FFF781FF10BD2DE9F04786B005460E460F
:100C80000024A24600BFA1460027B08900B100BFE2
:100C90002F462C8A4CF6FF700440F08804432C82C7
:100CA000AC894EF6F3100440B0883189084371894D
:100CB00008430443AC81AC8A4FF6FF400440B0893E
:100CC0000443AC8201A8FFF7C2FEC648874202D1A6
:100CD000DDF810A001E0DDF80CA0A88900F40040C8
:100CE00040B10AEBCA0000EB0A1031684900B0FBC2
:100CF000F1F807E00AEBCA0000EB0A10316889003E
:100D0000B0FBF1F86420B8FBF0F004012009642185
:100D100001FB1089A88900F4004040B1322000EBAB
:100D2000C900B0FBF1F000F00700044308E03220F6
:100D300000EB09106421B0FBF1F000F00F00044358
:100D40002C8106B0BDE8F0874FF4165101600021F8
:100D50008180C18001810C21418100218181704706
:100D600010B502460020108A4FF2FF0318400B888E
:100D70004C8823438C882343CC8823431843108218
:100D800010BD0021018041808180C180704721B168
:100D9000828942F40052828104E082894DF6FF7319
:100DA0001A4082817047F0B50346002400260025D2
:100DB000002040F66A17B94200D100BF1846C1F3BF
:100DC000421401F01F06012707FA06F5012C01D194
:100DD0000C3004E0022C01D1103000E014301AB1C4
:100DE00007682F43076002E00768AF430760F0BD64
:100DF0001AB1838A0B43838202E0838A8B43838206
:100E00007047028A4FF6F0731A400282028A0A4340
:100E10000282704782894FF2FF731A408281828971
:100E20000A438281704721B1828942F002028281A5
:100E300004E082894FF6FD731A4082817047028A6E
:100E40004FF6DF731A400282028A0A430282704719
:100E500021B1028A42F48042028204E0028A4BF607
:100E6000FF731A4002827047C1F308028280704704
:100E700001468888C0F308007047818941F001016C
:100E800081817047028BD2B20283028B42EA012237
:100E900002837047028B02F47F420283028B0A4373
:100EA0000283704721B1828A42F02002828204E0EC
:100EB000828A4FF6DF731A408282704721B1828A9C
:100EC00042F01002828204E0828A4FF6EF731A40E9
:100ED0008282704721B1828A42F00802828204E055
:100EE000828A4FF6F7731A408282704721B1828955
:100EF00042F40042828103E08289C2F30E028281C1
:100F0000704721B1828A42F40062828204E0828AC0
:100F10004FF2FF731A4082827047828A4FF6FB734A
:100F20001A408282828A0A438282704721B1828A71
:100F300042F00202828204E0828A4FF6FD731A4078
:100F40008282704702460020B1F5007F00D100BFC9
:100F500013880B400BB1012000E00020704701F422
:100F60000072B2F5007F00D100BFCA430280704713
:100F700070B50246002400230025002040F66A16C2
:100F8000B14200D100BFC1F3421501F01F03012699
:100F900006FA03F3012D02D19689334006E0022DB3
:100FA00002D1168A334001E0968A33400C120126A2
:100FB00006FA04F41688344013B10CB1012000E0A5
:100FC000002070BD10B50022002340F66A14A14233
:100FD00000D100BF0A1201249440A3B2DC43048074
:100FE00010BD0000003801400044004000480040AF
:100FF000004C00400050004010B50120FFF7C8FD34
:101000000020FFF7C5FD10BD2A4908607047294937
:10101000091F0860704727498431086070470146FE
:101020000020254A10884FF67F4210400843224A8C
:1010300010807047014600201F4A10884FF68072CA
:10104000104008431C4A1080704708B500220092E7
:10105000194A2C3A0092009A02440092009A1160B8
:1010600008BD08B501460020009013482C380090B8
:101070000098084400900098008808BD0D489C30F6
:101080000068C0B270470C480830008840F001008A
:1010900009490831088070470648A0300068C0B28E
:1010A000704705480830008840F0020002490831C6
:1010B0000880704704860D422C6C004010B5012159
:1010C0000807FFF758FD00214FF08050FFF753FD50
:1010D00010BD2A49086270472849086170470146D7
:1010E0000020274A106820F0E00008431060704795
:1010F0002249A0310860704710B502460020204BFD
:10110000186820F00300104318601E4B1B6843F062
:1011100004031C4C2360012901D130BF00E020BF33
:10112000184B1B6823F00403164C236010BD1448B1
:10113000006840F00400124908600846006840F06A
:10114000020008600F48006840F004000D49086084
:1011500000BF00BF30BF704701460020084A5268F8
:101160000A400AB1012000E00020704704490968E4
:1011700041EA8001024A11607047000000000E42FF
:101180000070004010ED00E029B1504A128802437F
:101190004E4B1A8004E04D4A128882434B4B1A8012
:1011A00070474A48001D008840F010004749091D5B
:1011B000088070474548001D00884FF6EF710840D1
:1011C0004249091D08807047002140481C300188B1
:1011D000001F008841EA0040704700B50246FFF753
:1011E000E0FF100C394918310880091D0A80FFF70B
:1011F000E1FF00BD00B50246FFF7D3FFC2F3034095
:10120000324908310880091D0A80FFF7D3FF00BD6D
:1012100000B50246FFF7C5FF100C2C4920310880AD
:10122000091D0A80FFF7C6FF00BD002027491031C5
:1012300009880907080B25491431098808437047B4
:1012400000BF2248001D008800F020000028F8D0D0
:1012500070471E48001D00884FF6F77108401B4973
:10126000091D088000BF1948001D008800F0080013
:101270000028F8D0704701460020144A121D128839
:101280000A400AB1012000E0002070470F49091D03
:10129000098881430D4A121D1180704701460020C4
:1012A0000A4A121D12880A40D0B2084A12880A401F
:1012B00012B108B1012000E0002070470349091D68
:1012C00009888143014A121D11807047002800409F
:1012D00001460020FE4A106800F038000843106004
:1012E0007047FB49096821F00801F94A116011466D
:1012F0000968014311607047F549096821F0100140
:10130000F34A116011460968014311607047F148C2
:10131000EF494860F04848607047EE48EC49486043
:10132000ED4848607047EA48006940F08000E849AD
:1013300008617047E648006940F08000E4490861B0
:1013400070470420E249C96801F0010109B1012098
:101350000EE0DF49C96801F0040109B1022007E08D
:10136000DB49C96801F0100109B1032000E0042045
:10137000704700B502460423FFF7E3FF034603E08E
:10138000FFF7DFFF0346521E012B01D1002AF7D1E0
:1013900002B90523184600BD30B5044604254FF4B4
:1013A0003020FFF7E6FF0546042D17D1C848006935
:1013B00040F00200C649086108464461006940F0F7
:1013C000400008614FF43020FFF7D3FF0546C048C6
:1013D000006941F6FD710840BD490861284630BDED
:1013E00010B504244FF43020FFF7C3FF0446042C4B
:1013F00016D1B748006940F00400B54908610846B5
:10140000006940F0400008614FF43020FFF7B1FF61
:101410000446AF48006941F6FB710840AC490861D9
:10142000204610BD00B502460423FFF78AFF03469D
:1014300003E0FFF786FF0346521E012B01D1002A6D
:10144000F7D102B90523184600BD10B504244FF4A6
:101450003020FFF7E7FF0446042C16D19C480069B2
:1014600040F004009A4908610846006940F04000D5
:1014700008614FF43020FFF7D5FF04469448006917
:1014800041F6FB71084092490861204610BD0020DA
:101490008F49C96901F0020109B1012000E0002073
:1014A000704730B5A5250424FFF7F1FF00B10025F2
:1014B0004FF43020FFF75DFF0446042C3AD18548F5
:1014C00083498860844888600846006940F02000AD
:1014D00008610846006940F0400008614FF4302080
:1014E000FFF747FF0446042C1BD17948006941F6F9
:1014F000DF710840764908610846006940F0100035
:10150000086176480580E002FFF733FF0446052CAA
:1015100010D06F48006941F6EF7108406C490861CE
:1015200008E0052C06D06A48006941F6EF710840D2
:1015300067490861204630BD78B506460C4604254B
:1015400000200090E802FFF714FF0546042D24D187
:101550005F48006940F001005D4908613480E8029D
:10156000FFF707FF0546042D10D1B01C0090200C9A
:1015700000990880E802FFF7FCFE05465448006920
:1015800041F6FE7108405249086106E05048006982
:1015900041F6FE7108404E490861284678BD70B595
:1015A00004460D460426F002FFF7E3FE0646042E2D
:1015B00011D14748006940F0010045490861258084
:1015C000F002FFF7D6FE06464148006941F6FE717B
:1015D00008403F490861304670BD70B505460E466B
:1015E0000424E002FFF7C5FE0446042C17D1394855
:1015F00037498860384888600846006940F0100024
:1016000008612E80E002FFF7B4FE0446052C06D0E8
:101610002F48006941F6EF7108402D4908612046C6
:1016200070BD2DE9F04304464FF6FF763746B046CD
:10163000B1460425E443E6B2C4F30727C4F30748E0
:101640004FEA1469E802FFF794FE0546042D49D1DC
:1016500020481F498860204888600846006940F09B
:1016600010000861FF2E06D01C4808300680E802F2
:10167000FFF77FFE0546042D08D1FF2F06D017483F
:101680000A300780E802FFF774FE0546042D0AD1F0
:10169000B8F1FF0F07D011480C30A0F80080E80225
:1016A000FFF767FE0546042D0AD1B9F1FF0F07D0F9
:1016B0000A480E30A0F80090E802FFF75AFE0546EF
:1016C000052D0FD00248006941F6EF71084007E090
:1016D0000020024023016745AB89EFCD00F8FF1FD2
:1016E000664908612846BDE8F08330B50546042404
:1016F0004FF43020FFF73DFE0446042C41D16048F2
:101700005E4988605F4888600846006940F02000B4
:1017100008610846006940F0400008614FF430203D
:10172000FFF727FE0446042C22D15448006941F6F5
:10173000DF710840514908610846006940F0100017
:1017400008611DB100205049088002E0A5204E49E3
:1017500008804FF43020FFF70CFE0446052C10D013
:101760004648006941F6EF7108404449086108E0C5
:10177000052C06D04148006941F6DF7108403F4919
:101780000861204630BDF0B505460E4617460424D4
:101790003B483A4988603B488860E002FFF7E9FD32
:1017A0000446042C19D13548006940F01000334933
:1017B000086147F0F800304328433349891C08800A
:1017C000E002FFF7D6FD0446052C06D02B48006941
:1017D00041F6EF710840294908612046F0BD2748CD
:1017E000C069800870472548006A70470020234977
:1017F000096801F0200109B1012000E000207047D4
:1018000029B11E4A126902431C4B1A6104E01B4AAB
:1018100012698243194B1A61704701460020012961
:1018200008D1164AD26902F001020AB1012008E08B
:10183000002006E0114AD2680A400AB1012000E007
:10184000002070470D49C860704704200B49C968E3
:1018500001F0010109B101200EE00849C96801F059
:10186000040109B1022007E00449C96801F0100130
:1018700009B1032000E0042070470000002002406E
:1018800023016745AB89EFCD00F8FF1F10B5044673
:10189000F748844209D101214805FFF76CF900217E
:1018A0004FF40010FFF767F908E001218805FFF702
:1018B00062F900214FF48000FFF75DF910BD2DE9BA
:1018C000F04385B004460D460026B1460427DFF8F4
:1018D000A483A6884FF6C07006406846FFF7B7F8A5
:1018E000DDF80880E448B8FBF0F01FFA80F946EA1A
:1018F0000906A68020884FF6FE7108402080002649
:10190000DE49286888420CD828684000B8FBF0F00F
:1019100087B2042F00DA04273E4309F10100208436
:1019200027E0E8884BF6FF71884206D1286800EB73
:101930004000B8FBF0F087B209E0286800EBC00176
:1019400001EB0010B8FBF0F087B247F48047C7F313
:101950000B0008B947F0010747F4004006434FF475
:10196000967009FB00F04FF47A7190FBF1F0401C87
:101970002084A683208840F00100208026884FF62E
:10198000F5300640A8886989084306432680A8895F
:1019900029890843208105B0BDE8F08341F28831F0
:1019A0000160002181804BF6FF71C180002101811F
:1019B00041814FF480418181704721B1028842F01A
:1019C0000102028004E002884FF6FE731A40028092
:1019D000704721B1828842F40062828004E08288EC
:1019E0004FF2FF731A408280704721B1828842F41F
:1019F0008052828004E082884EF6FF731A40828013
:101A0000704721B1028842F48072028004E00288AB
:101A10004FF6FF631A400280704721B1028842F4FA
:101A20000072028004E002884FF6FF531A400280E1
:101A3000704721B1028842F48062028004E002888B
:101A40004FF6FF331A40028070470A460021818911
:101A50004FF60173194002F0FE031943818170476C
:101A600021B1828942F00102828104E082894FF62D
:101A7000FE731A408281704721B1028842F0400211
:101A8000028004E002884FF6BF731A40028070475C
:101A90001AB183880B43838002E083888B43838061
:101AA0007047018270470146088AC0B2704712B180
:101AB00041F0010102E04FF6FE73194001827047C8
:101AC00008B502460020009000920098084400905B
:101AD0000098008808BD21B1028842F400420280CB
:101AE00003E00288C2F30E0202807047B1F5006F76
:101AF00004D1028842F40062028004E002884FF2BE
:101B0000FF731A4002807047B1F5005F04D102886C
:101B100042F40052028004E002884DF6FF731A403E
:101B20000280704721B1028842F48052028004E0B2
:101B300002884EF6FF731A4002807047B1F5006FBD
:101B400004D1028842F40062028004E002884FF26D
:101B5000FF731A400280704721B1028842F02002D0
:101B6000028004E002884FF6DF731A40028070475B
:101B70000146088B0012704721B1028842F0100222
:101B8000028004E002884FF6EF731A40028070472B
:101B900021B9028842F08002028004E002884FF6F8
:101BA0007F731A4002807047B1F5804F05D0828B59
:101BB0004BF6FF731A40828303E0828B42F480422B
:101BC0008283704770B50246002400250023002060
:101BD000958A138B1B0445EA030626F07F4404EA2A
:101BE00001068E4201D1012000E0002070BD10B539
:101BF00001460020002300228B8A0A8B120443EA4C
:101C0000020424F07F4010BD0CB5024600200023E2
:101C10000193009300920B0F019321F07F41019BF0
:101C20001BB1009B1433009303E0090C009B183395
:101C30000093009B1B680B400BB1012000E00020CB
:101C40000CBD002221F07F42D3438382704730B520
:101C5000024600200023948801F0E06504EA154361
:101C600021F07F41948A0C4054B14BB1012008E02F
:101C70000054004000127A0040420F00A08601008C
:101C8000002030BD002221F07F42D3438382704781
:101C900010B50446FA48844208D101214015FEF7E8
:101CA0005DFF00216015FEF759FF17E0F5488442FB
:101CB00008D101210015FEF751FF00212015FEF784
:101CC0004DFF0BE0F048844208D10121C803FEF724
:101CD00045FF00214FF40040FEF740FF10BD30B536
:101CE0000246002000235068E84C20400D790C6823
:101CF00044EA0524204350609068E54C2040D1E937
:101D000002542C434D7944EA450420439060D06A44
:101D100020F470000C7C641EE4B2234340EA0350BC
:101D2000D06230BD00210160017141718160C160EC
:101D300001210174704721B1826842F00102826082
:101D400003E0826822F001028260704721B182685C
:101D500042F48072826003E0826822F480728260C2
:101D6000704710B50023CBB21AB144681C434460DD
:101D700002E044689C43446010BD816841F0080162
:101D800081607047014600208A6802F008020AB1AB
:101D9000012000E000207047816841F0040181606B
:101DA0007047014600208A6802F004020AB101204F
:101DB00000E00020704721B1826842F4A0028260F6
:101DC00003E0826822F4A00282607047014600208E
:101DD0008A6802F480020AB1012000E00020704706
:101DE00010B50A4600210023416821F46041531ECA
:101DF00041EA4331416010BD21B1426842F40062C2
:101E0000426003E0426822F4006242607047F0B52D
:101E100004460D4600200021092D11DDE068A5F1E2
:101E20000A0606EB4607072606FA07F18843A5F1DE
:101E30000A0606EB460603FA06F10843E0600CE0EA
:101E4000206905EB4507072606FA07F1884305EBED
:101E5000450603FA06F108432061072A0FDA606B92
:101E6000561E06EB86071F2606FA07F18843561E04
:101E700006EB860605FA06F10843606322E00D2AA8
:101E80000FDA206BD61F06EB86071F2606FA07F12E
:101E90008843D61F06EB860605FA06F10843206341
:101EA00010E0E06AA2F10D0606EB86071F2606FA8F
:101EB00007F18843A2F10D0606EB860605FA06F146
:101EC0000843E062F0BD21B1826842F48012826072
:101ED00003E0826822F48012826070470146C86C79
:101EE00080B2704766484C300068704721B1426844
:101EF00042F48062426003E0426822F48062426001
:101F0000704721B1426842F48052426003E0426867
:101F100022F48052426070470A460021816821F411
:101F2000E04111438160704721B1826842F4004270
:101F3000826003E0826822F400428260704721B12F
:101F4000826842F40212826003E0826822F4021284
:101F500082607047014600208A6802F400120AB1CC
:101F6000012000E000207047F0B50446154600202F
:101F700000220026092911DDE068A1F10A0707EB1C
:101F8000470C072707FA0CF29043A1F10A0707EB69
:101F9000470703FA07F21043E0600CE0206901EB09
:101FA000410C072707FA0CF2904301EB410703FAB3
:101FB00007F210432061A06BC0F30156EF1C06F13D
:101FC000010CA7EB0C0707EB870C1F2707FA0CF295
:101FD0009043EF1C06F1010CA7EB0C0707EB8707FA
:101FE00001FA07F21043A063F0BD10B50A460021C4
:101FF0000023816B21F44011531E41EA0351816398
:1020000010BD08B5002300930090009B0B44009383
:10201000009B1A6008BD08B502460020009000929F
:1020200001F12800009B184400900098006880B2DD
:1020300008BD0A4600214168164B19401143416012
:1020400070474162826270470A460021416821F070
:102050001F0111434160704740B1094908310968C7
:1020600041F40001064A0832116007E004490831D2
:10207000096821F40001024A08321160704700002B
:102080000024014000280140003C0140FFFEF0FF19
:10209000FDF7F1FFFFFD3FFF0246002013680B40F4
:1020A0000BB1012000E000207047CA430260704776
:1020B00070B502460020002300240B125568CEB2F2
:1020C00005EA060415681D4015B10CB1012000E0B9
:1020D000002070BD00220A12D34303607047000045
:1020E00001684FF6FE7211400160002101604160FD
:1020F0008160C1608D49884208D18C49083949689E
:1021000041F00F01894A083A51608AE08749143149
:10211000884208D185490839496841F0F001834A6D
:10212000083A51607DE081492831884208D17F49D1
:102130000839496841F470617C4A083A516070E09E
:102140007A493C31884208D178490839496841F4D4
:102150007041764A083A516063E0744950318842D0
:1021600008D172490839496841F470216F4A083A28
:10217000516056E06D496431884208D16B49083995
:10218000496841F47001694A083A516049E0674979
:102190007831884208D165490839496841F0706151
:1021A000624A083A51603CE06149884206D1011F09
:1021B000096841F00F01021F116032E05C491431DF
:1021C000884208D15A49091F096841F0F001584A6C
:1021D000121F116025E056492831884208D1544920
:1021E000091F096841F47061514A121F116018E01B
:1021F0004F493C31884208D14D49091F096841F4D3
:1022000070414B4A121F11600BE04949503188421E
:1022100007D14749091F096841F47021444A121F38
:102220001160704710B50022026847F6F0739A43B8
:102230000C6A8B6823430C6923434C6923438C69E4
:102240002343CC6923434C6A23438C6A23431A43B8
:102250000260CB6843600B6883604B68C36010BD4D
:102260000021016041608160C16001614161816163
:10227000C161016241628162704721B1026842F02E
:102280000102026004E002684FF6FE731A40026029
:1022900070471AB103680B43036002E003688B4385
:1022A00003607047416070470146486880B27047DC
:1022B00001460020002201F080531BB11C4B083B5B
:1022C0001A6802E0194B083B1A6802EA01030BB1D5
:1022D000012000E00020704700F0805119B114493E
:1022E000091F086002E0114908394860704701463B
:1022F0000020002201F080531BB10D4B083B1A68EF
:1023000002E00A4B083B1A6802EA01030BB1012004
:1023100000E00020704700F0805119B10449091F06
:10232000086002E00149083948607047080002402F
:102330000804024010B50446BE48844208D1012179
:102340008014FEF70BFC0021A014FEF707FC16E03A
:10235000B948844208D101210014FEF70CFC002189
:102360002014FEF708FC0AE0B448844207D101219A
:10237000C013FEF700FC0021E013FEF7FCFB10BDCC
:1023800010B50022028802F441520B884C88234386
:102390008C882343CC8823430C8923434C892343D3
:1023A0008C892343CC8923431A430280838B4FF2C9
:1023B000FF74234083830B8A038210BD2DE9F04F05
:1023C00085B005460C464FF0000902274FF0000883
:1023D0004FF0010B0026B246A88B4FF24001084097
:1023E000A88302202884B5F81C90A068022801D197
:1023F00000BF38E0A08810B94FF0010B01E04FF0AA
:10240000020B8D48854200D100E000BF6846FEF710
:102410001EFBDDF800A0E088B0F5007F0AD14FEA8E
:102420001A2000EB80004000A168B0FBF1F0401DD5
:1024300086B20BE04FEA4B10BAFBF0F000EB8000E5
:102440004000A168B0FBF1F0401D86B20A20B6FB47
:10245000F0F606F00108A6EB0800C0F34F074FF6B0
:10246000FF7000EA0828022F01DBFF2F02DD0227A0
:102470004FF00008E08840EA080038432884A0882C
:10248000A1890843618808432188084340F400601B
:1024900040EA0909A5F81C9005B0BDE8F08F0021BD
:1024A000018041808180C180018141818181C18120
:1024B0000721018270470021018041808180C18015
:1024C0000221816000218181704721B1028842F0A0
:1024D0004002028004E002884FF6BF731A40028077
:1024E000704721B1828B42F48062828304E0828B48
:1024F0004FF6FF331A408283704730B50024002323
:102500000C110125A540ABB21AB185881D43858009
:1025100002E085889D43858030BD1AB183880B43D6
:10252000838002E083888B4383807047818170477A
:102530000146888970474FF6FF62914204D00288B5
:1025400042F48072028004E002884FF6FF631A4072
:102550000280704721B1828842F00402828004E048
:1025600082884FF6FB731A408280704702884FF2D0
:10257000FF731A40028002880A4302807047018874
:1025800041F480510180704721B1028842F4005229
:10259000028004E002884DF6FF731A400280704703
:1025A00002460020012901D0108B00E0908A70477C
:1025B0000146088A7047B1F5804F04D1028842F481
:1025C0008042028004E002884BF6FF731A400280CA
:1025D00070470246002013890B400BB1012000E038
:1025E00000207047CA4302817047F0B502460020C0
:1025F00000240023002501F00F070126BE40B4B2DD
:102600000B1101269E40B3B2968806EA030516898F
:10261000264016B10DB1012000E00020F0BD10B53C
:10262000002201F00F040123A3409AB2D343038197
:1026300010BD00000030014000380040003C004068
:1026400010B50446FE48844209D101214806FEF730
:1026500092FA00214FF00070FEF78DFA08E0012198
:102660008806FEF788FA00214FF08060FEF783FAB3
:1026700010BD30B5024600200023146824F0020487
:102680001460146844F00104146000E05B1C54689A
:1026900004F001041CB94FF6FF74A342F6D154684C
:1026A00004F001040CB900206CE08C79012C04D1F9
:1026B000146844F08004146003E0146824F080047B
:1026C0001460CC79012C04D1146844F040041460E7
:1026D00003E0146824F0400414600C7A012C04D147
:1026E000146844F02004146003E0146824F020040B
:1026F00014604C7A012C04D1146844F01004146066
:1027000003E0146824F0100414608C7A012C04D1C6
:10271000146844F00804146003E0146824F008040A
:102720001460CC7A012C04D1146844F004041460C1
:1027300003E0146824F0040414608C78A407CD78B6
:1027400044EA05640D7944EA05444D7944EA0554A8
:102750000D886D1E2C43D461146824F001041460AC
:10276000002300E05B1C546804F001041CB14FF628
:10277000FF74A342F6D1546804F001040CB10020A8
:1027800000E0012030BD10B50021837A012202FA59
:1027900003F1AC4A126842F00102AA4B1A60A94A3E
:1027A0001C3212688A43A74B1C331A60027BCAB9D9
:1027B000A44A0C3212688A43A24B0C331A60428836
:1027C000C38842EA03439F4A4032847A42F8343055
:1027D0000288838842EA03439A4A4032847A02EBB1
:1027E000C4025360027B012A19D1964A0C32126846
:1027F0000A43944B0C331A604288038842EA03432D
:10280000904A4032847A42F83430C288838842EA5F
:1028100003438C4A4032847A02EBC4025360C27A8A
:102820003AB9884A121D12688A43864B1B1D1A60EA
:1028300006E0844A121D12680A43824B1B1D1A606F
:10284000028932B97F4A143212688A437D4B1433AD
:102850001A600289012A06D17A4A143212680A43A0
:10286000784B14331A60427B012A06D1754A1C3218
:1028700012680A43734B1C331A60724A126822F0C2
:102880000102704B1A6010BD00218171C17101728B
:1028900041728172C1728170C17003210171022184
:1028A00041710121018070476649096841F00101C9
:1028B000644A11601146096843F60E729143614AF9
:1028C00011601146096841EA00211160114609684A
:1028D00021F001011160704721B1026842F4803299
:1028E000026003E0026822F4803202607047E1B1C6
:1028F000026842F0800202604FF4C272125842F441
:1029000080734FF4C27213504FF4CA72125842F4DB
:1029100080734FF4CA7213504FF4D272125842F4BB
:1029200080734FF4D27213501BE0026822F08002D1
:1029300002604FF4C272125822F480734FF4C272D4
:1029400013504FF4CA72125822F480734FF4CA72B3
:1029500013504FF4D272125822F480734FF4D27293
:102960001350704710B502460020936803F080634F
:10297000B3F1806F00D110E0936803F00063B3F10E
:10298000006F01D1012008E0936803F08053B3F198
:10299000805F01D1022000E00420042879D002F5F4
:1029A000C07303EB00131B6803F0010402F5C0734E
:1029B00003EB00131C600B7A7BB94B7A0C8843EA5B
:1029C000445302F5C07404EB00142468234302F559
:1029D000C07404EB0014236010E00B7A4C6843EAE7
:1029E000C4034C7A234302F5C07404EB001424683A
:1029F000234302F5C07404EB001423608B7A03F0C8
:102A00000F038B7202F5C07303EB00135B6823F0B6
:102A10000F0402F5C07303EB00135C6002F5C07392
:102A200003EB00135B688C7A234302F5C07404EB5C
:102A3000001463608B7B1C064B7B44EA034403E079
:102A400000640040006600400B7B44EA0323CC7A1C
:102A5000234302F5C07404EB0014A3608B7C1C06B6
:102A60004B7C44EA03440B7C44EA0323CC7B2343A2
:102A700002F5C07404EB0014E36002F5C07303EBCD
:102A800000131B6843F0010402F5C07303EB00134D
:102A90001C6010BD10B50246002321B1012907D0EA
:102AA00002290FD109E09068F94C00EA04030BE019
:102AB0009068F84C00EA040306E09068F64C00EADF
:102AC000040301E0002300BF00BFF44C181BA34225
:102AD00016D007DC83B16FF08060184470B1022813
:102AE00018D111E0B0F5007F10D0ED4C204448B172
:102AF000B0F5003F0ED10BE002230DE000230BE008
:102B0000002309E0002307E0012305E0012303E09F
:102B1000012301E0002300BF00BFD8B210BD21B1E6
:102B2000012907D002290FD109E0826842F0800212
:102B300082600AE0826842F40042826005E08268B6
:102B400042F40002826000E000BF00BF704710B591
:102B500000F5D87303EB01131B6803F00403137231
:102B6000137A53B900F5D87303EB01131B6840F2D5
:102B7000FF7404EA5353136009E000F5D87303EBC4
:102B800001131B686FF0604404EAD303536000F53F
:102B9000D87303EB01131B6803F00203537200F5B3
:102BA000D87303EB01135B6803F00F03937200F516
:102BB000D87303EB01135B681B0AD37400F5D87359
:102BC00003EB01139B68D37200F5D87303EB011379
:102BD0009B681C0A147300F5D87303EB01139B6800
:102BE0001C0C547300F5D87303EB01139B681B0E88
:102BF000937300F5D87303EB0113DB68D37300F50F
:102C0000D87303EB0113DB681C0A147400F5D87346
:102C100003EB0113DB681C0C547400F5D87303EB51
:102C20000113DB681B0E937421B9C36843F02003C2
:102C3000C36003E0036943F02003036110BD21B9C1
:102C4000C26842F02002C26003E0026942F0200242
:102C5000026170470246002019B9D36803F00300EF
:102C600006E0012903D1136903F0030000E000200E
:102C7000704710B502460B4600204FF6FF71BBB9F6
:102C8000146824F0020444F00104146000E0491EBA
:102C9000546804F00304012C01D00029F7D15468D2
:102CA00004F00304012C01D0002032E0012030E0C8
:102CB000012B13D1146824F00304146000E0491EB2
:102CC000546804F003040CB10029F8D1546804F0EE
:102CD00003040CB100201CE001201AE0022B17D1E4
:102CE000146824F0010444F00204146000E0491E5A
:102CF000546804F00304022C01D00029F7D1546871
:102D000004F00304022C01D0002002E0012000E0C6
:102D1000002010BD014600200A6822F0010242F0A6
:102D200002020A604A6802F00302022A00D101206E
:102D3000704701464FF6FF7200200B6823F0020334
:102D40000B6000E0521E4B6803F00203022B01D11E
:102D5000002AF7D14B6803F00203022B00D00120B8
:102D60007047014600208A6902F0700070470146F2
:102D700000208A69100E7047014600208A69C2F35C
:102D8000074070471AB143690B43436102E043694E
:102D90008B434361704710B50246002001F4700375
:102DA00043B19369C1F3130423400BB101202DE01B
:102DB00000202BE001F0807343B15368C1F313048A
:102DC00023400BB1012021E000201FE001F000634F
:102DD00043B19368C1F3130423400BB1012015E004
:102DE000002013E001F0007343B1D368C1F3130472
:102DF00023400BB1012009E0002007E01369C1F373
:102E0000130423400BB1012000E0002010BD00227C
:102E1000244B994202D10023836111E0C1F31302D4
:102E200001F000730BB1C2600AE001F080630BB1E6
:102E3000026105E001F000630BB1826000E04260D6
:102E400070470246002002EA01030BB1012000E0B6
:102E50000020704770B504460D4600266069284082
:102E6000002872D0B5F5807F69D01DDC082D42D0D6
:102E700006DC012D2DD0022D31D0042D7FD134E080
:102E8000102D3ED0202D42D0402D78D145E00000BD
:102E90000300000400030008000003100001000804
:102EA0000001FFF77000F030B5F5004F61D009DC8C
:102EB000B5F5007F4AD0B5F5806F4DD0B5F5006F00
:102EC0005DD150E0B5F5803F2DD0B5F5003F56D12E
:102ED0002FE0A0685549FFF7B4FF064651E0E068CF
:102EE0000321FFF7AEFF06464BE0E0680821FFF73D
:102EF000A8FF064645E0E0681021FFF7A2FF06465E
:102F00003FE020690321FFF79CFF064639E0206976
:102F10000821FFF796FF064633E020691021FFF7EE
:102F200090FF06462DE060680821FFF78AFF0646FD
:102F300027E060681021FFF784FF064621E0A069C2
:102F40000121FFF77EFF06461BE01BE0A06902217E
:102F5000FFF777FF064614E0A0690421FFF771FF31
:102F600006460EE00BE0A0697021FFF76AFF0646F7
:102F700007E060680421FFF764FF064601E00026D1
:102F800000BF00E00026304670BDB1F5007F3AD0AA
:102F90000FDC202928D006DC01291CD004291DD0F3
:102FA000082940D11DE0402921D0B1F5807F3AD1D8
:102FB00026E0B1F5004F31D006DCB1F5806F25D0A9
:102FC000B1F5006F2FD124E0B1F5803F12D0B1F5FB
:102FD000003F28D111E0154A826025E00822C26036
:102FE00022E01022C2601FE0082202611CE01022D1
:102FF000026119E00822426016E01022426013E0EC
:103000000422426010E0042242600DE0042242608B
:103010000AE0002282610422426005E0002282610F
:103020000422426000E000BF00BF704701010100C0
:103030000948804709480047FEE7FEE7FEE7FEE74C
:10304000FEE7FEE7FEE7FEE7FEE7FEE70448054988
:10305000054A064B7047000013030008ED00000806
:1030600078020020780800207804002078040020EE
:1030700008B50420ADF8000048208DF8030069462B
:10308000FE48FDF795FA4FF40040ADF8000010201F
:103090008DF8030003208DF802006946F848FDF71B
:1030A00087FA08BD94B04FF001084FF000094FF0C7
:1030B000000A01F04BFA00F0B5FE01F0DFFF01F06D
:1030C00006FE02F047FD01F0ABFC01F0BDFC4FF441
:1030D000E13001F0ADFA01F041FC01F0FDFF01F03B
:1030E000D0F901F028F801F007FDE6A1002001F079
:1030F00063FDE9A1032001F05FFDECA1052001F0D3
:103100005BFD02F05CFC012001F03BFC012001F0C2
:1031100045FC032001F0CBFF4FF4FA7000F042FEB3
:10312000022001F0C4FF4FF4FA7000F03BFE0120D2
:1031300001F0BDFF4FF4FA7000F034FE002001F002
:10314000B6FF4FF4FA7000F02DFE002001F019FCDC
:10315000002001F023FCCBA1002001F02DFDD8A11F
:10316000022001F029FDDBA1042001F025FDDEA1F4
:10317000062001F021FD0024FFF77AFFBFE3002CB9
:103180007ED10122D103BE48FDF7C3FA642000F0CE
:1031900009FE00224FF40041B948FDF7BAFA01F0E8
:1031A00019FC834601F0EDFB01F026FC834601F09B
:1031B000F5FB03A801F024FD9DF80C0020B12D22A1
:1031C0003821062001F0ADFC9DF80D000A2190FB8E
:1031D000F1F030301FFA80FB5A464021062001F002
:1031E000A0FC9DF80D000A2190FBF1F201FB1200FA
:1031F00030301FFA80FB5A464821062001F091FC2E
:103200002E225021062001F08CFC9DF80E000A2190
:1032100090FBF1F030301FFA80FB5A46582106200F
:1032200001F07FFC9DF80E000A2190FBF1F201FBFA
:10323000120030301FFA80FB5A466021062001F050
:1032400070FC43226821062001F06BFCAB4800882B
:103250004FF47A7190FBF1F030301FFA80FB5A4640
:103260001821022001F05DFCA44800884FF47A7117
:1032700090FBF1F201FB1200642190FBF1F000E001
:10328000D2E130301FFA80FB5A462021022001F0A3
:1032900048FC9A480088642190FBF1F201FB12007F
:1032A0000A2190FBF1F030301FFA80FB5A462821AA
:1032B000022001F036FC914800880A2190FBF1F2CF
:1032C00001FB120030301FFA80FB5A4630210220E9
:1032D00001F027FC894840884FF47A7190FBF1F0A7
:1032E00030301FFA80FB5A466021022001F019FCA1
:1032F000824840884FF47A7190FBF1F201FB120092
:10330000642190FBF1F030301FFA80FB5A466821AF
:10331000022001F006FC79484088642190FBF1F21C
:1033200001FB12000A2190FBF1F030301FFA80FB04
:103330005A467021022001F0F4FB704840880A21AF
:1033400090FBF1F201FB120030301FFA80FB5A466D
:103350007821022001F0E5FB684880884FF47A71FB
:1033600090FBF1F030301FFA80FB5A461821042000
:1033700001F0D7FB614880884FF47A7190FBF1F23D
:1033800001FB1200642190FBF1F030301FFA80FB4A
:103390005A462021042001F0C4FB5848808864214B
:1033A00090FBF1F201FB12000A2190FBF1F03030AA
:1033B0001FFA80FB5A462821042001F0B2FB4F4837
:1033C00080880A2190FBF1F201FB120030301FFAD5
:1033D00080FB5A463021042001F0A3FB4748C088F7
:1033E0004FF47A7190FBF1F030301FFA80FB5A46AF
:1033F0006021042001F095FB4048C0884FF47A71A9
:1034000090FBF1F201FB1200642190FBF1F03030EF
:103410001FFA80FB5A466821042001F082FB3748DE
:10342000C088642190FBF1F201FB12000A2190FB9D
:10343000F1F030301FFA80FB5A467021042001F071
:1034400070FB2E48C0880A2190FBF1F201FB1200AC
:1034500030301FFA80FB5A467821042001F061FBCE
:1034600000F0C4FD00287CD1254800780A2190FB9B
:10347000F1F000F0FF0B5946002043E0000C014042
:1034800000080140202020596F756E6754616C6BF5
:1034900020202020000000002020414C4C205445DA
:1034A00053542050312020200000000020202020F4
:1034B000202020202020202020202020000000008C
:1034C00041343A30303030202041353A30303030DD
:1034D0000000000041363A30303030202041373A89
:1034E0003030303000000000202054656D703A20EC
:1034F000202020202020202000000000320000207A
:103500002B00002002F05FFBFD4800780A2190FBB1
:10351000F1F201FB12000A3000F0FF0B59460120C6
:1035200002F051FBF74800780A2190FBF1F000F01F
:10353000FF0B5946022002F046FBF24800780A21B0
:1035400090FBF1F201FB12000A3000F0FF0B59462C
:10355000032002F038FBEC4800780A2190FBF1F0E0
:1035600000E037E000F0FF0B5946042002F02BFB8F
:10357000E54800780A2190FBF1F201FB12000A30C5
:1035800000F0FF0B5946052002F01DFBDF480078D4
:103590000A2190FBF1F000F0FF0B5946062002F0E3
:1035A00012FBDA4800780A2190FBF1F201FB1200CD
:1035B00000F0FF0B5946072002F005FB404602F0E1
:1035C000F5FA4FEA48604FEA1068B8F1000F01D1F0
:1035D0004FF001080421CE48FDF77DF820B95922AB
:1035E0000021084601F09DFA01F082FD012804D176
:1035F00041220021084601F094FA01F079FD0228E9
:1036000004D142220021084601F08BFA01F070FD3E
:10361000042804D143220021084601F082FA01F077
:1036200067FD082800D10224022C15D101F09AFD73
:1036300001F00AFAAFF2B411002001F0BDFAB5A111
:10364000022001F0B9FAB8A1042001F0B5FABBA13B
:10365000062001F0B1FA0324032C6FD10121BC48EC
:10366000FDF739F878B10221B948FDF734F850B1C7
:103670000421B748FDF72FF828B10821B448FDF719
:103680002AF8002841D1142000F08CFB0121B04819
:10369000FDF721F868B902F0A8F9AEA1062001F003
:1036A0008BFA4FF4FA7000F07DFBAFA1062001F019
:1036B00083FA0221A648FDF70EF868B902F09AF9DC
:1036C000AEA1062001F078FA4FF4FA7000F06AFB20
:1036D000A5A1062001F070FA00BF01219C48FCF76B
:1036E000FAFF0028F9D002219948FCF7F4FF0028DE
:1036F000F3D004219648FCF7EEFF0028EDD0082116
:103700009348FCF7E8FF0028E7D001F041FD0746A9
:10371000012F01D102F073F9022F01D102F074F9E7
:10372000032F17D1B9F1000F09D14FF0010902F0B1
:1037300052F98DA1062001F03FFA0BE024E0B9F127
:10374000010F07D14FF0000902F04AF990A10620BD
:1037500001F032FA93480088012809D14FF000099E
:1037600091A1062001F028FA00208E49088006E089
:103770008C480088022802D100208A49088001F084
:10378000B7FC082800D10424042C13D101F05CF903
:10379000AFF21031002001F00FFA88A1022001F0F1
:1037A0000BFA8BA1042001F007FA8EA1062001F08C
:1037B00003FA0524052C07D1022001F037FB01F0A4
:1037C00097FC012800D10624062C23D101F03CF9F6
:1037D000AFF25031002001F0EFF987A1022001F093
:1037E000EBF98AA1042001F0E7F954A1062001F0C9
:1037F000E3F900206B49088002F02AFA4FF4E13027
:1038000000F0CDFF60036749088002F01FFB07242A
:1038100001260125072C70D101214D48FCF75BFFE3
:10382000A8B929467EA002F026FB681CC5B201207B
:1038300001F0A7F8642000F0B5FA002001F0A1F82B
:1038400000BF01214248FCF746FF0028F9D00221C1
:103850003F48FCF740FFB8B98DF80460012101A88A
:1038600002F055FA701CC6B2012001F08AF86420FB
:1038700000F098FA002001F084F800BF02213448DB
:10388000FCF729FF0028F9D001A802F074FA82465B
:10389000BAF1000F1BD09DF804000A2190FBF1F053
:1038A00030301FFA80FB5A464821042001F039F9D4
:1038B0009DF804000A2190FBF1F201FB1200303068
:1038C0001FFA80FB5A465021042001F02AF935489E
:1038D000008898B1334800880A2190FBF1F030301D
:1038E0001FFA80FB5A466821022001F01AF92D4880
:1038F00000880A2190FBF1F294E0A5E09FE08FE1BF
:103900002B0000202C0000202D0000202E00002085
:10391000000C014020544553543A20656E636F6497
:1039200065722020000000002020204D50332050E0
:103930004C41592020202020000000002020202081
:10394000443A4E45585420202020202000000000FA
:103950000008014020202D2D2050524556202D2DAD
:10396000202020200000000020202D2D20504C4140
:1039700059202D2D202020200000000020202D2D5A
:10398000204E455854202D2D2020202000000000DE
:1039900020202D2D205041555345202D2D20202015
:1039A000000000004200002020202D2D2053544F05
:1039B00050202D2D2020202000000000202020203D
:1039C00020544553543A202020202020000000009D
:1039D000202020737465705F6D6F746F72202020DB
:1039E0000000000020202020413A4E45585420205D
:1039F0002020202000000000413A52533233322F61
:103A0000343835202020202000000000423A434175
:103A10004E202020202020202020202000000000F8
:103A20002578000001FB120030301FFA80FB5A4657
:103A30007021022001F075F800207A49088001F019
:103A400057FB082800D10824082C79D100F0FCFF8E
:103A5000AFF2D051002001F0AFF8AFF2B051022028
:103A600001F0AAF870A1042001F0A6F873A10620C5
:103A700001F0A2F800F002FF75A002F04FFA6420F6
:103A800000F090F901F04BFC0646314672A002F0BE
:103A900045FA74A002F042FA02E0642000F082F9D4
:103AA00001F0C4FD1428F8D1C82000F07BF90025EE
:103AB00017E0322000F076F96DA002F02FFA01F045
:103AC000BFFD0646142E00D10DE0822E00D10AE083
:103AD00001F08CFD032802DB052D00DB03E0681CF0
:103AE000C5B2642DE5DB00BF822E02D163A002F0D7
:103AF00015FA01F07BFD032802DA64A002F00EFA49
:103B0000674801F03DFC0546242D06D1002064499C
:103B10004855083163A002F001FA66A002F0FEF9F0
:103B20005F4801F0EBFE0646314665A002F0F6F96B
:103B30005B48006840F2A171B0FBF1FB594600E020
:103B400053E062A002F0EAF965A002F0E7F968A18B
:103B500004A802F089FB04A801F0F7FD06463146EF
:103B600057A002F0DBF966A002F0D8F967A14C4833
:103B700002F07AFB4A4802F09BFB1FFA80FB00220E
:103B80005946474801F076FE0646314661A002F0EC
:103B9000C5F963A002F0C2F9012001F015FE064646
:103BA000314647A002F0BAF960A002F0B7F902E08E
:103BB000642000F0F7F801F039FD1428F8D000F087
:103BC00043FFAFF24071002000F0F6FFAFF2247126
:103BD000022000F0F1FF58A1042000F0EDFFAFF249
:103BE0003471062000F0E8FF0924092C18D1AFF247
:103BF0006C71002000F0E0FFAFF24021022000F0E5
:103C0000DBFF52A1042000F0D7FFAFF26071062065
:103C100000F0D2FF00F018FF00F016FF00F014FFD4
:103C2000FFF7ADBA42000020202055204449534BF5
:103C30002054455354202020000000002020202044
:103C400050555420494E2121202020200000000002
:103C500053746172740D0A00693D25303278200D6D
:103C60000A00000057616974204469736B0D0A00F3
:103C70005265616479203F0D0A0000004465766951
:103C8000636520676F6E650D0A000000556E6B6EF0
:103C90006F776E206465766963650D0A0000000029
:103CA00048000020556469736B496E666F3A2025A1
:103CB000730D0A004469736B51756572793A20007F
:103CC000733D25303278200D0A000000667265656C
:103CD00020636170203D20256C64204D420A000065
:103CE0004372656174652066696C65203A00000066
:103CF0005C596F756E6754616C6B2E54585400009C
:103D0000577269746520A3BA0000000020204F4B51
:103D100020200000733D25303278200A000000008A
:103D2000636C6F73652066696C65200054616B6518
:103D3000206F75740A00000020202055204449534C
:103D40004B204F4B21202020000000002020524516
:103D500053455420427574746F6E2020000000009B
:103D6000704700BFFEE700BFFEE700BFFEE700BFF1
:103D7000FEE7704770477047704700EBC001C9000D
:103D80004FF0E02251610521116100BF4FF0E021A9
:103D9000096901F480310029F8D004214FF0E022B4
:103DA0001161704700B5034603E04FF47A70FFF7E6
:103DB000E4FF181EA3F101018BB2F6D100BD10B5CE
:103DC000044603E04FF47A70FFF7ECFF201EA4F1E5
:103DD00001018CB2F6D110BD10B501214FF0C050D9
:103DE000FCF7AFFE0120FDF774F9FDF705F901209E
:103DF000FCF707FE00BF4120FCF76BFD0028FAD05E
:103E00004FF48070FCF719FE0120FCF71CFEFDF753
:103E100020FAFDF715FA47F6FF70FDF7EBF9FDF70D
:103E20000FFA10BD10B50420FDF71BF94AF2A55199
:103E3000884207D0FFF7D0FF4AF2A5510420FDF7D2
:103E400004F90DE07B20FCF744FD10B97A20FCF763
:103E500040FDFCF7A7FE0120FCF7F5FDFDF7F9F9A1
:103E600010BD10B50120FDF719FA0120FDF726FA63
:103E7000FDF7E6F910BD10B50220FDF70FFA02209C
:103E8000FDF71CFAFDF7DCF910BD0146CA1701EB7E
:103E900092729210A1EB820292B9642091FBF0F22F
:103EA00000FB121050B94FF4C87091FBF0F200FB08
:103EB000121008B9012070470020FCE70120FAE742
:103EC0000020F8E72DE9F05F06460F469046994638
:103ED000DDE90AAB0024B6F5FA6F03DB40F63300E8
:103EE000864202DD0120BDE8F09F40F2B2750AE093
:103EF0002846FFF7CAFF10B17A48044401E07A4827
:103F00000444681C85B2B542F2DB781EC7B20025B6
:103F100010E07648405D40F2A321484304EBC01412
:103F20003046FFF7B2FF18B1012D01D170480444AB
:103F3000681C85B2BD42ECDBA8F1010040F2A32170
:103F4000484304EBC014C9EB4910C0EB092004EB53
:103F50000014CAEB0A1004EB80045C44FFF73CFF3A
:103F60004AF2A5510420FDF770F82046FDF735F917
:103F7000FDF766F90020B6E7F0B503460C46154696
:103F8000642093FBF0F0C6B2642093FBF0F700FBD3
:103F90001730C1B2132E02DD01F16400C1B2084630
:103FA000CF1701EB977701EBA707BAB2072092FB77
:103FB000F0F700FB172082B25719601EDFF834C1FA
:103FC0001CF80000384482B2CF1701EB9777BF107E
:103FD000A1EB87071FB9032C01DA501E82B207201C
:103FE00092FBF0F700FB1720C0B2F0BD70B50026C1
:103FF00000240025FDF7E8F806463D48B6FBF0F43E
:104000003D480088A0423DD03B490C8040F2B2754B
:1040100010E02846FFF739FF40B1B4F5B77F02D36F
:10402000A4F5B77404E0681C85B206E0A4F26D1430
:10403000681C85B2B4F5B67FEBD800BF2F48058069
:10404000002516E02D480088FFF71FFF30B1012D35
:1040500004D11D2C01D31D3C09E00CE02348405D38
:10406000A04203D82148405D241A00E003E0681C08
:1040700085B21C2CE6D200BF681C21490870601C68
:10408000204908701A48B6FBF0F100FB11644FF4A8
:104090006160B4FBF0F01C4908704FF46160B4FB40
:1040A000F0F100FB11403C21B0FBF1F01749087022
:1040B0004FF46160B4FBF0F100FB11403C21B0FB18
:1040C000F1F201FB1200124908700E4802780C4808
:1040D00001780A480088FFF74FFF0E49087000205A
:1040E00070BD00000085E2018033E1014C760008DC
:1040F0008051010040760008300000202800002098
:104100002A0000202B0000202C0000202D00002081
:104110002E0000202F00002008B5C020ADF80000C0
:104120001C208DF8030003208DF802006946B34877
:10413000FCF73EFA08BD1FB501214805FCF701FD5B
:10414000FFF7EAFF0020ADF804004BF6FF70ADF872
:104150000600C020ADF808004FF48060ADF80A00FA
:104160000001ADF80C00A64800906946A548FDF78F
:10417000A6FB0121A348FDF720FC1FBD2DE9F0415E
:1041800005460F4614461E4601219E48FDF739FCA0
:1041900000BF9D499B48FDF715FD0028F9D000227E
:1041A00029469848FDF783FC00BF98499548FDF7DC
:1041B00009FD0028F9D039469248FDF772FC00BF8E
:1041C0009249891C8F48FDF7FDFC0028F8D00CE0CF
:1041D00021788C48FDF765FC641C00BF8B49891C65
:1041E0008848FDF7EFFC0028F8D0301EA6F1010149
:1041F0008EB2EDD101218348FDF70FFCBDE8F081BF
:1042000070B504460E46154601217E48FDF7F9FBC0
:1042100000BF7D497B48FDF7D5FC0028F9D000227E
:1042200021467848FDF743FC00BF78497548FDF703
:10423000C9FC0028F9D031467248FDF732FC00BFB6
:104240007249891C6F48FDF7BDFC0028F8D029464B
:104250006C48FDF726FC00BF6C49891C6948FDF7D6
:10426000B1FC0028F8D001216648FDF7D6FB70BDEF
:104270002DE9F04106460F4615461C4600BF4FF497
:1042800000316048FDF7C0FC0028F8D101215D48ED
:10429000FDF7B7FB00BF5C495A48FDF793FC0028C7
:1042A000F9D0002231465748FDF701FC00BF5749BD
:1042B0005448FDF787FC0028F9D001215148FDF74B
:1042C0007CFB39464F48FDF7ECFB00BF4F49891C8A
:1042D0004C48FDF777FC0028F8D001214948FDF74C
:1042E00090FB00BF48494748FDF76CFC0028F9D017
:1042F000012231464348FDF7DAFB00BF4249491C21
:104300004048FDF75FFC0028F8D016E0012C07D1EB
:1043100000213C48FDF78DFB01213A48FDF77DFB6C
:1043200039493F313748FDF74DFC30B13548FDF78D
:10433000BAFB28706D1C601E84B2002CE6D10121EE
:104340003048FDF776FBBDE8F08170B504460D46B8
:1043500000BF4FF400312B48FDF756FC0028F8D180
:1043600001212848FDF74DFB00BF27492548FDF7EF
:1043700029FC0028F9D0002221462248FDF797FBAE
:1043800000BF22491F48FDF71DFC0028F9D001217C
:104390001C48FDF712FB29461A48FDF782FB00BFB7
:1043A0001A49891C1748FDF70DFC0028F8D0012197
:1043B0001448FDF726FB00BF13491248FDF702FC25
:1043C0000028F9D0012221460E48FDF770FB00BFFE
:1043D0000D49491C0B48FDF7F5FB0028F8D00021DA
:1043E0000848FDF726FB01210648FDF716FB0548A6
:1043F000FDF759FB0646304670BD0000000C014039
:10440000A086010000540040010003008200070064
:1044100000B58BB04948FDF763FE49480090494814
:10442000019000200290042003900020049080203E
:104430000590400006908000079020200890000220
:10444000099000200A9069463C48FDF7EBFE0121E7
:104450003A48FDF712FF0BB000BD08B5F020ADF8EB
:10446000000000208DF8030069463748FCF7A0F8EB
:1044700001210846FCF74BFB01214802FCF754FBE5
:1044800008BD00B585B0FFF7E8FFFFF7C1FF0020CA
:10449000009001208DF804008DF805004FF4602095
:1044A00002900020039004208DF8100069462448F3
:1044B0004C38FDF714FC03230122042120484C381A
:1044C000FDF7A5FC0323022205211D484C38FDF70A
:1044D0009EFC03231A46062119484C38FDF797FC29
:1044E00003230422072116484C38FDF790FC0121D4
:1044F00013484C38FDF72AFC012111484C38FDF7D0
:104500001AFC0F484C38FDF738FC00BF0C484C38FB
:10451000FDF738FC0028F9D109484C38FDF73CFC80
:1045200000BF07484C38FDF73CFC0028F9D10121B9
:1045300003484C38FDF73FFC05B000BD08000240C1
:104540004C240140320000200008014010B5FCF767
:104550007DF94FF48030FCF799F9FCF7D6F9044661
:10456000012C24D14FF4E0110004FCF7F7F90020EE
:10457000FCF711FAA002FCF717FA0020FCF71DFA6D
:104580000220FCF7A5FE1020FCF7B6FE0120FCF788
:10459000F1F900BF3920FCF79CF90028FAD002207D
:1045A000FCF7EBF900BFFCF7F1F90828FBD101217A
:1045B0007C20FCF7B9FA01210846FCF7B5FA10BDDA
:1045C000014600BF704700BFA44A128802F04002B3
:1045D000002AF9D0C2B2A14B1B1D1A8070470FB43C
:1045E00010B5B4B0002437A80090C92101A8009BE1
:1045F000369A01F079FC0EE02046621CD4B201AA82
:10460000115C9648FCF730FC00BF40219348FCF752
:1046100099FC0028F9D0C82C04DA01A801F048FE62
:10462000A042E9D80020009034B010BC5DF814FB23
:1046300010B586B00446012144F20400FCF774FA78
:104640004FF40070ADF8140003208DF81600182008
:104650008DF8170005A98248FBF7AAFF4FF4806088
:10466000ADF8140004208DF8170005A97C48FBF76D
:104670009FFF25208DF8000003208DF801008DF8A4
:10468000020001208DF803006846FBF7C8FE019484
:104690000020ADF80800ADF80A00ADF80C00ADF848
:1046A00010000C20ADF80E0001A96C48FCF7E3FAED
:1046B000012240F225516948FCF775FB012167484A
:1046C000FCF765FB06B010BD10B540F225516348FC
:1046D000FCF74EFC002838D06048FCF7C9FBC4B298
:1046E000214660A001F01AFC5F48008800F40040F9
:1046F00058BB5D48008800F4804060B10A2C03D0AC
:1047000000205949088020E05748008840F40040C4
:104710005549088019E00D2C06D15348008840F413
:1047200080405149088010E04F480088C0F30D00D8
:104730004E490C544C480088401C4B4908800846A0
:104740000088C72801DD0020088010BD0FB410B517
:10475000B4B0002437A80090C92101A8009B369A64
:1047600001F0C2FB0EE02046621CD4B201AA115C2B
:104770003F48FCF779FB00BF40213D48FCF7E2FBD6
:104780000028F9D0C82C04DA01A801F091FDA0425C
:10479000E9D80020009034B010BC5DF814FB10B5CF
:1047A00086B0044601210820FCF7BEF901218804E7
:1047B000FCF7C7F94FF40060ADF8140004208DF841
:1047C000170005A92B48FBF7F3FE4FF48060ADF806
:1047D000140003208DF8160018208DF8170005A985
:1047E0002448FBF7E5FE01940020ADF80800ADF881
:1047F0000A00ADF80C00ADF810000C20ADF80E006A
:1048000001A91B48FCF737FA012240F2255118484C
:10481000FCF7C9FA01211648FCF7B9FA4FF4E06039
:10482000FBF7F8FD27208DF8000000208DF802002E
:1048300001208DF803006846FBF7F1FD06B010BDBE
:1048400010B540F225510A48FCF792FB28B1084800
:10485000FCF70EFBC4B20848048010BD00380140CC
:10486000000801402563000040000020880000206F
:1048700000480040000C01404200002000B587B015
:1048800001218803FCF75DF94FF48040ADF8040086
:1048900004208DF8070001A92E48FBF789FE4FF48C
:1048A0002040ADF8040003208DF8060018208DF894
:1048B000070001A92748FBF77BFE4FF48050ADF8B5
:1048C000040003208DF8060010208DF8070001A9D0
:1048D0002048FBF76DFE0020ADF808004FF4827011
:1048E000ADF80A000020ADF80C000220ADF80E0073
:1048F0000120ADF810004002ADF812003820ADF8EC
:1049000014000020ADF816000720ADF8180002A929
:104910001148FDF735FD01210F48FDF7D6FD07B021
:1049200000BD10B5044600BF02210B48FDF751FE43
:104930000028F9D021460848FDF7F8FD00BF012105
:104940000548FDF746FE0028F9D00348FDF7F0FDC5
:10495000C0B210BD000C01400038004008B5032073
:10496000ADF8000010208DF8030003208DF8020040
:1049700069461148FBF71CFE03210F48FBF7C7FEF1
:1049800008BD10B5044624B101210B48FBF7BDFE5C
:1049900003E001210848FBF7BAFE10BD10B504463C
:1049A00024B102210448FBF7B0FE03E002210248D3
:1049B000FBF7ADFE10BD0000000C014008B5032060
:1049C000ADF8000048208DF8030069461348FBF756
:1049D000EFFD08BD10B501211048FBF77CFE48B97A
:1049E0001420FFF7DFF901210C48FBF774FE08B92A
:1049F000012010BD0020FCE710B502210748FBF79D
:104A00006AFE48B91420FFF7CDF902210348FBF7ED
:104A100062FE08B9012010BD0020FCE7000801403B
:104A200008B52020ADF8000010208DF80300032009
:104A30008DF8020069461148FBF7BAFD01222021DA
:104A40000E48FBF766FE08BD10B5002413E00022F7
:104A500020210A48FBF75DFE4FF4FA70FFF78DF94D
:104A6000012220210548FBF754FE4FF4FA70FFF7AE
:104A700084F9601C84B2C82CE9DB10BD000C014035
:104A800000B587B01C2255A1684601F030FC1C23FC
:104A90006A4600217820FFF771FB07B000BD70B5B2
:104AA000B0241BE0224600217820FFF7A9FB10224A
:104AB00000217820FFF7A4FB002211467820FFF7A1
:104AC0009FFB002506E0002240217820FFF798FB9D
:104AD000681CC5B2842DF6DB601CC4B2B82CE1DBC7
:104AE00070BD08B544A00068009003236A46002109
:104AF0007820FFF743FB08BD10B5FFF7F2FFFFF783
:104B0000CEFFFFF7BDFF10BD10B504468122002186
:104B10007820FFF775FB224600217820FFF770FB15
:104B200010BD2DE9F04705460C4616464FF0000A29
:104B3000A01CC4B2D1463AE005F1B000C2B20021D7
:104B40007820FFF75DFB2746E01704EB107000119B
:104B50001030C2B200217820FFF752FBE01704EBBF
:104B600010700011A4EB0010C2B200217820FFF7F2
:104B700047FB4FF0000811E00AEB0610A0F50070AB
:104B80001E490A5C40217820FFF73AFB0AF1010038
:104B900000F0FF0A08F1010000F0FF08B8F1080F6B
:104BA000EADB681CC5B209F1010000F0FF09B9F1A8
:104BB000020FC1DBBDE8F08770B506460C46002544
:104BC00008E014F8012BE806010E3046FFF7A9FFB4
:104BD000681CC5B220780028F3D170BDAE0010D596
:104BE00080A83FD300B0408D14A1C8DA1281FFD94C
:104BF000F1DB302000A4A6AFAE8D1000587600087F
:104C0000F8B506460024002502236A4600219E20AE
:104C1000FFF72EFB9DF800400020307004F080006C
:104C200028B101203070E043C4B2601CC4B204F06B
:104C3000010008B1681CC5B204F0020008B1A81C4C
:104C4000C5B204F0040008B1281DC5B204F0080084
:104C500010B105F10800C5B204F0100010B105F163
:104C60001000C5B204F0200010B105F12000C5B25B
:104C700004F0400010B105F14000C5B2761C35705B
:104C800000259DF8014004F0200010B105F10C0052
:104C9000C5B204F0400010B105F11900C5B204F02E
:104CA000800010B105F13200C5B2761C3570F8BD38
:104CB00010B5012211469E20FFF7A2FA10BD000098
:104CC00010B54FF44671EC48FBF721FD10BD08B557
:104CD0004FF44670ADF8000010208DF8030003205B
:104CE0008DF802006946E448FBF762FCFFF7E8FF35
:104CF00008BD10B504464FF48471DF48FBF707FD8B
:104D00004FF40471DC48FBF700FD2046FFF74AF83A
:104D10004FF44671D848FBF7FAFC2046FFF742F8FB
:104D20004FF40471D448FBF7F2FC4FF48471D2487D
:104D3000FBF7EBFC2046FFF735F84FF44671CE4801
:104D4000FBF7E5FC2046FFF72DF8FFF7B9FF10BD94
:104D500010B504464FF44071C748FBF7D8FC182142
:104D6000C548FBF7D2FC2046FFF71CF84FF4027150
:104D7000C148FBF7CCFC4FF48871BF48FBF7C5FC7A
:104D80002046FFF70FF81821BB48FBF7C0FC4FF493
:104D90004071B948FBF7B9FC2046FFF703F84FF420
:104DA0008871B548FBF7B3FC4FF40271B248FBF7CA
:104DB000ACFC2046FEF7F6FFFFF782FF10BD10B5F2
:104DC00004461821AC48FBF7A2FC4FF44071AA48F6
:104DD000FBF79BFC2046FEF7E5FF4FF40271A64867
:104DE000FBF795FC4FF48871A348FBF78EFC204637
:104DF000FEF7D8FF4FF440719F48FBF788FC18215D
:104E00009D48FBF782FC2046FEF7CCFF4FF48871EB
:104E10009948FBF77CFC4FF402719748FBF775FC4F
:104E20002046FEF7BFFFFFF74BFF10BD10B504464D
:104E30004FF444719048FBF76AFC08218E48FBF759
:104E400064FC2046FEF7AEFF4FF440718A48FBF742
:104E50005EFC18218848FBF758FC2046FEF7A2FFAD
:104E60004FF442718448FBF752FC10218248FBF753
:104E70004CFC2046FEF796FF4FF402717E48FBF78C
:104E800046FC4FF488717C48FBF73FFC2046FEF758
:104E900089FF4FF406717848FBF739FC4FF48071B5
:104EA0007548FBF732FC2046FEF77CFF182172485C
:104EB000FBF72DFC4FF440716F48FBF726FC2046B2
:104EC000FEF770FF4FF48C716B48FBF720FC4FF43A
:104ED00000716948FBF719FC2046FEF763FF4FF4A9
:104EE00088716548FBF713FC4FF402716248FBF7C9
:104EF0000CFC2046FEF756FFFFF7E2FE10BD10B592
:104F000004464FF48C715C48FBF701FC4FF40071D0
:104F10005948FBF7FAFB2046FEF744FF1821564894
:104F2000FBF7F5FB4FF440715348FBF7EEFB2046CF
:104F3000FEF738FF4FF406714F48FBF7E8FB4FF4DC
:104F400080714D48FBF7E1FB2046FEF72BFF4FF445
:104F500002714948FBF7DBFB4FF488714648FBF7C9
:104F6000D4FB2046FEF71EFF4FF442714248FBF788
:104F7000CEFB10214048FBF7C8FB2046FEF712FF8E
:104F80004FF440713C48FBF7C2FB18213A48FBF74D
:104F9000BCFB2046FEF706FF4FF444713648FBF792
:104FA000B6FB08213448FBF7B0FB2046FEF7FAFEBB
:104FB0004FF488713048FBF7AAFB4FF402712E487A
:104FC000FBF7A3FB2046FEF7EDFEFFF779FE10BDD1
:104FD00010B5044618212848FBF799FB4FF440719F
:104FE0002548FBF792FB2046FEF7DCFE4FF44071AC
:104FF0002148FBF78CFB18211F48FBF786FB204656
:10500000FEF7D0FE4FF402711B48FBF780FB4FF414
:1050100088711948FBF779FB2046FEF7C3FE4FF471
:1050200088711548FBF773FB4FF402711248FBF7C8
:105030006CFB2046FEF7B6FEFFF742FE10BD10B532
:1050400004464FF440710C48FBF761FB18210A48F5
:10505000FBF75BFB2046FEF7A5FE18210648FBF791
:1050600056FB4FF440710448FBF74FFB2046FEF718
:1050700099FEFFF725FE10BD000C014008B54FF466
:10508000C040ADF8000010208DF8030003208DF81B
:10509000020069460E48FBF78BFA01210D48FBF729
:1050A00058FB4FF4C0410A48FBF731FB08BD10B56F
:1050B000044604F001024FF480410548FBF729FB48
:1050C00004F002024FF400510148FBF722FB10BD2F
:1050D000000801400004300008B50F20ADF80000C2
:1050E00048208DF8030069461D48FBF761FA08BDAA
:1050F00010B5002401211A48FBF7EDFA70B1022126
:105100001748FBF7E8FA48B104211548FBF7E3FA22
:1051100020B108211248FBF7DEFAF0B91420FEF79F
:1051200041FE01210E48FBF7D6FA08B944F001040C
:1051300002210B48FBF7CFFA08B944F0020404211E
:105140000748FBF7C8FA08B944F0040408210448EA
:10515000FBF7C1FA08B944F00804204610BD00006E
:105160000008014008B5C020ADF8000048208DF8C7
:10517000030069463448FBF71BFA0420ADF8000031
:1051800048208DF8030069463048FBF711FA08BD46
:1051900070B5002540212C48FBF79DFA10B1002086
:1051A0002B49087040212848FBF795FA002830D198
:1051B0002748007868BB6420FEF7DFFD0421234800
:1051C000FBF789FA04460320FEF7ECFD40211E4858
:1051D000FBF781FAE8B90CB9012500E002250020AF
:1051E0001C4908800AE01B480088401C19490880B7
:1051F0000120174908701420FEF7BFFD4021124816
:10520000FBF769FA28B9134800884EF660218842F6
:10521000E9DB80210C48FBF75EFA90B90C48007876
:1052200078B91420FEF7BEFD80210748FBF753FA3A
:1052300038B9032500BF80210348FBF74CFA00284A
:10524000F9D0284670BD000000080140000C014064
:10525000440000204600002008B54FF48070ADF8EF
:10526000000048208DF8030069464248FBF7A0F98A
:105270004FF400413F48FBF748FA4FF480513E4855
:10528000FBF743FA08BD10B54FF480513A48FBF7DD
:105290003CFA10BD10B504462046FFF742FB10BD96
:1052A00010B500BF01213548FDF793F90028F9D06A
:1052B0003248FDF73DF9C0B210BD10B504464FF4B9
:1052C00080512D48FBF721FA1420FEF756FD4FF4CC
:1052D00080512948FBF71BFA2046FFF7DBFF282007
:1052E000FEF74BFD10BD10B504462046FFF7D2FF78
:1052F0000A20FEF742FD10BD10B50A20FEF73DFD65
:10530000FF20FFF70EFB0446204610BD10B54FF4FA
:1053100000411848FBF7DFF90446204610BD10B5E0
:105320004FF41670FEF73EFDFFF796FF0620FFF7DD
:10533000C4FF5520FFF7D7FFFFF7DEFF0446FFF756
:10534000A2FFAA2C01D0FA2010BD1520FFF7B5FF4F
:105350000620FFF7C8FF1420FEF70FFDFFF7CCFF74
:105360000446FFF790FF512C01D11420ECE7FA20FE
:10537000EAE7000000080140000C0140003800404E
:1053800070B504462720FFF798FFFFF7B5FF0646E4
:10539000054646B100BFFFF7AFFF2070641C701ECA
:1053A000C0B2061EF7D1FFF76EFF284670BD70B57C
:1053B00004462D20FFF781FFFFF79EFF06460546B6
:1053C00046B100BF2078FFF78EFF641C701EC0B28C
:1053D000061EF7D1FFF757FF284670BD70B505468A
:1053E0000C462C20FFF769FF2046FFF77CFF44B1F5
:1053F00000BF2878FFF777FF6D1C601EC0B2041E47
:10540000F7D1FFF740FF70BD70B505460E46144654
:105410002E20FFF752FF3046FFF765FF2046FFF7CB
:1054200062FF44B100BF2878FFF75DFF6D1C601E6E
:10543000C0B2041EF7D1FFF726FF70BD70B5054658
:105440000C460D20FFF739FF2846FFF74CFFE0B26E
:10545000FFF749FFC4F30720FFF745FFC4F30740F8
:10546000FFF741FF200EFFF73EFFFFF70CFF70BD77
:105470002DE9F041FFF740FF0446FFF73DFF0546E9
:10548000FFF73AFF0646FFF737FF0746FFF7FBFE39
:1054900044EA052040EA064040EA0760BDE8F081A2
:1054A00010B504460C20FFF708FF2046FFF71BFF4E
:1054B000FFF7DEFF10BD70B504460A20FFF7FDFEC2
:1054C0002046FFF710FFFFF717FF0546FFF7DBFE4B
:1054D000284670BD10B52220FFF7EFFEFFF70CFF46
:1054E0000446FFF7D0FE204610BD10B5002406E0AC
:1054F000FFF70CFF10B1FFF7EDFF10BD641CFC4877
:105500008442F5D3FA20F8E710B504462046FFF7A9
:10551000D4FEFFF7B8FEFFF7E8FF10BD2DE9F0411C
:1055200006460120FFF7C9FEFFF7E6FE43282BDA07
:105530002B20FFF7C0FF102826DA2F20FFF7BDFE33
:105540000020FFF7D0FE3220FFF7DEFF0446142CC8
:105550001AD1CF20FFF7AFFF0446ACB14C20FFF7C4
:105560009FFF00EB042739464C20FFF767FF5020D0
:10557000FFF796FF00EB042739465020FFF75EFF48
:1055800000217020FFF75AFF2F20FFF796FE357895
:105590002846FFF7A8FE09E0761C35785C2D01D07F
:1055A0002F2D00D100252846FFF79DFE002DF3D1B9
:1055B000FFF769FEBDE8F08170B505460C460B208B
:1055C000FFF77BFE2846FFF78EFE2046FFF78BFE97
:1055D000FFF759FE70BD10B500210D20FFF7ECFF5D
:1055E00010BD10B56820FFF75BFF10BD10B52B2074
:1055F000FFF761FF10BD70B505460C462846FFF762
:105600005CFE2046FFF76FFEFFF73DFEFFF76DFFE4
:1056100070BD10B50520FEF7C5FB5A20FFF774FFDB
:1056200004460520FEF7BEFB204610BD10B5FFF76F
:105630006DFE08B1FFF74EFF3020FFF765FF10BD8C
:1056400010B53120FFF760FF10BD10B504462046AD
:10565000FFF764FF20785C2802D020782F2803D140
:1056600000216420FFF7EAFE3220FFF74DFF10BD56
:1056700010B5044614B12046FFF750FF3420FFF761
:1056800043FF10BD10B504462046FFF747FF2078C2
:105690005C2802D020782F2803D100216420FFF756
:1056A000CDFE4020FFF730FF10BD0246114600E05E
:1056B000491C08780028FBD100E0491E08785C28C6
:1056C00004D008782F2801D09142F6D1914200D021
:1056D000491C881AC0B270472DE9F04105460F46B3
:1056E0000026012429E001E0601CC4B2285D5C288A
:1056F00005D0285D2F2802D0285D0028F4D1285D30
:1057000010B1601CC4B200E00024A819FFF79DFF8F
:10571000064684B1BC420ED0412E0AD0142E02D1CE
:105720004320BDE8F081422E01D1B320F9E7304695
:10573000F7E7264601E03046F3E7D4E710B5044624
:10574000FF212046FFF7C8FF10BD70B50646304662
:10575000FFF7ABFF054685B129463046FFF7BCFF92
:105760000446412C09D0142C01D1432070BD422C99
:1057700001D1B320FAE72046F8E77019FFF778FF68
:10578000F4E770B50546DDB1012401E0601CC4B248
:10579000285D5C2805D0285D2F2802D0285D0028D0
:1057A000F4D1285D48B12846FFF7C8FF0446142C01
:1057B00006D0412C04D0204670BD2846FFF7AEFE2F
:1057C0003520FFF7A1FEF7E710B504462146362045
:1057D000FFF711FF10BD10B5FF213720FFF70BFFBA
:1057E00010BD10B53820FFF78FFE10BD10B5044670
:1057F0003920FFF762FDE0B2FFF775FDC4F3072023
:10580000FFF771FDC4F30740FFF76DFD200EFFF7B2
:105810006AFDFFF738FDFFF768FE10BD2DE9F04186
:1058200007460E4614463A20FFF747FDF0B2FFF751
:105830005AFD3012FFF757FDFFF725FD0CB1002090
:10584000208016E0FFF751FE05461D2D0ED138468B
:10585000FFF796FD05463B20FFF72FFDFFF713FDF1
:105860002F4434B120882844208002E02846BDE837
:10587000F081E7E72DE9F04107460E4614463C204B
:10588000FFF71BFDF0B2FFF72EFD3012FFF72BFDE7
:10589000FFF7F9FC0CB10020208016E0FFF725FE91
:1058A00005461E2D0ED13846FFF781FD05463D20E9
:1058B000FFF703FDFFF7E7FC2F4434B120882844AD
:1058C000208002E02846BDE8F081E7E770B5044695
:1058D0003E20FFF719FE0546142D0BD12720FFF7B8
:1058E000ECFCFFF709FDFFF7C3FD206004E00000BA
:1058F000404B4C0000202060284670BD2DE9F04749
:1059000004460120FFF7D9FCFFF7F6FC432808DA2C
:105910002B20FFF7D0FD102803DB03212B20FFF7FE
:105920004BFE3F20FFF7F0FD0546142D24D1272024
:10593000FFF7C3FCFFF7E0FCFFF7DEFCFFF7DCFC42
:10594000FFF7DAFCFFF7D8FCFFF7D6FC0646FFF7B7
:10595000D3FC0746FFF7D0FC8046FFF7CDFC81461D
:1059600046EA072040EA084040EA09602060FFF765
:10597000C3FCFFF788FC01E0002020602846BDE85A
:10598000F08710B504464A20FFF797FCE0B2FFF716
:10599000AAFCC4F30720FFF7A6FCC4F30740FFF7F7
:1059A000A2FC0020FFF79FFCFFF76DFCFFF79DFDB9
:1059B00010BD000010B517A0FEF7C8FE10BD10B551
:1059C0004FF41650FEF7EBFE4FF4404013490880A9
:1059D000FFF7F0FF10BD10B511A0FEF7B7FE10BD28
:1059E00010B511A0FEF7B2FE10BD10B510A0FEF765
:1059F000ADFE10BD10B510A0FEF7A8FE10BD10B58D
:105A00000FA0FEF7A3FE10BD10B50FA0FEF79EFE7F
:105A100010BD00007E031E1DEF00000042000020AC
:105A20007E031112EF0000007E031211EF00000050
:105A30007E031417EF0000007E031310EF00000038
:105A40007E031516EF0000007E031615EF00000020
:105A500010B5012211037748FAF75BFE0122D1024B
:105A60007448FAF756FE0120FEF787F900224FF43A
:105A700080517048FAF74DFE0120FEF77EF90022B2
:105A80004FF400616B48FAF744FE0120FEF775F908
:105A900010BD10B500224FF480516648FAF739FE68
:105AA0000122D1026348FAF734FE0120FEF765F9BE
:105AB000012211035F48FAF72CFE0120FEF75DF981
:105AC00010BD70B50446254600224FF48051594858
:105AD000FAF71FFE00224FF400615648FAF719FE4C
