:060000000204E0AF9D22A6
:10000B0002057A75C10575919575922575A1A47533
:10001B00A255D295C2A1C2A4C2A7C2A6C290C28049
:10002B00C281C294C292C29122D2DE75E68075E57E
:10003B002375E68875E10375E2E875E480E4F5F66F
:10004B00F5F775E388C2DE220205DFE50C24FE60BE
:10005B004E14606A14607B1470030200F114700379
:10006B00020139240560030201A9EF64EB7012F55C
:10007B000A7400250AF582E43400F583EFF0050AD3
:10008B0022E50A64017014AE0A050A74002EF5828B
:10009B00E43400F583EFF0750C0222E4F50A22AE8E
:1000AB000A050A74002EF582E43400F583EFF06440
:1000BB00FB7007750C06750B0122750C0322AE0A3B
:1000CB00050A74002EF582E43400F583EFF0750C0D
:1000DB000422AE0A050A74002EF582E43400F5837F
:1000EB00EFF0750C0522AE0A050A74002EF582E4BA
:1000FB003400F583EFF0E50AFD7C00C39450748067
:10010B0094805018ED2403FDEC33FC900002E06D5D
:10011B007001EC60030201AC750C0622E4F50A7465
:10012B0000250AF582E43400F583E4F08070AE0A12
:10013B00050A74002EF582E43400F583EFF0C3E575
:10014B000A940774809480405874FF250AF582E462
:10015B0034FFF583E0643C704874FE250AF582E4B5
:10016B0034FFF583E064C3703874FD250AF582E42F
:10017B0034FFF583E06433702874FC250AF582E4C0
:10018B0034FFF583E064CC7018F50A7400250AF58A
:10019B0082E43400F583E4F0750C01D20022750C77
:1001AB00012202130000020F0000022D00000226A4
:1001BB0000000224FFFF0456000000000231000083
:1001CB00012101012C00013300013000012201014A
:1001DB002800012A00012300012B00015B000129EB
:1001EB000060500000000000000000000000000054
:1001FB0000000000000000000000000000000000F4
:10020B0000000000000000000000000000000000E3
:10021B0000000000000000000000000000000000D3
:10022B0000000000000000000000000000000000C3
:10023B0000000000006050005000000000000000B3
:10024B0000000000000000000000000000000000A3
:10025B000000000000000000000000000000000093
:10026B000000000000000000000000000000000083
:10027B000000000000000000000000000000000073
:10028B00000000000000000000010C01C100010A89
:10029B0000010E0002080000010B0000BB010CE581
:1002AB008229F582E5833AF583E0225006E925821F
:1002BB00F8E622BBFE06E92582F8E222E58229F563
:1002CB0082E5833AF583E49322BB010689828A8314
:1002DB00F0225002F722BBFE01F322F8BB010DE521
:1002EB008229F582E5833AF583E8F0225006E92569
:1002FB0082C8F622BBFE05E92582C8F222F8BB01B3
:10030B0011E58229F582E5833AF583E8F0E5F0A360
:10031B00F0225009E92582C8F608A6F022BBFE0997
:10032B00E92582C8F2E5F008F222E8600FECC3136E
:10033B00FCED13FDEE13FEEF13FFD8F1227401FF5A
:10034B003395E0FEFDFC080808E6CF2FF618E6CE45
:10035B003EF618E6CD3DF618E6CC3CF622D083D01F
:10036B0082F8E4937012740193700DA3A393F87445
:10037B000193F5828883E4737402936860EFA3A3FF
:10038B00A380DFE4FFFEE5F9540270030204381288
:10039B0006B3052EE52E7002052DD3EF9527EE95AE
:1003AB002640048E268F27C3EF9525EE9524500407
:1003BB008E248F25E4FCFDE5592FF559E5583EF5C4
:1003CB0058ED3557F557EC3556F556E52E64064581
:1003DB002D705AAE26AF27AB07AA06C3E5599BFF74
:1003EB00E5589AFEE5579400FDE5569400FCC006CF
:1003FB00C007AE24AF25AB07AA06D007D006C3EFC4
:10040B009BFFEE9AFEED9400FDEC9400FC7802123B
:10041B0003358E318F3274FFF524F525E4F526F57F
:10042B0027F559F558F557F556F52DF52E22E5120A
:10043B0020E3030204CB5312F7D3E5329416E531D4
:10044B00940D401EE4F522F53DF53EF53BF53CF5EC
:10045B003FF540F537F538F539F53A5335BFF530FB
:10046B00803DC3E5329474E53194085032E5329403
:10047B0098E531940740280540E5407002053FE4BC
:10048B00F537F538F539F53A5335BFD3E5409414C4
:10049B00E53F94004009753F00754014433504E572
:1004AB003530E21CE554640160134336047D457C12
:1004BB00017FD67E021206397530018003E4F530D8
:1004CB001206A6EF4E600DE540453F7007FDFCFFA1
:1004DB00FE1206392278FFE4F6D8FD9000007F006B
:1004EB007E01E4F0A3DFFCDEFA758197020535028D
:1004FB000665E493A3F8E493A34003F68001F208A6
:10050B00DFF48029E493A3F85407240CC8C333C445
:10051B00540F4420C8834004F456800146F6DFE4B0
:10052B00800B01020408102040809001ADE47E0195
:10053B009360BCA3FF543F30E509541FFEE493A323
:10054B0060010ECF54C025E060A840B8E493A3FA35
:10055B00E493A3F8E493A3C8C582C8CAC583CAF0C1
:10056B00A3C8C582C8CAC583CADFE9DEE780BEC09F
:10057B00E0C0F0C083C082C0D075D000C000C00105
:10058B00C002C003C004C005C006C007A2DEE4332E
:10059B00540125E0FFE53454FD4FF534C2DEC28C27
:1005AB00758A18758CFCD28CAF34EFC3131392DEA3
:1005BB007511FF7512FF12038ED007D006D005D030
:1005CB0004D003D002D001D000D0D0D082D083D0C1
:1005DB00F0D0E032C0E0C0F0C083C082C0D075D094
:1005EB0000C000C001C002C003C004C005C006C0EB
:1005FB0007E59C540164017009120003539CFE1221
:10060B000056D007D006D005D004D003D002D001BD
:10061B00D000D0D0D082D083D0F0D0E032C2A1C2F3
:10062B00A4C2A7C2A6C290E4FDFC7FDA7E07AB078B
:10063B00AA06D2DE8AE18BE28CF68DF7C2DE22753A
:10064B008901E4F588758E03C28C758A18758CFC4C
:10065B0075B802F5B9D2A9D28C22120695E4F5131E
:10066B00F5140514E514700205131206BF120439B4
:10067B0080F0E4F5F9F5FAF5FBF5FC75F96C75FA14
:10068B008175FB40F5FC75F96D22C2AF12000E129D
:10069B00064A12003412067DD2AF22D2DEAFF6EF3D
:1006AB00FEADF7EDFFC2DE22AFFEEFFEADFDEDFFBF
:0F06BB0053F9FD22D2A4D2A6D280D294D291229A
:00000001FF
